{
  "contractName": "ChromiumV2",
  "abi": [
    {
      "inputs": [
        {
          "internalType": "address",
          "name": "_oracleAddress",
          "type": "address"
        }
      ],
      "stateMutability": "nonpayable",
      "type": "constructor"
    },
    {
      "anonymous": false,
      "inputs": [
        {
          "indexed": false,
          "internalType": "address",
          "name": "",
          "type": "address"
        },
        {
          "indexed": false,
          "internalType": "uint256",
          "name": "",
          "type": "uint256"
        }
      ],
      "name": "Received",
      "type": "event"
    },
    {
      "anonymous": false,
      "inputs": [
        {
          "indexed": true,
          "internalType": "address",
          "name": "from",
          "type": "address"
        },
        {
          "indexed": true,
          "internalType": "address",
          "name": "to",
          "type": "address"
        },
        {
          "indexed": false,
          "internalType": "uint256",
          "name": "value",
          "type": "uint256"
        }
      ],
      "name": "Transfer",
      "type": "event"
    },
    {
      "inputs": [],
      "name": "WithdrawContract",
      "outputs": [
        {
          "internalType": "address",
          "name": "",
          "type": "address"
        }
      ],
      "stateMutability": "view",
      "type": "function"
    },
    {
      "inputs": [],
      "name": "buyStatus",
      "outputs": [
        {
          "internalType": "bool",
          "name": "",
          "type": "bool"
        }
      ],
      "stateMutability": "view",
      "type": "function"
    },
    {
      "inputs": [],
      "name": "chromiumStatus",
      "outputs": [
        {
          "internalType": "bool",
          "name": "",
          "type": "bool"
        }
      ],
      "stateMutability": "view",
      "type": "function"
    },
    {
      "inputs": [],
      "name": "contractBalance",
      "outputs": [
        {
          "internalType": "uint256",
          "name": "",
          "type": "uint256"
        }
      ],
      "stateMutability": "view",
      "type": "function"
    },
    {
      "inputs": [],
      "name": "feeThreshold",
      "outputs": [
        {
          "internalType": "uint256",
          "name": "",
          "type": "uint256"
        }
      ],
      "stateMutability": "view",
      "type": "function"
    },
    {
      "inputs": [],
      "name": "flatFee",
      "outputs": [
        {
          "internalType": "uint256",
          "name": "",
          "type": "uint256"
        }
      ],
      "stateMutability": "view",
      "type": "function"
    },
    {
      "inputs": [],
      "name": "highTokenPool",
      "outputs": [
        {
          "internalType": "uint256",
          "name": "",
          "type": "uint256"
        }
      ],
      "stateMutability": "view",
      "type": "function"
    },
    {
      "inputs": [],
      "name": "lowTokenPool",
      "outputs": [
        {
          "internalType": "uint256",
          "name": "",
          "type": "uint256"
        }
      ],
      "stateMutability": "view",
      "type": "function"
    },
    {
      "inputs": [],
      "name": "migrationExchange",
      "outputs": [
        {
          "internalType": "address",
          "name": "",
          "type": "address"
        }
      ],
      "stateMutability": "view",
      "type": "function"
    },
    {
      "inputs": [],
      "name": "oracle",
      "outputs": [
        {
          "internalType": "contract ExchangeOracle",
          "name": "",
          "type": "address"
        }
      ],
      "stateMutability": "view",
      "type": "function"
    },
    {
      "inputs": [],
      "name": "percentFee",
      "outputs": [
        {
          "internalType": "uint256",
          "name": "",
          "type": "uint256"
        }
      ],
      "stateMutability": "view",
      "type": "function"
    },
    {
      "inputs": [],
      "name": "poolThreshold",
      "outputs": [
        {
          "internalType": "uint256",
          "name": "",
          "type": "uint256"
        }
      ],
      "stateMutability": "view",
      "type": "function"
    },
    {
      "inputs": [],
      "name": "token",
      "outputs": [
        {
          "internalType": "contract IERC20",
          "name": "",
          "type": "address"
        }
      ],
      "stateMutability": "view",
      "type": "function"
    },
    {
      "inputs": [],
      "name": "totalFeeBalance",
      "outputs": [
        {
          "internalType": "uint256",
          "name": "",
          "type": "uint256"
        }
      ],
      "stateMutability": "view",
      "type": "function"
    },
    {
      "stateMutability": "payable",
      "type": "receive"
    },
    {
      "inputs": [],
      "name": "setToken",
      "outputs": [],
      "stateMutability": "nonpayable",
      "type": "function"
    },
    {
      "inputs": [],
      "name": "getContractBalance",
      "outputs": [
        {
          "internalType": "uint256",
          "name": "",
          "type": "uint256"
        }
      ],
      "stateMutability": "view",
      "type": "function"
    },
    {
      "inputs": [],
      "name": "setOracle",
      "outputs": [],
      "stateMutability": "nonpayable",
      "type": "function"
    },
    {
      "inputs": [],
      "name": "setChromiumStatus",
      "outputs": [],
      "stateMutability": "nonpayable",
      "type": "function"
    },
    {
      "inputs": [],
      "name": "setBuyStatus",
      "outputs": [],
      "stateMutability": "nonpayable",
      "type": "function"
    },
    {
      "inputs": [],
      "name": "getEtherBalance",
      "outputs": [
        {
          "internalType": "uint256",
          "name": "",
          "type": "uint256"
        }
      ],
      "stateMutability": "view",
      "type": "function"
    },
    {
      "inputs": [
        {
          "internalType": "uint256",
          "name": "_poolNum",
          "type": "uint256"
        }
      ],
      "name": "getPoolBalance",
      "outputs": [
        {
          "internalType": "uint256",
          "name": "",
          "type": "uint256"
        }
      ],
      "stateMutability": "view",
      "type": "function"
    },
    {
      "inputs": [],
      "name": "setThreshold",
      "outputs": [],
      "stateMutability": "nonpayable",
      "type": "function"
    },
    {
      "inputs": [
        {
          "internalType": "uint256",
          "name": "_poolType",
          "type": "uint256"
        },
        {
          "internalType": "uint256",
          "name": "_amount",
          "type": "uint256"
        }
      ],
      "name": "fundTokenPool",
      "outputs": [],
      "stateMutability": "nonpayable",
      "type": "function"
    },
    {
      "inputs": [
        {
          "internalType": "uint256",
          "name": "_amount",
          "type": "uint256"
        }
      ],
      "name": "expectedBuyReturn",
      "outputs": [
        {
          "internalType": "uint256",
          "name": "",
          "type": "uint256"
        },
        {
          "internalType": "uint256",
          "name": "",
          "type": "uint256"
        },
        {
          "internalType": "uint256",
          "name": "",
          "type": "uint256"
        }
      ],
      "stateMutability": "view",
      "type": "function"
    },
    {
      "inputs": [
        {
          "internalType": "uint256",
          "name": "_amount",
          "type": "uint256"
        }
      ],
      "name": "expectedSellReturn",
      "outputs": [
        {
          "internalType": "uint256",
          "name": "",
          "type": "uint256"
        },
        {
          "internalType": "uint256",
          "name": "",
          "type": "uint256"
        }
      ],
      "stateMutability": "view",
      "type": "function"
    },
    {
      "inputs": [
        {
          "internalType": "uint256",
          "name": "_amount",
          "type": "uint256"
        }
      ],
      "name": "calculateFee",
      "outputs": [
        {
          "internalType": "uint256",
          "name": "",
          "type": "uint256"
        },
        {
          "internalType": "uint256",
          "name": "",
          "type": "uint256"
        }
      ],
      "stateMutability": "view",
      "type": "function"
    },
    {
      "inputs": [],
      "name": "buyCBLT",
      "outputs": [],
      "stateMutability": "payable",
      "type": "function"
    },
    {
      "inputs": [
        {
          "internalType": "uint256",
          "name": "_amount",
          "type": "uint256"
        }
      ],
      "name": "sellCBLT",
      "outputs": [],
      "stateMutability": "payable",
      "type": "function"
    },
    {
      "inputs": [],
      "name": "setWithdrawContract",
      "outputs": [],
      "stateMutability": "nonpayable",
      "type": "function"
    },
    {
      "inputs": [],
      "name": "getTotalFeeBalance",
      "outputs": [
        {
          "internalType": "uint256",
          "name": "",
          "type": "uint256"
        }
      ],
      "stateMutability": "view",
      "type": "function"
    },
    {
      "inputs": [],
      "name": "withdrawFees",
      "outputs": [],
      "stateMutability": "payable",
      "type": "function"
    },
    {
      "inputs": [],
      "name": "newFlatFee",
      "outputs": [],
      "stateMutability": "nonpayable",
      "type": "function"
    },
    {
      "inputs": [],
      "name": "newPercentFee",
      "outputs": [],
      "stateMutability": "nonpayable",
      "type": "function"
    },
    {
      "inputs": [],
      "name": "newThreshold",
      "outputs": [],
      "stateMutability": "nonpayable",
      "type": "function"
    },
    {
      "inputs": [],
      "name": "setMigrationAddress",
      "outputs": [],
      "stateMutability": "nonpayable",
      "type": "function"
    },
    {
      "inputs": [],
      "name": "assetsMigration",
      "outputs": [],
      "stateMutability": "payable",
      "type": "function"
    }
  ],
  "bytecode": "0x608060405234801561001057600080fd5b506040516137393803806137398339818101604052602081101561003357600080fd5b81019080805190602001909291905050507329a99c126596c0dc96b02a88a9eaab44eccf511e6000806101000a81548173ffffffffffffffffffffffffffffffffffffffff021916908373ffffffffffffffffffffffffffffffffffffffff16021790555080600160006101000a81548173ffffffffffffffffffffffffffffffffffffffff021916908373ffffffffffffffffffffffffffffffffffffffff1602179055506001600360006101000a81548160ff0219169083151502179055506000600360016101000a81548160ff021916908315150217905550674563918244f40000600881905550692a5a058fc295ed00000060048190555060036009819055506003600a81905550506135ea8061014f6000396000f3fe6080604052600436106102135760003560e01c80638db5d08211610118578063db77d34d116100a0578063ed129f681161006f578063ed129f6814610785578063ed1375d5146107db578063ed9cf58c1461082a578063f8201b1514610841578063fc0c546a1461084b57610281565b8063db77d34d146106ff578063e2ffadb914610716578063e653088314610743578063ea46193e1461075a57610281565b806399a5d747116100e757806399a5d74714610632578063c60e487014610688578063cb4e162b14610692578063cde6683b146106bd578063d9eb5947146106d457610281565b80638db5d082146105815780638dcb71ef146105ac578063925bc6e7146105c35780639834331b1461060457610281565b80634c1a41151161019b57806377ba05171161016a57806377ba05171461048e5780637af71aa6146104d35780637dc0d1d0146104ea578063897e0fbe1461052b5780638b7afe2e1461055657610281565b80634c1a4115146103c45780635b89c489146103ef5780636d9ab702146104065780636f9fb98a1461046357610281565b80631f0fa1c5116101e25780631f0fa1c5146103345780633415650e1461035f57806346c5772d1461038c578063476343ee146103a35780634c04f63e146103ad57610281565b806304051223146102865780630c5ce3ae1461029d57806310666788146102c857806314d0a61c146102f357610281565b36610281576102246002543461088c565b6002819055507f88a5966d370b9919b20f3e2c13ff65706f196a4e32cc2c12bf57088f885258743334604051808373ffffffffffffffffffffffffffffffffffffffff1681526020018281526020019250505060405180910390a1005b600080fd5b34801561029257600080fd5b5061029b6108a8565b005b3480156102a957600080fd5b506102b2610af0565b6040518082815260200191505060405180910390f35b3480156102d457600080fd5b506102dd610af6565b6040518082815260200191505060405180910390f35b3480156102ff57600080fd5b50610308610afc565b604051808273ffffffffffffffffffffffffffffffffffffffff16815260200191505060405180910390f35b34801561034057600080fd5b50610349610b22565b6040518082815260200191505060405180910390f35b34801561036b57600080fd5b50610374610b28565b60405180821515815260200191505060405180910390f35b34801561039857600080fd5b506103a1610b3b565b005b6103ab610daa565b005b3480156103b957600080fd5b506103c2610f71565b005b3480156103d057600080fd5b506103d961107a565b6040518082815260200191505060405180910390f35b3480156103fb57600080fd5b50610404611080565b005b34801561041257600080fd5b5061043f6004803603602081101561042957600080fd5b81019080803590602001909291905050506112ef565b60405180848152602001838152602001828152602001935050505060405180910390f35b34801561046f57600080fd5b50610478611422565b6040518082815260200191505060405180910390f35b34801561049a57600080fd5b506104d1600480360360408110156104b157600080fd5b81019080803590602001909291908035906020019092919050505061142c565b005b3480156104df57600080fd5b506104e86114ff565b005b3480156104f657600080fd5b506104ff611747565b604051808273ffffffffffffffffffffffffffffffffffffffff16815260200191505060405180910390f35b34801561053757600080fd5b5061054061176d565b6040518082815260200191505060405180910390f35b34801561056257600080fd5b5061056b611777565b6040518082815260200191505060405180910390f35b34801561058d57600080fd5b5061059661177d565b6040518082815260200191505060405180910390f35b3480156105b857600080fd5b506105c1611783565b005b3480156105cf57600080fd5b506105d86119b8565b604051808273ffffffffffffffffffffffffffffffffffffffff16815260200191505060405180910390f35b6106306004803603602081101561061a57600080fd5b81019080803590602001909291905050506119de565b005b34801561063e57600080fd5b5061066b6004803603602081101561065557600080fd5b8101908080359060200190929190505050611bee565b604051808381526020018281526020019250505060405180910390f35b610690611d08565b005b34801561069e57600080fd5b506106a7611f4a565b6040518082815260200191505060405180910390f35b3480156106c957600080fd5b506106d2611f50565b005b3480156106e057600080fd5b506106e9612082565b6040518082815260200191505060405180910390f35b34801561070b57600080fd5b50610714612088565b005b34801561072257600080fd5b5061072b6122bd565b60405180821515815260200191505060405180910390f35b34801561074f57600080fd5b506107586122d0565b005b34801561076657600080fd5b5061076f612505565b6040518082815260200191505060405180910390f35b34801561079157600080fd5b506107be600480360360208110156107a857600080fd5b810190808035906020019092919050505061250d565b604051808381526020018281526020019250505060405180910390f35b3480156107e757600080fd5b50610814600480360360208110156107fe57600080fd5b8101908080359060200190929190505050612623565b6040518082815260200191505060405180910390f35b34801561083657600080fd5b5061083f612643565b005b6108496128b1565b005b34801561085757600080fd5b50610860612c7e565b604051808273ffffffffffffffffffffffffffffffffffffffff16815260200191505060405180910390f35b60008082840190508381101561089e57fe5b8091505092915050565b60011515600160009054906101000a900473ffffffffffffffffffffffffffffffffffffffff1673ffffffffffffffffffffffffffffffffffffffff16630c3f64bf336040518263ffffffff1660e01b8152600401808273ffffffffffffffffffffffffffffffffffffffff16815260200191505060206040518083038186803b15801561093557600080fd5b505afa158015610949573d6000803e3d6000fd5b505050506040513d602081101561095f57600080fd5b81019080805190602001909291905050501515146109e5576040517f08c379a00000000000000000000000000000000000000000000000000000000081526004018080602001828103825260178152602001807f55736572206973206e6f74206120646576656c6f70657200000000000000000081525060200191505060405180910390fd5b6000600160009054906101000a900473ffffffffffffffffffffffffffffffffffffffff1673ffffffffffffffffffffffffffffffffffffffff16637a62f51e60336040518263ffffffff1660e01b815260040180828152602001806020018281038252600c8152602001807f736574427579537461747573000000000000000000000000000000000000000081525060200192505050602060405180830381600087803b158015610a9657600080fd5b505af1158015610aaa573d6000803e3d6000fd5b505050506040513d6020811015610ac057600080fd5b8101908080519060200190929190505050905080600360016101000a81548160ff02191690831515021790555050565b600b5481565b60065481565b600760009054906101000a900473ffffffffffffffffffffffffffffffffffffffff1681565b60055481565b600360019054906101000a900460ff1681565b60011515600160009054906101000a900473ffffffffffffffffffffffffffffffffffffffff1673ffffffffffffffffffffffffffffffffffffffff16630c3f64bf336040518263ffffffff1660e01b8152600401808273ffffffffffffffffffffffffffffffffffffffff16815260200191505060206040518083038186803b158015610bc857600080fd5b505afa158015610bdc573d6000803e3d6000fd5b505050506040513d6020811015610bf257600080fd5b8101908080519060200190929190505050151514610c78576040517f08c379a00000000000000000000000000000000000000000000000000000000081526004018080602001828103825260178152602001807f55736572206973206e6f74206120646576656c6f70657200000000000000000081525060200191505060405180910390fd5b6000600160009054906101000a900473ffffffffffffffffffffffffffffffffffffffff1673ffffffffffffffffffffffffffffffffffffffff166345d4671f60336040518263ffffffff1660e01b81526004018082815260200180602001828103825260138152602001807f7365744d6967726174696f6e416464726573730000000000000000000000000081525060200192505050602060405180830381600087803b158015610d2957600080fd5b505af1158015610d3d573d6000803e3d6000fd5b505050506040513d6020811015610d5357600080fd5b8101908080519060200190929190505050905080600c60006101000a81548173ffffffffffffffffffffffffffffffffffffffff021916908373ffffffffffffffffffffffffffffffffffffffff16021790555050565b6000600160009054906101000a900473ffffffffffffffffffffffffffffffffffffffff1673ffffffffffffffffffffffffffffffffffffffff1663b610e77460336040518263ffffffff1660e01b815260040180828152602001806020018281038252600c8152602001807f776974686472617746656573000000000000000000000000000000000000000081525060200192505050602060405180830381600087803b158015610e5b57600080fd5b505af1158015610e6f573d6000803e3d6000fd5b505050506040513d6020811015610e8557600080fd5b81019080805190602001909291905050509050600b54811115610ef3576040517f08c379a00000000000000000000000000000000000000000000000000000000081526004018080602001828103825260278152602001806134866027913960400191505060405180910390fd5b610eff600b5482612ca2565b600b81905550600760009054906101000a900473ffffffffffffffffffffffffffffffffffffffff1673ffffffffffffffffffffffffffffffffffffffff166108fc829081150290604051600060405180830381858888f19350505050158015610f6d573d6000803e3d6000fd5b5050565b6000600160009054906101000a900473ffffffffffffffffffffffffffffffffffffffff1673ffffffffffffffffffffffffffffffffffffffff1663b610e77460336040518263ffffffff1660e01b815260040180828152602001806020018281038252600c8152602001807f7365745468726573686f6c64000000000000000000000000000000000000000081525060200192505050602060405180830381600087803b15801561102257600080fd5b505af1158015611036573d6000803e3d6000fd5b505050506040513d602081101561104c57600080fd5b8101908080519060200190929190505050905061107181670de0b6b3a7640000612cb9565b60048190555050565b600a5481565b60011515600160009054906101000a900473ffffffffffffffffffffffffffffffffffffffff1673ffffffffffffffffffffffffffffffffffffffff16630c3f64bf336040518263ffffffff1660e01b8152600401808273ffffffffffffffffffffffffffffffffffffffff16815260200191505060206040518083038186803b15801561110d57600080fd5b505afa158015611121573d6000803e3d6000fd5b505050506040513d602081101561113757600080fd5b81019080805190602001909291905050501515146111bd576040517f08c379a00000000000000000000000000000000000000000000000000000000081526004018080602001828103825260178152602001807f55736572206973206e6f74206120646576656c6f70657200000000000000000081525060200191505060405180910390fd5b6000600160009054906101000a900473ffffffffffffffffffffffffffffffffffffffff1673ffffffffffffffffffffffffffffffffffffffff166345d4671f60336040518263ffffffff1660e01b81526004018082815260200180602001828103825260098152602001807f7365744f7261636c65000000000000000000000000000000000000000000000081525060200192505050602060405180830381600087803b15801561126e57600080fd5b505af1158015611282573d6000803e3d6000fd5b505050506040513d602081101561129857600080fd5b8101908080519060200190929190505050905080600160006101000a81548173ffffffffffffffffffffffffffffffffffffffff021916908373ffffffffffffffffffffffffffffffffffffffff16021790555050565b600080600080600160009054906101000a900473ffffffffffffffffffffffffffffffffffffffff1673ffffffffffffffffffffffffffffffffffffffff1663f3167c0560008054906101000a900473ffffffffffffffffffffffffffffffffffffffff166040518263ffffffff1660e01b8152600401808273ffffffffffffffffffffffffffffffffffffffff16815260200191505060206040518083038186803b15801561139e57600080fd5b505afa1580156113b2573d6000803e3d6000fd5b505050506040513d60208110156113c857600080fd5b8101908080519060200190929190505050905060008060006113e988611bee565b809250819450505061140c670de0b6b3a76400006114078587612cf0565b612cb9565b9150818382965096509650505050509193909250565b6000600254905090565b60018214156114955761147e8160008054906101000a900473ffffffffffffffffffffffffffffffffffffffff1673ffffffffffffffffffffffffffffffffffffffff16612d0990919063ffffffff16565b61148a6005548261088c565b6005819055506114fb565b60028214156114fa576114e78160008054906101000a900473ffffffffffffffffffffffffffffffffffffffff1673ffffffffffffffffffffffffffffffffffffffff16612d0990919063ffffffff16565b6114f36006548261088c565b6006819055505b5b5050565b60011515600160009054906101000a900473ffffffffffffffffffffffffffffffffffffffff1673ffffffffffffffffffffffffffffffffffffffff16630c3f64bf336040518263ffffffff1660e01b8152600401808273ffffffffffffffffffffffffffffffffffffffff16815260200191505060206040518083038186803b15801561158c57600080fd5b505afa1580156115a0573d6000803e3d6000fd5b505050506040513d60208110156115b657600080fd5b810190808051906020019092919050505015151461163c576040517f08c379a00000000000000000000000000000000000000000000000000000000081526004018080602001828103825260178152602001807f55736572206973206e6f74206120646576656c6f70657200000000000000000081525060200191505060405180910390fd5b6000600160009054906101000a900473ffffffffffffffffffffffffffffffffffffffff1673ffffffffffffffffffffffffffffffffffffffff16637a62f51e60336040518263ffffffff1660e01b81526004018082815260200180602001828103825260118152602001807f7365744368726f6d69756d53746174757300000000000000000000000000000081525060200192505050602060405180830381600087803b1580156116ed57600080fd5b505af1158015611701573d6000803e3d6000fd5b505050506040513d602081101561171757600080fd5b8101908080519060200190929190505050905080600360006101000a81548160ff02191690831515021790555050565b600160009054906101000a900473ffffffffffffffffffffffffffffffffffffffff1681565b6000600b54905090565b60025481565b60045481565b60011515600160009054906101000a900473ffffffffffffffffffffffffffffffffffffffff1673ffffffffffffffffffffffffffffffffffffffff16630c3f64bf336040518263ffffffff1660e01b8152600401808273ffffffffffffffffffffffffffffffffffffffff16815260200191505060206040518083038186803b15801561181057600080fd5b505afa158015611824573d6000803e3d6000fd5b505050506040513d602081101561183a57600080fd5b81019080805190602001909291905050501515146118c0576040517f08c379a00000000000000000000000000000000000000000000000000000000081526004018080602001828103825260178152602001807f55736572206973206e6f74206120646576656c6f70657200000000000000000081525060200191505060405180910390fd5b6000600160009054906101000a900473ffffffffffffffffffffffffffffffffffffffff1673ffffffffffffffffffffffffffffffffffffffff1663b610e77460336040518263ffffffff1660e01b815260040180828152602001806020018281038252600a8152602001807f6e6577466c61744665650000000000000000000000000000000000000000000081525060200192505050602060405180830381600087803b15801561197157600080fd5b505af1158015611985573d6000803e3d6000fd5b505050506040513d602081101561199b57600080fd5b810190808051906020019092919050505090508060098190555050565b600c60009054906101000a900473ffffffffffffffffffffffffffffffffffffffff1681565b60011515600360009054906101000a900460ff16151514611a4a576040517f08c379a000000000000000000000000000000000000000000000000000000000815260040180806020018281038252603681526020018061357f6036913960400191505060405180910390fd5b60011515600360019054906101000a900460ff16151514611ab6576040517f08c379a00000000000000000000000000000000000000000000000000000000081526004018080602001828103825260238152602001806135066023913960400191505060405180910390fd5b600080611ac28361250d565b80925081935050506002548210611b24576040517f08c379a00000000000000000000000000000000000000000000000000000000081526004018080602001828103825260368152602001806134506036913960400191505060405180910390fd5b611b30600b548261088c565b600b81905550611b4260025483612ca2565b600281905550611ba2611b5d84670de0b6b3a7640000612cb9565b60008054906101000a900473ffffffffffffffffffffffffffffffffffffffff1673ffffffffffffffffffffffffffffffffffffffff16612d0990919063ffffffff16565b3373ffffffffffffffffffffffffffffffffffffffff166108fc839081150290604051600060405180830381858888f19350505050158015611be8573d6000803e3d6000fd5b50505050565b600080600080600854851115611c2057611c0d85600a546103e8612dbf565b9050611c198582612ca2565b9150611cfb565b6000600160009054906101000a900473ffffffffffffffffffffffffffffffffffffffff1673ffffffffffffffffffffffffffffffffffffffff1663858b033d6040518163ffffffff1660e01b815260040160206040518083038186803b158015611c8a57600080fd5b505afa158015611c9e573d6000803e3d6000fd5b505050506040513d6020811015611cb457600080fd5b810190808051906020019092919050505090506000611cdc68056bc75e2d6310000083612cf0565b9050611cea81600954612cb9565b9250611cf68784612ca2565b935050505b8181935093505050915091565b66354a6ba7a18000341015611d68576040517f08c379a000000000000000000000000000000000000000000000000000000000815260040180806020018281038252602c815260200180613529602c913960400191505060405180910390fd5b60011515600360009054906101000a900460ff16151514611dd4576040517f08c379a000000000000000000000000000000000000000000000000000000000815260040180806020018281038252603681526020018061357f6036913960400191505060405180910390fd5b6000806000611de2346112ef565b8093508194508295505050506004548310611e68576005548310611e51576040517f08c379a00000000000000000000000000000000000000000000000000000000081526004018080602001828103825260338152602001806134ad6033913960400191505060405180910390fd5b611e5d60055484612ca2565b600581905550611ed5565b6006548310611ec2576040517f08c379a00000000000000000000000000000000000000000000000000000000081526004018080602001828103825260338152602001806134ad6033913960400191505060405180910390fd5b611ece60065484612ca2565b6006819055505b611ee1600b548261088c565b600b81905550611ef36002548361088c565b600281905550611f44338460008054906101000a900473ffffffffffffffffffffffffffffffffffffffff1673ffffffffffffffffffffffffffffffffffffffff16612dd69092919063ffffffff16565b50505050565b60085481565b6000600160009054906101000a900473ffffffffffffffffffffffffffffffffffffffff1673ffffffffffffffffffffffffffffffffffffffff166345d4671f60336040518263ffffffff1660e01b81526004018082815260200180602001828103825260138152602001807f7365745769746864726177436f6e74726163740000000000000000000000000081525060200192505050602060405180830381600087803b15801561200157600080fd5b505af1158015612015573d6000803e3d6000fd5b505050506040513d602081101561202b57600080fd5b8101908080519060200190929190505050905080600760006101000a81548173ffffffffffffffffffffffffffffffffffffffff021916908373ffffffffffffffffffffffffffffffffffffffff16021790555050565b60095481565b60011515600160009054906101000a900473ffffffffffffffffffffffffffffffffffffffff1673ffffffffffffffffffffffffffffffffffffffff16630c3f64bf336040518263ffffffff1660e01b8152600401808273ffffffffffffffffffffffffffffffffffffffff16815260200191505060206040518083038186803b15801561211557600080fd5b505afa158015612129573d6000803e3d6000fd5b505050506040513d602081101561213f57600080fd5b81019080805190602001909291905050501515146121c5576040517f08c379a00000000000000000000000000000000000000000000000000000000081526004018080602001828103825260178152602001807f55736572206973206e6f74206120646576656c6f70657200000000000000000081525060200191505060405180910390fd5b6000600160009054906101000a900473ffffffffffffffffffffffffffffffffffffffff1673ffffffffffffffffffffffffffffffffffffffff1663b610e77460336040518263ffffffff1660e01b815260040180828152602001806020018281038252600c8152602001807f6e65775468726573686f6c64000000000000000000000000000000000000000081525060200192505050602060405180830381600087803b15801561227657600080fd5b505af115801561228a573d6000803e3d6000fd5b505050506040513d60208110156122a057600080fd5b810190808051906020019092919050505090508060088190555050565b600360009054906101000a900460ff1681565b60011515600160009054906101000a900473ffffffffffffffffffffffffffffffffffffffff1673ffffffffffffffffffffffffffffffffffffffff16630c3f64bf336040518263ffffffff1660e01b8152600401808273ffffffffffffffffffffffffffffffffffffffff16815260200191505060206040518083038186803b15801561235d57600080fd5b505afa158015612371573d6000803e3d6000fd5b505050506040513d602081101561238757600080fd5b810190808051906020019092919050505015151461240d576040517f08c379a00000000000000000000000000000000000000000000000000000000081526004018080602001828103825260178152602001807f55736572206973206e6f74206120646576656c6f70657200000000000000000081525060200191505060405180910390fd5b6000600160009054906101000a900473ffffffffffffffffffffffffffffffffffffffff1673ffffffffffffffffffffffffffffffffffffffff1663b610e77460336040518263ffffffff1660e01b815260040180828152602001806020018281038252600d8152602001807f6e657750657263656e744665650000000000000000000000000000000000000081525060200192505050602060405180830381600087803b1580156124be57600080fd5b505af11580156124d2573d6000803e3d6000fd5b505050506040513d60208110156124e857600080fd5b8101908080519060200190929190505050905080600a8190555050565b600047905090565b6000806000806000600160009054906101000a900473ffffffffffffffffffffffffffffffffffffffff1673ffffffffffffffffffffffffffffffffffffffff1663f3167c0560008054906101000a900473ffffffffffffffffffffffffffffffffffffffff166040518263ffffffff1660e01b8152600401808273ffffffffffffffffffffffffffffffffffffffff16815260200191505060206040518083038186803b1580156125be57600080fd5b505afa1580156125d2573d6000803e3d6000fd5b505050506040513d60208110156125e857600080fd5b8101908080519060200190929190505050925061260d6126088785612cb9565b611bee565b8092508193505050818194509450505050915091565b6000600182141561263857600554905061263e565b60065490505b919050565b60011515600160009054906101000a900473ffffffffffffffffffffffffffffffffffffffff1673ffffffffffffffffffffffffffffffffffffffff16630c3f64bf336040518263ffffffff1660e01b8152600401808273ffffffffffffffffffffffffffffffffffffffff16815260200191505060206040518083038186803b1580156126d057600080fd5b505afa1580156126e4573d6000803e3d6000fd5b505050506040513d60208110156126fa57600080fd5b8101908080519060200190929190505050151514612780576040517f08c379a00000000000000000000000000000000000000000000000000000000081526004018080602001828103825260178152602001807f55736572206973206e6f74206120646576656c6f70657200000000000000000081525060200191505060405180910390fd5b6000600160009054906101000a900473ffffffffffffffffffffffffffffffffffffffff1673ffffffffffffffffffffffffffffffffffffffff166345d4671f60336040518263ffffffff1660e01b81526004018082815260200180602001828103825260088152602001807f736574546f6b656e00000000000000000000000000000000000000000000000081525060200192505050602060405180830381600087803b15801561283157600080fd5b505af1158015612845573d6000803e3d6000fd5b505050506040513d602081101561285b57600080fd5b81019080805190602001909291905050509050806000806101000a81548173ffffffffffffffffffffffffffffffffffffffff021916908373ffffffffffffffffffffffffffffffffffffffff16021790555050565b60011515600160009054906101000a900473ffffffffffffffffffffffffffffffffffffffff1673ffffffffffffffffffffffffffffffffffffffff16630c3f64bf336040518263ffffffff1660e01b8152600401808273ffffffffffffffffffffffffffffffffffffffff16815260200191505060206040518083038186803b15801561293e57600080fd5b505afa158015612952573d6000803e3d6000fd5b505050506040513d602081101561296857600080fd5b81019080805190602001909291905050501515146129ee576040517f08c379a00000000000000000000000000000000000000000000000000000000081526004018080602001828103825260178152602001807f55736572206973206e6f74206120646576656c6f70657200000000000000000081525060200191505060405180910390fd5b6000600160009054906101000a900473ffffffffffffffffffffffffffffffffffffffff1673ffffffffffffffffffffffffffffffffffffffff1663b610e77460336040518263ffffffff1660e01b815260040180828152602001806020018281038252600f8152602001807f6173736574734d6967726174696f6e000000000000000000000000000000000081525060200192505050602060405180830381600087803b158015612a9f57600080fd5b505af1158015612ab3573d6000803e3d6000fd5b505050506040513d6020811015612ac957600080fd5b8101908080519060200190929190505050905060008060009054906101000a900473ffffffffffffffffffffffffffffffffffffffff1673ffffffffffffffffffffffffffffffffffffffff166370a08231306040518263ffffffff1660e01b8152600401808273ffffffffffffffffffffffffffffffffffffffff16815260200191505060206040518083038186803b158015612b6657600080fd5b505afa158015612b7a573d6000803e3d6000fd5b505050506040513d6020811015612b9057600080fd5b81019080805190602001909291905050509050612c10600c60009054906101000a900473ffffffffffffffffffffffffffffffffffffffff168260008054906101000a900473ffffffffffffffffffffffffffffffffffffffff1673ffffffffffffffffffffffffffffffffffffffff16612dd69092919063ffffffff16565b50600c60009054906101000a900473ffffffffffffffffffffffffffffffffffffffff1673ffffffffffffffffffffffffffffffffffffffff166108fc839081150290604051600060405180830381858888f19350505050158015612c79573d6000803e3d6000fd5b505050565b60008054906101000a900473ffffffffffffffffffffffffffffffffffffffff1681565b600082821115612cae57fe5b818303905092915050565b600080831415612ccc5760009050612cea565b6000828402905082848281612cdd57fe5b0414612ce557fe5b809150505b92915050565b600080828481612cfc57fe5b0490508091505092915050565b6000811415612d1757612dbb565b612d2082612e7e565b15612d8c5780341115612d87573373ffffffffffffffffffffffffffffffffffffffff166108fc612d5a8334612ca290919063ffffffff16565b9081150290604051600060405180830381858888f19350505050158015612d85573d6000803e3d6000fd5b505b612dba565b612db93330838573ffffffffffffffffffffffffffffffffffffffff16612f5e909392919063ffffffff16565b5b5b5050565b60008183850281612dcc57fe5b0490509392505050565b600080821415612de95760019050612e77565b612df284612e7e565b15612e47578273ffffffffffffffffffffffffffffffffffffffff166108fc839081150290604051600060405180830381858888f19350505050158015612e3d573d6000803e3d6000fd5b5060019050612e77565b612e7283838673ffffffffffffffffffffffffffffffffffffffff1661301f9092919063ffffffff16565b600190505b9392505050565b600073c02aaa39b223fe8d0a0e5c4f27ead9083c756cc273ffffffffffffffffffffffffffffffffffffffff168273ffffffffffffffffffffffffffffffffffffffff161480612f0d575073eeeeeeeeeeeeeeeeeeeeeeeeeeeeeeeeeeeeeeee73ffffffffffffffffffffffffffffffffffffffff168273ffffffffffffffffffffffffffffffffffffffff16145b80612f57575073c778417e063141139fce010982780140aa0cd5ab73ffffffffffffffffffffffffffffffffffffffff168273ffffffffffffffffffffffffffffffffffffffff16145b9050919050565b613019846323b872dd60e01b858585604051602401808473ffffffffffffffffffffffffffffffffffffffff1681526020018373ffffffffffffffffffffffffffffffffffffffff1681526020018281526020019350505050604051602081830303815290604052907bffffffffffffffffffffffffffffffffffffffffffffffffffffffff19166020820180517bffffffffffffffffffffffffffffffffffffffffffffffffffffffff83818316178352505050506130c1565b50505050565b6130bc8363a9059cbb60e01b8484604051602401808373ffffffffffffffffffffffffffffffffffffffff16815260200182815260200192505050604051602081830303815290604052907bffffffffffffffffffffffffffffffffffffffffffffffffffffffff19166020820180517bffffffffffffffffffffffffffffffffffffffffffffffffffffffff83818316178352505050506130c1565b505050565b6000613123826040518060400160405280602081526020017f5361666545524332303a206c6f772d6c6576656c2063616c6c206661696c65648152508573ffffffffffffffffffffffffffffffffffffffff166131b09092919063ffffffff16565b90506000815111156131ab5780806020019051602081101561314457600080fd5b81019080805190602001909291905050506131aa576040517f08c379a000000000000000000000000000000000000000000000000000000000815260040180806020018281038252602a815260200180613555602a913960400191505060405180910390fd5b5b505050565b60606131bf84846000856131c8565b90509392505050565b606082471015613223576040517f08c379a00000000000000000000000000000000000000000000000000000000081526004018080602001828103825260268152602001806134e06026913960400191505060405180910390fd5b61322c85613370565b61329e576040517f08c379a000000000000000000000000000000000000000000000000000000000815260040180806020018281038252601d8152602001807f416464726573733a2063616c6c20746f206e6f6e2d636f6e747261637400000081525060200191505060405180910390fd5b6000808673ffffffffffffffffffffffffffffffffffffffff1685876040518082805190602001908083835b602083106132ed57805182526020820191506020810190506020830392506132ca565b6001836020036101000a03801982511681845116808217855250505050505090500191505060006040518083038185875af1925050503d806000811461334f576040519150601f19603f3d011682016040523d82523d6000602084013e613354565b606091505b5091509150613364828286613383565b92505050949350505050565b600080823b905060008111915050919050565b6060831561339357829050613448565b6000835111156133a65782518084602001fd5b816040517f08c379a00000000000000000000000000000000000000000000000000000000081526004018080602001828103825283818151815260200191508051906020019080838360005b8381101561340d5780820151818401526020810190506133f2565b50505050905090810190601f16801561343a5780820380516001836020036101000a031916815260200191505b509250505060405180910390fd5b939250505056fe4578706563746564204554482072657475726e20697320686967686572207468616e20636f6e747261637427732062616c616e63652e547265617375727920646f65736e277420686176652073756666696369656e742066756e64732e506f6f6c2069732063757272656e746c79206465706c6574656420666f722074686520616d6f756e742070726f6d697365642e416464726573733a20696e73756666696369656e742062616c616e636520666f722063616c6c427579696e6720666561747572652069732063757272656e746c79206f66666c696e654572726f722c206465706f736974206d75737420626520686967686572207468616e20302e303135204554485361666545524332303a204552433230206f7065726174696f6e20646964206e6f74207375636365656445786368616e67652069732063757272656e746c79206f66666c696e652c20706c656173652074727920616761696e206c617465722ea26469706673582212201b2e9b01eb7cbd60ce471aeb7290ba5550de37f668b2ff95778f296ed0d20f1064736f6c63430007060033",
  "immutableReferences": {},
  "source": "// SPDX-License-Identifier: MIT\npragma solidity >=0.4.22 <0.9.0;\n\nimport \"./interfaces/UniversalERC20.sol\";\nimport \"./interfaces/Ownable.sol\";\nimport \"./interfaces/IUniswap.sol\";\nimport \"./ExchangeOracle.sol\";\n\ncontract ChromiumV2 {\n    using UniversalERC20 for IERC20;\n\n    event Received(address, uint256);\n    event Transfer(address indexed from, address indexed to, uint256 value);\n\n    // ********************************** CONTRACT CONTROL *********************************\n\n    /**\n     * @dev ERC20 storing instance of main token (CBLT).\n     */\n    IERC20 public token;\n\n    /**\n     * @dev Cobalt oracle contract.\n     */\n    ExchangeOracle public oracle;\n\n    /**\n     * @dev Total contract balance of available ETH for swapping.\n     */\n    uint256 public contractBalance;\n\n    /**\n     * @dev Exchange status. True - On / False - Off\n     */\n    bool public chromiumStatus;\n\n    /**\n     * @dev Bool enables the sellCBLT function. True - On / False - Off\n     */\n    bool public buyStatus;\n\n    /**\n     * @dev Modifier restricts access to only devs.\n     */\n    modifier isDev() {\n        require(oracle.isDev(msg.sender) == true, \"User is not a developer\");\n        _;\n    }\n\n    /**\n     * @dev Setter function changes the address of the default token\n     * exchange uses to swap.\n     */\n    function setToken() public isDev {\n        address newToken = oracle.addressChange(51, \"setToken\");\n        token = IERC20(newToken);\n    }\n\n    /**\n     * @dev Getter function used to pull total available ETH for swapping.\n     */\n    function getContractBalance() public view returns (uint256) {\n        return contractBalance;\n    }\n\n    /**\n     * @dev Setter function changes the address of the default oracle\n     * from which contract pulls prices.\n     */\n    function setOracle() public isDev {\n        address newOracle = oracle.addressChange(51, \"setOracle\");\n        oracle = ExchangeOracle(newOracle);\n    }\n\n    /**\n     * @dev Function returns the current status for chromium status. True - on,\n     * False - off.\n     */\n    function setChromiumStatus() public isDev {\n        bool status = oracle.boolChange(51, \"setChromiumStatus\");\n        chromiumStatus = status;\n    }\n\n    /**\n     * @dev Function changes chromium status.\n     */\n    function setBuyStatus() public isDev {\n        bool status = oracle.boolChange(51, \"setBuyStatus\");\n        buyStatus = status;\n    }\n\n    function getEtherBalance() public view returns (uint256) {\n        return address(this).balance;\n    }\n\n    constructor(address _oracleAddress) {\n        token = IERC20(address(0x29a99c126596c0Dc96b02A88a9EAab44EcCf511e));\n        oracle = ExchangeOracle(_oracleAddress);\n        chromiumStatus = true;\n        buyStatus = false;\n        feeThreshold = 5e18;\n        poolThreshold = 200000000000000000000000;\n        flatFee = 3;\n        percentFee = 3;\n    }\n\n    /**\n     * @dev Receiver keeps track of all funds directly sent to contract\n     * and adds it to total ETH pool available for swapping.\n     */\n    receive() external payable {\n        contractBalance = SafeMath.add(contractBalance, msg.value);\n        emit Received(msg.sender, msg.value);\n    }\n\n    // ************************************ EXCHANGE ******************************************\n\n    /**\n     * @dev uint used to determine to determine fee and pool from which the\n     * users request to swap will be funded.\n     */\n    uint256 public poolThreshold;\n\n    /**\n     * @dev uint keeps track of current balance available for high value\n     * transactions.\n     */\n    uint256 public highTokenPool;\n\n    /**\n     * @dev uint keeps track of current balance available for low value\n     * transactions.\n     */\n    uint256 public lowTokenPool;\n\n    /**\n     * @dev Function returns the balance of each pool.\n     */\n    function getPoolBalance(uint256 _poolNum) public view returns (uint256) {\n        if (_poolNum == 1) {\n            return highTokenPool;\n        } else {\n            return lowTokenPool;\n        }\n    }\n\n    /**\n     * @dev Function sets the threshold to determine fee and pool access.\n     */\n    function setThreshold() public {\n        uint256 newLimit = oracle.numberChange(51, \"setThreshold\");\n        poolThreshold = SafeMath.mul(newLimit, 1e18);\n    }\n\n    /**\n     * @dev Function used to send CBLT to contract. Function takes a param of\n     * uint to determine to which pool balance will be added as well as\n     * the amount sent.\n     * @param _poolType Type 1 funds high pool, type 2 funds low pool.\n     * @param _amount Amount being sent to the contract.\n     */\n    function fundTokenPool(uint256 _poolType, uint256 _amount) public {\n        if (_poolType == 1) {\n            IERC20(token).universalTransferFromSenderToThis(_amount);\n            highTokenPool = SafeMath.add(highTokenPool, _amount);\n        } else if (_poolType == 2) {\n            IERC20(token).universalTransferFromSenderToThis(_amount);\n            lowTokenPool = SafeMath.add(lowTokenPool, _amount);\n        }\n    }\n\n    /**\n     * @dev Modifier determines if swapping is valid. Value must be higher than\n     * 0.015 ETH and chromium status should be turned on.\n     */\n    modifier validBuy() {\n        require(\n            msg.value >= 15e15,\n            \"Error, deposit must be higher than 0.015 ETH\"\n        );\n        require(\n            chromiumStatus == true,\n            \"Exchange is currently offline, please try again later.\"\n        );\n        _;\n    }\n\n    /**\n     * @dev Modifier checks if chromium is currently supporting swapping in both\n     * directions (buy and sell).\n     */\n    modifier validSell() {\n        require(\n            chromiumStatus == true,\n            \"Exchange is currently offline, please try again later.\"\n        );\n        require(buyStatus == true, \"Buying feature is currently offline\");\n\n        _;\n    }\n\n    /**\n     * @dev Function outputs information on a simulated transaction based on\n     * an amount of ETH sent.\n     * @param _amount of ether sent to buy CBLT tokens\n     * @return amount of expected tokens user should receive on ETH sent,\n     * new balance after fee has been subtracted, and the substracted fee.\n     */\n    function expectedBuyReturn(uint256 _amount)\n        public\n        view\n        returns (\n            uint256,\n            uint256,\n            uint256\n        )\n    {\n        uint256 priceOfToken = oracle.priceOfToken(address(token));\n        uint256 balance;\n        uint256 tokenExpectedReturn;\n        uint256 fee;\n\n        (balance, fee) = calculateFee(_amount);\n        tokenExpectedReturn = SafeMath.mul(\n            1e18,\n            SafeMath.div(balance, priceOfToken)\n        );\n        return (tokenExpectedReturn, balance, fee);\n    }\n\n    /**\n     * @dev Function outputs information on a simulated transaction based on\n     * an amount of CBLT sent.\n     * @param _amount of CBLT tokens sent to swap for ETH\n     * @return new balance after fee has been subtracted, and the substracted\n     * fee.\n     */\n    function expectedSellReturn(uint256 _amount)\n        public\n        view\n        returns (uint256, uint256)\n    {\n        uint256 priceOfToken;\n        uint256 balance;\n        uint256 fee;\n\n        priceOfToken = oracle.priceOfToken(address(token));\n        (balance, fee) = calculateFee(SafeMath.mul(_amount, priceOfToken));\n        return (balance, fee);\n    }\n\n    /**\n     * @dev Helper function calculates a fee based on the amount of ETH\n     * user sent or should be sent.\n     * @param _amount of ETH sent or received\n     * @return new balance after fee is subtracted, fee subtracted\n     */\n    function calculateFee(uint256 _amount)\n        public\n        view\n        returns (uint256, uint256)\n    {\n        uint256 newBalance;\n        uint256 fee;\n\n        if (_amount > feeThreshold) {\n            fee = SafeMath.multiply(_amount, percentFee, 1000);\n            newBalance = SafeMath.sub(_amount, fee);\n        } else {\n            uint256 ETHprice = oracle.priceOfETH();\n            uint256 ETHinUSD = SafeMath.div(100000000000000000000, ETHprice);\n            fee = SafeMath.mul(ETHinUSD, flatFee);\n            newBalance = SafeMath.sub(_amount, fee);\n        }\n\n        return (newBalance, fee);\n    }\n\n    /**\n     * @dev Function sends an amount of CBLT tokens to user based\n     * on amount sent by user.\n     */\n    function buyCBLT() public payable validBuy {\n        uint256 tokensOwed;\n        uint256 newBalance;\n        uint256 fee;\n\n        (tokensOwed, newBalance, fee) = expectedBuyReturn(msg.value);\n\n        if (tokensOwed >= poolThreshold) {\n            require(\n                tokensOwed < highTokenPool,\n                \"Pool is currently depleted for the amount promised.\"\n            );\n            highTokenPool = SafeMath.sub(highTokenPool, tokensOwed);\n        } else {\n            require(\n                tokensOwed < lowTokenPool,\n                \"Pool is currently depleted for the amount promised.\"\n            );\n            lowTokenPool = SafeMath.sub(lowTokenPool, tokensOwed);\n        }\n\n        totalFeeBalance = SafeMath.add(totalFeeBalance, fee);\n        contractBalance = SafeMath.add(contractBalance, newBalance);\n        IERC20(token).universalTransfer(msg.sender, tokensOwed);\n    }\n\n    /**\n     * @dev Function accepts a receiving amount of CBLT from user and\n     * sends the amount of ETH equivalent in value back.\n     * @notice Amount of ETH sent is first subtracted a fee.\n     */\n    function sellCBLT(uint256 _amount) public payable validSell {\n        uint256 newBalance;\n        uint256 fee;\n\n        (newBalance, fee) = expectedSellReturn(_amount);\n        require(\n            newBalance < contractBalance,\n            \"Expected ETH return is higher than contract's balance.\"\n        );\n\n        totalFeeBalance = SafeMath.add(totalFeeBalance, fee);\n        contractBalance = SafeMath.sub(contractBalance, newBalance);\n\n        IERC20(token).universalTransferFromSenderToThis(\n            SafeMath.mul(_amount, 1e18)\n        );\n        payable(msg.sender).transfer(newBalance);\n    }\n\n    //**************************************** FEE *****************************************\n\n    /**\n     * @dev Address of the contract used to withdraw fee funds from exchange\n     */\n    address public WithdrawContract;\n\n    /**\n     * @dev uint threshold used to determine if user will be charged a flat or % fee\n     */\n    uint256 public feeThreshold;\n\n    /**\n     * @dev uint saves information on flatfee amount.\n     */\n    uint256 public flatFee;\n\n    /**\n     * @dev uint saves information on percentFee amount.\n     */\n    uint256 public percentFee;\n\n    /**\n     * @dev uint saves the running total balance collected in ETH\n     * from fees.\n     */\n    uint256 public totalFeeBalance;\n\n    /**\n     * @dev Function sets the a new address to which amount withdrawn\n     * will be sent to.\n     */\n    function setWithdrawContract() public {\n        address treasuryAddress = oracle.addressChange(\n            51,\n            \"setWithdrawContract\"\n        );\n        WithdrawContract = treasuryAddress;\n    }\n\n    /**\n     * @dev Getter function used to pull the total running balance of\n     * fees collected in ETH.\n     */\n    function getTotalFeeBalance() public view returns (uint256) {\n        return totalFeeBalance;\n    }\n\n    /**\n     * @dev transfers funds to the approved address for withdrawal.\n     */\n    function withdrawFees() public payable {\n        uint256 amount = oracle.numberChange(51, \"withdrawFees\");\n\n        require(\n            amount <= totalFeeBalance,\n            \"Treasury doesn't have sufficient funds.\"\n        );\n\n        totalFeeBalance = SafeMath.sub(totalFeeBalance, amount);\n        payable(WithdrawContract).transfer(amount);\n    }\n\n    /**\n     * @dev Setter for flat fee.\n     */\n    function newFlatFee() public isDev {\n        uint256 newFee = oracle.numberChange(51, \"newFlatFee\");\n        flatFee = newFee;\n    }\n\n    /**\n     * @dev Setter for percentage fee.\n     */\n    function newPercentFee() public isDev {\n        uint256 newFee = oracle.numberChange(51, \"newPercentFee\");\n        percentFee = newFee;\n    }\n\n    /**\n     * @dev Setter for new fee threshold.\n     */\n\n    function newThreshold() public isDev {\n        uint256 newThreshold = oracle.numberChange(51, \"newThreshold\");\n        feeThreshold = newThreshold;\n    }\n\n    //*********************************** Exchange Migration *************************************\n\n    /**\n     * @dev Contract to which all assets will be transfered to.\n     */\n    address public migrationExchange;\n\n    /**\n     * @dev Function sets a new address to which all assets will migrate.\n     */\n    function setMigrationAddress() public isDev {\n        address newExchange = oracle.addressChange(51, \"setMigrationAddress\");\n        migrationExchange = newExchange;\n    }\n\n    /**\n     * @dev Function migrates both CBLT and ETH to the next version of Chromium.\n     */\n    function assetsMigration() public payable isDev {\n        uint256 amount = oracle.numberChange(51, \"assetsMigration\");\n        uint256 totalTokenBalance = token.balanceOf(address(this));\n\n        IERC20(token).universalTransfer(migrationExchange, totalTokenBalance);\n        payable(migrationExchange).transfer(amount);\n    }\n}\n",
  "sourcePath": "/Users/christianroque/Desktop/TungstenGroupProject/contracts/ChromiumV2.sol",
  "compiler": {
    "name": "solc",
    "version": "0.7.6+commit.7338295f.Emscripten.clang"
  },
  "schemaVersion": "3.3.4",
  "updatedAt": "2021-07-04T19:05:03.664Z",
  "devdoc": {
    "kind": "dev",
    "methods": {
      "assetsMigration()": {
        "details": "Function migrates both CBLT and ETH to the next version of Chromium."
      },
      "buyCBLT()": {
        "details": "Function sends an amount of CBLT tokens to user based on amount sent by user."
      },
      "calculateFee(uint256)": {
        "details": "Helper function calculates a fee based on the amount of ETH user sent or should be sent.",
        "params": {
          "_amount": "of ETH sent or received"
        },
        "returns": {
          "_0": "new balance after fee is subtracted, fee subtracted"
        }
      },
      "expectedBuyReturn(uint256)": {
        "details": "Function outputs information on a simulated transaction based on an amount of ETH sent.",
        "params": {
          "_amount": "of ether sent to buy CBLT tokens"
        },
        "returns": {
          "_0": "amount of expected tokens user should receive on ETH sent, new balance after fee has been subtracted, and the substracted fee."
        }
      },
      "expectedSellReturn(uint256)": {
        "details": "Function outputs information on a simulated transaction based on an amount of CBLT sent.",
        "params": {
          "_amount": "of CBLT tokens sent to swap for ETH"
        },
        "returns": {
          "_0": "new balance after fee has been subtracted, and the substracted fee."
        }
      },
      "fundTokenPool(uint256,uint256)": {
        "details": "Function used to send CBLT to contract. Function takes a param of uint to determine to which pool balance will be added as well as the amount sent.",
        "params": {
          "_amount": "Amount being sent to the contract.",
          "_poolType": "Type 1 funds high pool, type 2 funds low pool."
        }
      },
      "getContractBalance()": {
        "details": "Getter function used to pull total available ETH for swapping."
      },
      "getPoolBalance(uint256)": {
        "details": "Function returns the balance of each pool."
      },
      "getTotalFeeBalance()": {
        "details": "Getter function used to pull the total running balance of fees collected in ETH."
      },
      "newFlatFee()": {
        "details": "Setter for flat fee."
      },
      "newPercentFee()": {
        "details": "Setter for percentage fee."
      },
      "newThreshold()": {
        "details": "Setter for new fee threshold."
      },
      "sellCBLT(uint256)": {
        "details": "Function accepts a receiving amount of CBLT from user and sends the amount of ETH equivalent in value back."
      },
      "setBuyStatus()": {
        "details": "Function changes chromium status."
      },
      "setChromiumStatus()": {
        "details": "Function returns the current status for chromium status. True - on, False - off."
      },
      "setMigrationAddress()": {
        "details": "Function sets a new address to which all assets will migrate."
      },
      "setOracle()": {
        "details": "Setter function changes the address of the default oracle from which contract pulls prices."
      },
      "setThreshold()": {
        "details": "Function sets the threshold to determine fee and pool access."
      },
      "setToken()": {
        "details": "Setter function changes the address of the default token exchange uses to swap."
      },
      "setWithdrawContract()": {
        "details": "Function sets the a new address to which amount withdrawn will be sent to."
      },
      "withdrawFees()": {
        "details": "transfers funds to the approved address for withdrawal."
      }
    },
    "stateVariables": {
      "WithdrawContract": {
        "details": "Address of the contract used to withdraw fee funds from exchange"
      },
      "buyStatus": {
        "details": "Bool enables the sellCBLT function. True - On / False - Off"
      },
      "chromiumStatus": {
        "details": "Exchange status. True - On / False - Off"
      },
      "contractBalance": {
        "details": "Total contract balance of available ETH for swapping."
      },
      "feeThreshold": {
        "details": "uint threshold used to determine if user will be charged a flat or % fee"
      },
      "flatFee": {
        "details": "uint saves information on flatfee amount."
      },
      "highTokenPool": {
        "details": "uint keeps track of current balance available for high value transactions."
      },
      "lowTokenPool": {
        "details": "uint keeps track of current balance available for low value transactions."
      },
      "migrationExchange": {
        "details": "Contract to which all assets will be transfered to."
      },
      "oracle": {
        "details": "Cobalt oracle contract."
      },
      "percentFee": {
        "details": "uint saves information on percentFee amount."
      },
      "poolThreshold": {
        "details": "uint used to determine to determine fee and pool from which the users request to swap will be funded."
      },
      "token": {
        "details": "ERC20 storing instance of main token (CBLT)."
      },
      "totalFeeBalance": {
        "details": "uint saves the running total balance collected in ETH from fees."
      }
    },
    "version": 1
  },
  "userdoc": {
    "kind": "user",
    "methods": {
      "sellCBLT(uint256)": {
        "notice": "Amount of ETH sent is first subtracted a fee."
      }
    },
    "version": 1
  }
}