{
  "contractName": "ChromiumV2",
  "abi": [
    {
      "inputs": [
        {
          "internalType": "address",
          "name": "_oracleAddress",
          "type": "address"
        }
      ],
      "stateMutability": "nonpayable",
      "type": "constructor"
    },
    {
      "anonymous": false,
      "inputs": [
        {
          "indexed": false,
          "internalType": "address",
          "name": "",
          "type": "address"
        },
        {
          "indexed": false,
          "internalType": "uint256",
          "name": "",
          "type": "uint256"
        }
      ],
      "name": "Received",
      "type": "event"
    },
    {
      "anonymous": false,
      "inputs": [
        {
          "indexed": true,
          "internalType": "address",
          "name": "from",
          "type": "address"
        },
        {
          "indexed": true,
          "internalType": "address",
          "name": "to",
          "type": "address"
        },
        {
          "indexed": false,
          "internalType": "uint256",
          "name": "value",
          "type": "uint256"
        }
      ],
      "name": "Transfer",
      "type": "event"
    },
    {
      "inputs": [],
      "name": "WithdrawContract",
      "outputs": [
        {
          "internalType": "address",
          "name": "",
          "type": "address"
        }
      ],
      "stateMutability": "view",
      "type": "function"
    },
    {
      "inputs": [],
      "name": "buyStatus",
      "outputs": [
        {
          "internalType": "bool",
          "name": "",
          "type": "bool"
        }
      ],
      "stateMutability": "view",
      "type": "function"
    },
    {
      "inputs": [],
      "name": "chromiumStatus",
      "outputs": [
        {
          "internalType": "bool",
          "name": "",
          "type": "bool"
        }
      ],
      "stateMutability": "view",
      "type": "function"
    },
    {
      "inputs": [],
      "name": "contractBalance",
      "outputs": [
        {
          "internalType": "uint256",
          "name": "",
          "type": "uint256"
        }
      ],
      "stateMutability": "view",
      "type": "function"
    },
    {
      "inputs": [],
      "name": "feeThreshold",
      "outputs": [
        {
          "internalType": "uint256",
          "name": "",
          "type": "uint256"
        }
      ],
      "stateMutability": "view",
      "type": "function"
    },
    {
      "inputs": [],
      "name": "flatFee",
      "outputs": [
        {
          "internalType": "uint256",
          "name": "",
          "type": "uint256"
        }
      ],
      "stateMutability": "view",
      "type": "function"
    },
    {
      "inputs": [],
      "name": "highTokenPool",
      "outputs": [
        {
          "internalType": "uint256",
          "name": "",
          "type": "uint256"
        }
      ],
      "stateMutability": "view",
      "type": "function"
    },
    {
      "inputs": [],
      "name": "lowTokenPool",
      "outputs": [
        {
          "internalType": "uint256",
          "name": "",
          "type": "uint256"
        }
      ],
      "stateMutability": "view",
      "type": "function"
    },
    {
      "inputs": [],
      "name": "migrationExchange",
      "outputs": [
        {
          "internalType": "address",
          "name": "",
          "type": "address"
        }
      ],
      "stateMutability": "view",
      "type": "function"
    },
    {
      "inputs": [],
      "name": "oracle",
      "outputs": [
        {
          "internalType": "contract ExchangeOracle",
          "name": "",
          "type": "address"
        }
      ],
      "stateMutability": "view",
      "type": "function"
    },
    {
      "inputs": [],
      "name": "percentFee",
      "outputs": [
        {
          "internalType": "uint256",
          "name": "",
          "type": "uint256"
        }
      ],
      "stateMutability": "view",
      "type": "function"
    },
    {
      "inputs": [],
      "name": "poolThreshold",
      "outputs": [
        {
          "internalType": "uint256",
          "name": "",
          "type": "uint256"
        }
      ],
      "stateMutability": "view",
      "type": "function"
    },
    {
      "inputs": [],
      "name": "token",
      "outputs": [
        {
          "internalType": "contract IERC20",
          "name": "",
          "type": "address"
        }
      ],
      "stateMutability": "view",
      "type": "function"
    },
    {
      "inputs": [],
      "name": "totalFeeBalance",
      "outputs": [
        {
          "internalType": "uint256",
          "name": "",
          "type": "uint256"
        }
      ],
      "stateMutability": "view",
      "type": "function"
    },
    {
      "stateMutability": "payable",
      "type": "receive"
    },
    {
      "inputs": [],
      "name": "setToken",
      "outputs": [],
      "stateMutability": "nonpayable",
      "type": "function"
    },
    {
      "inputs": [],
      "name": "getContractBalance",
      "outputs": [
        {
          "internalType": "uint256",
          "name": "",
          "type": "uint256"
        }
      ],
      "stateMutability": "view",
      "type": "function"
    },
    {
      "inputs": [],
      "name": "setOracle",
      "outputs": [],
      "stateMutability": "nonpayable",
      "type": "function"
    },
    {
      "inputs": [],
      "name": "setChromiumStatus",
      "outputs": [],
      "stateMutability": "nonpayable",
      "type": "function"
    },
    {
      "inputs": [],
      "name": "setBuyStatus",
      "outputs": [],
      "stateMutability": "nonpayable",
      "type": "function"
    },
    {
      "inputs": [
        {
          "internalType": "uint256",
          "name": "_poolNum",
          "type": "uint256"
        }
      ],
      "name": "getPoolBalance",
      "outputs": [
        {
          "internalType": "uint256",
          "name": "",
          "type": "uint256"
        }
      ],
      "stateMutability": "view",
      "type": "function"
    },
    {
      "inputs": [],
      "name": "setThreshold",
      "outputs": [],
      "stateMutability": "nonpayable",
      "type": "function"
    },
    {
      "inputs": [
        {
          "internalType": "uint256",
          "name": "_poolType",
          "type": "uint256"
        },
        {
          "internalType": "uint256",
          "name": "_amount",
          "type": "uint256"
        }
      ],
      "name": "fundTokenPool",
      "outputs": [],
      "stateMutability": "nonpayable",
      "type": "function"
    },
    {
      "inputs": [
        {
          "internalType": "uint256",
          "name": "_amount",
          "type": "uint256"
        }
      ],
      "name": "expectedBuyReturn",
      "outputs": [
        {
          "internalType": "uint256",
          "name": "",
          "type": "uint256"
        },
        {
          "internalType": "uint256",
          "name": "",
          "type": "uint256"
        },
        {
          "internalType": "uint256",
          "name": "",
          "type": "uint256"
        }
      ],
      "stateMutability": "view",
      "type": "function"
    },
    {
      "inputs": [
        {
          "internalType": "uint256",
          "name": "_amount",
          "type": "uint256"
        }
      ],
      "name": "expectedSellReturn",
      "outputs": [
        {
          "internalType": "uint256",
          "name": "",
          "type": "uint256"
        },
        {
          "internalType": "uint256",
          "name": "",
          "type": "uint256"
        }
      ],
      "stateMutability": "view",
      "type": "function"
    },
    {
      "inputs": [
        {
          "internalType": "uint256",
          "name": "_amount",
          "type": "uint256"
        }
      ],
      "name": "calculateFee",
      "outputs": [
        {
          "internalType": "uint256",
          "name": "",
          "type": "uint256"
        },
        {
          "internalType": "uint256",
          "name": "",
          "type": "uint256"
        }
      ],
      "stateMutability": "view",
      "type": "function"
    },
    {
      "inputs": [],
      "name": "buyCBLT",
      "outputs": [],
      "stateMutability": "payable",
      "type": "function"
    },
    {
      "inputs": [
        {
          "internalType": "uint256",
          "name": "_amount",
          "type": "uint256"
        }
      ],
      "name": "sellCBLT",
      "outputs": [],
      "stateMutability": "payable",
      "type": "function"
    },
    {
      "inputs": [],
      "name": "setWithdrawContract",
      "outputs": [],
      "stateMutability": "nonpayable",
      "type": "function"
    },
    {
      "inputs": [],
      "name": "getTotalBalance",
      "outputs": [
        {
          "internalType": "uint256",
          "name": "",
          "type": "uint256"
        }
      ],
      "stateMutability": "view",
      "type": "function"
    },
    {
      "inputs": [],
      "name": "withdrawFees",
      "outputs": [],
      "stateMutability": "payable",
      "type": "function"
    },
    {
      "inputs": [],
      "name": "newFlatFee",
      "outputs": [],
      "stateMutability": "nonpayable",
      "type": "function"
    },
    {
      "inputs": [],
      "name": "newPercentFee",
      "outputs": [],
      "stateMutability": "nonpayable",
      "type": "function"
    },
    {
      "inputs": [],
      "name": "setExchangeAddress",
      "outputs": [],
      "stateMutability": "nonpayable",
      "type": "function"
    },
    {
      "inputs": [],
      "name": "assetsMigration",
      "outputs": [],
      "stateMutability": "payable",
      "type": "function"
    }
  ],
  "bytecode": "0x608060405234801561001057600080fd5b50604051612a17380380612a178339818101604052602081101561003357600080fd5b810190808051906020019092919050505073433c6e3d2def6e1fb414cf9448724efb0399b6986000806101000a81548173ffffffffffffffffffffffffffffffffffffffff021916908373ffffffffffffffffffffffffffffffffffffffff16021790555080600160006101000a81548173ffffffffffffffffffffffffffffffffffffffff021916908373ffffffffffffffffffffffffffffffffffffffff1602179055506001600360006101000a81548160ff0219169083151502179055506001600360016101000a81548160ff021916908315150217905550674563918244f4000060088190555061271060048190555060036009819055506003600a81905550506128d0806101476000396000f3fe6080604052600436106101fd5760003560e01c80638db5d0821161010d578063d9eb5947116100a0578063ed1375d51161006f578063ed1375d51461076c578063ed9cf58c146107bb578063f2ba53c6146107d2578063f8201b15146107e9578063fc0c546a146107f35761026b565b8063d9eb5947146106a7578063e2ffadb9146106d2578063e6530883146106ff578063ed129f68146107165761026b565b806399a5d747116100dc57806399a5d74714610605578063c60e48701461065b578063cb4e162b14610665578063cde6683b146106905761026b565b80638db5d082146105545780638dcb71ef1461057f578063925bc6e7146105965780639834331b146105d75761026b565b80634c04f63e116101905780636f9fb98a1161015f5780636f9fb98a1461046157806377ba05171461048c5780637af71aa6146104d15780637dc0d1d0146104e85780638b7afe2e146105295761026b565b80634c04f63e146103ab5780634c1a4115146103c25780635b89c489146103ed5780636d9ab702146104045761026b565b806314d0a61c116101cc57806314d0a61c146103085780631f0fa1c5146103495780633415650e14610374578063476343ee146103a15761026b565b806304051223146102705780630c5ce3ae1461028757806310666788146102b257806312b58349146102dd5761026b565b3661026b5761020e60025434610834565b6002819055507f88a5966d370b9919b20f3e2c13ff65706f196a4e32cc2c12bf57088f885258743334604051808373ffffffffffffffffffffffffffffffffffffffff1681526020018281526020019250505060405180910390a1005b600080fd5b34801561027c57600080fd5b50610285610850565b005b34801561029357600080fd5b5061029c61095b565b6040518082815260200191505060405180910390f35b3480156102be57600080fd5b506102c7610961565b6040518082815260200191505060405180910390f35b3480156102e957600080fd5b506102f2610967565b6040518082815260200191505060405180910390f35b34801561031457600080fd5b5061031d610971565b604051808273ffffffffffffffffffffffffffffffffffffffff16815260200191505060405180910390f35b34801561035557600080fd5b5061035e610997565b6040518082815260200191505060405180910390f35b34801561038057600080fd5b5061038961099d565b60405180821515815260200191505060405180910390f35b6103a96109b0565b005b3480156103b757600080fd5b506103c0610b77565b005b3480156103ce57600080fd5b506103d7610c6f565b6040518082815260200191505060405180910390f35b3480156103f957600080fd5b50610402610c75565b005b34801561041057600080fd5b5061043d6004803603602081101561042757600080fd5b8101908080359060200190929190505050610da7565b60405180848152602001838152602001828152602001935050505060405180910390f35b34801561046d57600080fd5b50610476610eda565b6040518082815260200191505060405180910390f35b34801561049857600080fd5b506104cf600480360360408110156104af57600080fd5b810190808035906020019092919080359060200190929190505050610ee4565b005b3480156104dd57600080fd5b506104e6610fb7565b005b3480156104f457600080fd5b506104fd6110c2565b604051808273ffffffffffffffffffffffffffffffffffffffff16815260200191505060405180910390f35b34801561053557600080fd5b5061053e6110e8565b6040518082815260200191505060405180910390f35b34801561056057600080fd5b506105696110ee565b6040518082815260200191505060405180910390f35b34801561058b57600080fd5b506105946110f4565b005b3480156105a257600080fd5b506105ab6111ec565b604051808273ffffffffffffffffffffffffffffffffffffffff16815260200191505060405180910390f35b610603600480360360208110156105ed57600080fd5b8101908080359060200190929190505050611212565b005b34801561061157600080fd5b5061063e6004803603602081101561062857600080fd5b8101908080359060200190929190505050611338565b604051808381526020018281526020019250505060405180910390f35b610663611452565b005b34801561067157600080fd5b5061067a611694565b6040518082815260200191505060405180910390f35b34801561069c57600080fd5b506106a561169a565b005b3480156106b357600080fd5b506106bc6117cc565b6040518082815260200191505060405180910390f35b3480156106de57600080fd5b506106e76117d2565b60405180821515815260200191505060405180910390f35b34801561070b57600080fd5b506107146117e5565b005b34801561072257600080fd5b5061074f6004803603602081101561073957600080fd5b81019080803590602001909291905050506118dd565b604051808381526020018281526020019250505060405180910390f35b34801561077857600080fd5b506107a56004803603602081101561078f57600080fd5b81019080803590602001909291905050506119f3565b6040518082815260200191505060405180910390f35b3480156107c757600080fd5b506107d0611a13565b005b3480156107de57600080fd5b506107e7611b44565b005b6107f1611c76565b005b3480156107ff57600080fd5b50610808611f86565b604051808273ffffffffffffffffffffffffffffffffffffffff16815260200191505060405180910390f35b60008082840190508381101561084657fe5b8091505092915050565b6000600160009054906101000a900473ffffffffffffffffffffffffffffffffffffffff1673ffffffffffffffffffffffffffffffffffffffff16637a62f51e60326040518263ffffffff1660e01b815260040180828152602001806020018281038252600c8152602001807f736574427579537461747573000000000000000000000000000000000000000081525060200192505050602060405180830381600087803b15801561090157600080fd5b505af1158015610915573d6000803e3d6000fd5b505050506040513d602081101561092b57600080fd5b8101908080519060200190929190505050905080600360016101000a81548160ff02191690831515021790555050565b600b5481565b60065481565b6000600b54905090565b600760009054906101000a900473ffffffffffffffffffffffffffffffffffffffff1681565b60055481565b600360019054906101000a900460ff1681565b6000600160009054906101000a900473ffffffffffffffffffffffffffffffffffffffff1673ffffffffffffffffffffffffffffffffffffffff1663b610e77460326040518263ffffffff1660e01b815260040180828152602001806020018281038252600a8152602001807f6e6577466c61744665650000000000000000000000000000000000000000000081525060200192505050602060405180830381600087803b158015610a6157600080fd5b505af1158015610a75573d6000803e3d6000fd5b505050506040513d6020811015610a8b57600080fd5b81019080805190602001909291905050509050600b54811115610af9576040517f08c379a000000000000000000000000000000000000000000000000000000000815260040180806020018281038252602781526020018061278e6027913960400191505060405180910390fd5b610b05600b5482611faa565b600b81905550600760009054906101000a900473ffffffffffffffffffffffffffffffffffffffff1673ffffffffffffffffffffffffffffffffffffffff166108fc829081150290604051600060405180830381858888f19350505050158015610b73573d6000803e3d6000fd5b5050565b6000600160009054906101000a900473ffffffffffffffffffffffffffffffffffffffff1673ffffffffffffffffffffffffffffffffffffffff1663b610e77460326040518263ffffffff1660e01b815260040180828152602001806020018281038252600c8152602001807f7365745468726573686f6c64000000000000000000000000000000000000000081525060200192505050602060405180830381600087803b158015610c2857600080fd5b505af1158015610c3c573d6000803e3d6000fd5b505050506040513d6020811015610c5257600080fd5b810190808051906020019092919050505090508060048190555050565b600a5481565b6000600160009054906101000a900473ffffffffffffffffffffffffffffffffffffffff1673ffffffffffffffffffffffffffffffffffffffff166345d4671f60326040518263ffffffff1660e01b81526004018082815260200180602001828103825260098152602001807f7365744f7261636c65000000000000000000000000000000000000000000000081525060200192505050602060405180830381600087803b158015610d2657600080fd5b505af1158015610d3a573d6000803e3d6000fd5b505050506040513d6020811015610d5057600080fd5b8101908080519060200190929190505050905080600160006101000a81548173ffffffffffffffffffffffffffffffffffffffff021916908373ffffffffffffffffffffffffffffffffffffffff16021790555050565b600080600080600160009054906101000a900473ffffffffffffffffffffffffffffffffffffffff1673ffffffffffffffffffffffffffffffffffffffff1663f3167c0560008054906101000a900473ffffffffffffffffffffffffffffffffffffffff166040518263ffffffff1660e01b8152600401808273ffffffffffffffffffffffffffffffffffffffff16815260200191505060206040518083038186803b158015610e5657600080fd5b505afa158015610e6a573d6000803e3d6000fd5b505050506040513d6020811015610e8057600080fd5b810190808051906020019092919050505090506000806000610ea188611338565b8092508194505050610ec4670de0b6b3a7640000610ebf8587611fc1565b611fda565b9150818382965096509650505050509193909250565b6000600254905090565b6001821415610f4d57610f368160008054906101000a900473ffffffffffffffffffffffffffffffffffffffff1673ffffffffffffffffffffffffffffffffffffffff1661201190919063ffffffff16565b610f4260055482610834565b600581905550610fb3565b6002821415610fb257610f9f8160008054906101000a900473ffffffffffffffffffffffffffffffffffffffff1673ffffffffffffffffffffffffffffffffffffffff1661201190919063ffffffff16565b610fab60065482610834565b6006819055505b5b5050565b6000600160009054906101000a900473ffffffffffffffffffffffffffffffffffffffff1673ffffffffffffffffffffffffffffffffffffffff16637a62f51e60326040518263ffffffff1660e01b81526004018082815260200180602001828103825260118152602001807f7365744368726f6d69756d53746174757300000000000000000000000000000081525060200192505050602060405180830381600087803b15801561106857600080fd5b505af115801561107c573d6000803e3d6000fd5b505050506040513d602081101561109257600080fd5b8101908080519060200190929190505050905080600360006101000a81548160ff02191690831515021790555050565b600160009054906101000a900473ffffffffffffffffffffffffffffffffffffffff1681565b60025481565b60045481565b6000600160009054906101000a900473ffffffffffffffffffffffffffffffffffffffff1673ffffffffffffffffffffffffffffffffffffffff1663b610e77460326040518263ffffffff1660e01b815260040180828152602001806020018281038252600a8152602001807f6e6577466c61744665650000000000000000000000000000000000000000000081525060200192505050602060405180830381600087803b1580156111a557600080fd5b505af11580156111b9573d6000803e3d6000fd5b505050506040513d60208110156111cf57600080fd5b810190808051906020019092919050505090508060098190555050565b600c60009054906101000a900473ffffffffffffffffffffffffffffffffffffffff1681565b60008061121e836118dd565b80925081935050506002548210611280576040517f08c379a00000000000000000000000000000000000000000000000000000000081526004018080602001828103825260368152602001806127586036913960400191505060405180910390fd5b61128c600b5482610834565b600b819055506112ec6112a784670de0b6b3a7640000611fda565b60008054906101000a900473ffffffffffffffffffffffffffffffffffffffff1673ffffffffffffffffffffffffffffffffffffffff1661201190919063ffffffff16565b3373ffffffffffffffffffffffffffffffffffffffff166108fc839081150290604051600060405180830381858888f19350505050158015611332573d6000803e3d6000fd5b50505050565b60008060008060085485111561136a5761135785600a546103e86120c7565b90506113638582611faa565b9150611445565b6000600160009054906101000a900473ffffffffffffffffffffffffffffffffffffffff1673ffffffffffffffffffffffffffffffffffffffff1663858b033d6040518163ffffffff1660e01b815260040160206040518083038186803b1580156113d457600080fd5b505afa1580156113e8573d6000803e3d6000fd5b505050506040513d60208110156113fe57600080fd5b81019080805190602001909291905050509050600061142668056bc75e2d6310000083611fc1565b905061143481600954611fda565b92506114408784611faa565b935050505b8181935093505050915091565b66354a6ba7a180003410156114b2576040517f08c379a000000000000000000000000000000000000000000000000000000000815260040180806020018281038252602c81526020018061280f602c913960400191505060405180910390fd5b60011515600360009054906101000a900460ff1615151461151e576040517f08c379a00000000000000000000000000000000000000000000000000000000081526004018080602001828103825260368152602001806128656036913960400191505060405180910390fd5b600080600061152c34610da7565b80935081945082955050505060045483106115b257600554831061159b576040517f08c379a00000000000000000000000000000000000000000000000000000000081526004018080602001828103825260348152602001806127db6034913960400191505060405180910390fd5b6115a760055484611faa565b60058190555061161f565b600654831061160c576040517f08c379a00000000000000000000000000000000000000000000000000000000081526004018080602001828103825260348152602001806127db6034913960400191505060405180910390fd5b61161860065484611faa565b6006819055505b61162b600b5482610834565b600b8190555061163d60025483610834565b60028190555061168e338460008054906101000a900473ffffffffffffffffffffffffffffffffffffffff1673ffffffffffffffffffffffffffffffffffffffff166120de9092919063ffffffff16565b50505050565b60085481565b6000600160009054906101000a900473ffffffffffffffffffffffffffffffffffffffff1673ffffffffffffffffffffffffffffffffffffffff166345d4671f60326040518263ffffffff1660e01b81526004018082815260200180602001828103825260138152602001807f7365745769746864726177436f6e74726163740000000000000000000000000081525060200192505050602060405180830381600087803b15801561174b57600080fd5b505af115801561175f573d6000803e3d6000fd5b505050506040513d602081101561177557600080fd5b8101908080519060200190929190505050905080600760006101000a81548173ffffffffffffffffffffffffffffffffffffffff021916908373ffffffffffffffffffffffffffffffffffffffff16021790555050565b60095481565b600360009054906101000a900460ff1681565b6000600160009054906101000a900473ffffffffffffffffffffffffffffffffffffffff1673ffffffffffffffffffffffffffffffffffffffff1663b610e77460326040518263ffffffff1660e01b815260040180828152602001806020018281038252600d8152602001807f6e657750657263656e744665650000000000000000000000000000000000000081525060200192505050602060405180830381600087803b15801561189657600080fd5b505af11580156118aa573d6000803e3d6000fd5b505050506040513d60208110156118c057600080fd5b8101908080519060200190929190505050905080600a8190555050565b6000806000806000600160009054906101000a900473ffffffffffffffffffffffffffffffffffffffff1673ffffffffffffffffffffffffffffffffffffffff1663f3167c0560008054906101000a900473ffffffffffffffffffffffffffffffffffffffff166040518263ffffffff1660e01b8152600401808273ffffffffffffffffffffffffffffffffffffffff16815260200191505060206040518083038186803b15801561198e57600080fd5b505afa1580156119a2573d6000803e3d6000fd5b505050506040513d60208110156119b857600080fd5b810190808051906020019092919050505092506119dd6119d88785611fda565b611338565b8092508193505050818194509450505050915091565b60006001821415611a08576005549050611a0e565b60065490505b919050565b6000600160009054906101000a900473ffffffffffffffffffffffffffffffffffffffff1673ffffffffffffffffffffffffffffffffffffffff166345d4671f60326040518263ffffffff1660e01b81526004018082815260200180602001828103825260088152602001807f736574546f6b656e00000000000000000000000000000000000000000000000081525060200192505050602060405180830381600087803b158015611ac457600080fd5b505af1158015611ad8573d6000803e3d6000fd5b505050506040513d6020811015611aee57600080fd5b81019080805190602001909291905050509050806000806101000a81548173ffffffffffffffffffffffffffffffffffffffff021916908373ffffffffffffffffffffffffffffffffffffffff16021790555050565b6000600160009054906101000a900473ffffffffffffffffffffffffffffffffffffffff1673ffffffffffffffffffffffffffffffffffffffff166345d4671f60326040518263ffffffff1660e01b81526004018082815260200180602001828103825260128152602001807f73657445786368616e676541646472657373000000000000000000000000000081525060200192505050602060405180830381600087803b158015611bf557600080fd5b505af1158015611c09573d6000803e3d6000fd5b505050506040513d6020811015611c1f57600080fd5b8101908080519060200190929190505050905080600c60006101000a81548173ffffffffffffffffffffffffffffffffffffffff021916908373ffffffffffffffffffffffffffffffffffffffff16021790555050565b6000600160009054906101000a900473ffffffffffffffffffffffffffffffffffffffff1673ffffffffffffffffffffffffffffffffffffffff16637a62f51e60326040518263ffffffff1660e01b815260040180828152602001806020018281038252600f8152602001807f6173736574734d6967726174696f6e000000000000000000000000000000000081525060200192505050602060405180830381600087803b158015611d2757600080fd5b505af1158015611d3b573d6000803e3d6000fd5b505050506040513d6020811015611d5157600080fd5b810190808051906020019092919050505090506001151581151514611dde576040517f08c379a000000000000000000000000000000000000000000000000000000000815260040180806020018281038252601b8152602001807f5468697320616374696f6e206973206e6f7420617070726f766564000000000081525060200191505060405180910390fd5b60008060009054906101000a900473ffffffffffffffffffffffffffffffffffffffff1673ffffffffffffffffffffffffffffffffffffffff166370a08231306040518263ffffffff1660e01b8152600401808273ffffffffffffffffffffffffffffffffffffffff16815260200191505060206040518083038186803b158015611e6857600080fd5b505afa158015611e7c573d6000803e3d6000fd5b505050506040513d6020811015611e9257600080fd5b810190808051906020019092919050505090506000479050611f17600c60009054906101000a900473ffffffffffffffffffffffffffffffffffffffff168360008054906101000a900473ffffffffffffffffffffffffffffffffffffffff1673ffffffffffffffffffffffffffffffffffffffff166120de9092919063ffffffff16565b50600c60009054906101000a900473ffffffffffffffffffffffffffffffffffffffff1673ffffffffffffffffffffffffffffffffffffffff166108fc829081150290604051600060405180830381858888f19350505050158015611f80573d6000803e3d6000fd5b50505050565b60008054906101000a900473ffffffffffffffffffffffffffffffffffffffff1681565b600082821115611fb657fe5b818303905092915050565b600080828481611fcd57fe5b0490508091505092915050565b600080831415611fed576000905061200b565b6000828402905082848281611ffe57fe5b041461200657fe5b809150505b92915050565b600081141561201f576120c3565b61202882612186565b15612094578034111561208f573373ffffffffffffffffffffffffffffffffffffffff166108fc6120628334611faa90919063ffffffff16565b9081150290604051600060405180830381858888f1935050505015801561208d573d6000803e3d6000fd5b505b6120c2565b6120c13330838573ffffffffffffffffffffffffffffffffffffffff16612266909392919063ffffffff16565b5b5b5050565b600081838502816120d457fe5b0490509392505050565b6000808214156120f1576001905061217f565b6120fa84612186565b1561214f578273ffffffffffffffffffffffffffffffffffffffff166108fc839081150290604051600060405180830381858888f19350505050158015612145573d6000803e3d6000fd5b506001905061217f565b61217a83838673ffffffffffffffffffffffffffffffffffffffff166123279092919063ffffffff16565b600190505b9392505050565b600073c02aaa39b223fe8d0a0e5c4f27ead9083c756cc273ffffffffffffffffffffffffffffffffffffffff168273ffffffffffffffffffffffffffffffffffffffff161480612215575073eeeeeeeeeeeeeeeeeeeeeeeeeeeeeeeeeeeeeeee73ffffffffffffffffffffffffffffffffffffffff168273ffffffffffffffffffffffffffffffffffffffff16145b8061225f575073c778417e063141139fce010982780140aa0cd5ab73ffffffffffffffffffffffffffffffffffffffff168273ffffffffffffffffffffffffffffffffffffffff16145b9050919050565b612321846323b872dd60e01b858585604051602401808473ffffffffffffffffffffffffffffffffffffffff1681526020018373ffffffffffffffffffffffffffffffffffffffff1681526020018281526020019350505050604051602081830303815290604052907bffffffffffffffffffffffffffffffffffffffffffffffffffffffff19166020820180517bffffffffffffffffffffffffffffffffffffffffffffffffffffffff83818316178352505050506123c9565b50505050565b6123c48363a9059cbb60e01b8484604051602401808373ffffffffffffffffffffffffffffffffffffffff16815260200182815260200192505050604051602081830303815290604052907bffffffffffffffffffffffffffffffffffffffffffffffffffffffff19166020820180517bffffffffffffffffffffffffffffffffffffffffffffffffffffffff83818316178352505050506123c9565b505050565b600061242b826040518060400160405280602081526020017f5361666545524332303a206c6f772d6c6576656c2063616c6c206661696c65648152508573ffffffffffffffffffffffffffffffffffffffff166124b89092919063ffffffff16565b90506000815111156124b35780806020019051602081101561244c57600080fd5b81019080805190602001909291905050506124b2576040517f08c379a000000000000000000000000000000000000000000000000000000000815260040180806020018281038252602a81526020018061283b602a913960400191505060405180910390fd5b5b505050565b60606124c784846000856124d0565b90509392505050565b60608247101561252b576040517f08c379a00000000000000000000000000000000000000000000000000000000081526004018080602001828103825260268152602001806127b56026913960400191505060405180910390fd5b61253485612678565b6125a6576040517f08c379a000000000000000000000000000000000000000000000000000000000815260040180806020018281038252601d8152602001807f416464726573733a2063616c6c20746f206e6f6e2d636f6e747261637400000081525060200191505060405180910390fd5b6000808673ffffffffffffffffffffffffffffffffffffffff1685876040518082805190602001908083835b602083106125f557805182526020820191506020810190506020830392506125d2565b6001836020036101000a03801982511681845116808217855250505050505090500191505060006040518083038185875af1925050503d8060008114612657576040519150601f19603f3d011682016040523d82523d6000602084013e61265c565b606091505b509150915061266c82828661268b565b92505050949350505050565b600080823b905060008111915050919050565b6060831561269b57829050612750565b6000835111156126ae5782518084602001fd5b816040517f08c379a00000000000000000000000000000000000000000000000000000000081526004018080602001828103825283818151815260200191508051906020019080838360005b838110156127155780820151818401526020810190506126fa565b50505050905090810190601f1680156127425780820380516001836020036101000a031916815260200191505b509250505060405180910390fd5b939250505056fe4578706563746564204554482072657475726e20697320686967686572207468616e20636f6e747261637427732062616c616e63652e547265617375727920646f65736e277420686176652073756666696369656e742066756e64732e416464726573733a20696e73756666696369656e742062616c616e636520666f722063616c6c506f6f6c2069732063757272656e746c79206465706c6574656420666f72207468697320616d6f756e742070726f6d697365642e4572726f722c206465706f736974206d75737420626520686967686572207468616e20302e303135204554485361666545524332303a204552433230206f7065726174696f6e20646964206e6f74207375636365656445786368616e67652069732063757272656e746c79206f66666c696e652c20706c656173652074727920616761696e206c617465722ea2646970667358221220a8a2ccf6ffd03e07e48bdf06cc5d0ee26ef309f116f70be5920791b205f15d6e64736f6c63430007060033",
  "immutableReferences": {},
  "source": "// SPDX-License-Identifier: MIT\npragma solidity >=0.4.22 <0.9.0;\n\nimport \"./interfaces/UniversalERC20.sol\";\nimport \"./interfaces/Ownable.sol\";\nimport \"./interfaces/IUniswap.sol\";\nimport \"./ExchangeOracle.sol\";\n\ncontract ChromiumV2 {\n    using UniversalERC20 for IERC20;\n\n    event Received(address, uint256);\n    event Transfer(address indexed from, address indexed to, uint256 value);\n\n    // ********************************** CONTRACT CONTROL *********************************\n\n    /**\n     * @dev ERC20 storing instance of main token (CBLT).\n     */\n    IERC20 public token;\n\n    /**\n     * @dev Cobalt oracle contract.\n     */\n    ExchangeOracle public oracle;\n\n    /**\n     * @dev Total contract balance of available ETH for swapping.\n     */\n    uint256 public contractBalance;\n\n    /**\n     * @dev Exchange status. True - On / False - Off\n     */\n    bool public chromiumStatus;\n\n    /**\n     * @dev Bool enables the sellCBLT function. True - On / False - Off\n     */\n    bool public buyStatus;\n\n    /**\n     * @dev Setter function changes the address of the default token\n     * exchange uses to swap.\n     */\n    function setToken() public {\n        // only devs\n        address newToken = oracle.addressChange(50, \"setToken\");\n        token = IERC20(newToken);\n    }\n\n    /**\n     * @dev Getter function used to pull total available ETH for swapping.\n     */\n    function getContractBalance() public view returns (uint256) {\n        return contractBalance;\n    }\n\n    /**\n     * @dev Setter function changes the address of the default oracle\n     * from which contract pulls prices.\n     */\n    function setOracle() public {\n        // only devs\n        address newOracle = oracle.addressChange(50, \"setOracle\");\n        oracle = ExchangeOracle(newOracle);\n    }\n\n    /**\n     * @dev Function returns the current status for chromium status. True - on,\n     * False - off.\n     */\n    function setChromiumStatus() public {\n        // only devs\n        bool status = oracle.boolChange(50, \"setChromiumStatus\");\n        chromiumStatus = status;\n    }\n\n    /**\n     * @dev Function changes chromium status.\n     */\n    function setBuyStatus() public {\n        // only devs\n        bool status = oracle.boolChange(50, \"setBuyStatus\");\n        buyStatus = status;\n    }\n\n    constructor(address _oracleAddress) {\n        token = IERC20(address(0x433C6E3D2def6E1fb414cf9448724EFB0399b698));\n        oracle = ExchangeOracle(_oracleAddress);\n        chromiumStatus = true;\n        buyStatus = true;\n        feeThreshold = 5e18;\n        poolThreshold = 10000;\n        flatFee = 3;\n        percentFee = 3;\n    }\n\n    /**\n     * @dev Receiver keeps track of all funds directly sent to contract\n     * and adds it to total ETH pool available for swapping.\n     */\n    receive() external payable {\n        contractBalance = SafeMath.add(contractBalance, msg.value);\n        emit Received(msg.sender, msg.value);\n    }\n\n    // ************************************ EXCHANGE ******************************************\n\n    /**\n     * @dev uint used to determine to determine fee and pool from which the\n     * users request to swap will be funded.\n     */\n    uint256 public poolThreshold;\n\n    /**\n     * @dev uint keeps track of current balance available for high value\n     * transactions.\n     */\n    uint256 public highTokenPool;\n\n    /**\n     * @dev uint keeps track of current balance available for low value\n     * transactions.\n     */\n    uint256 public lowTokenPool;\n\n    /**\n     * @dev Function returns the balance of each pool.\n     */\n    function getPoolBalance(uint256 _poolNum) public view returns (uint256) {\n        if (_poolNum == 1) {\n            return highTokenPool;\n        } else {\n            return lowTokenPool;\n        }\n    }\n\n    /**\n     * @dev Function sets the threshold to determine fee and pool access.\n     */\n    function setThreshold() public {\n        // only devs\n        uint256 newLimit = oracle.numberChange(50, \"setThreshold\");\n        poolThreshold = newLimit;\n    }\n\n    /**\n     * @dev Function used to send CBLT to contract. Function takes a param of\n     * uint to determine to which pool balance will be added as well as\n     * the amount sent.\n     * @param _poolType Type 1 funds high pool, type 2 funds low pool.\n     * @param _amount Amount being sent to the contract.\n     * @notice Permission for contract to withdraw from funder's wallet\n     * should be granted beforehand.\n     */\n    function fundTokenPool(uint256 _poolType, uint256 _amount) public {\n        // only devs\n        if (_poolType == 1) {\n            IERC20(token).universalTransferFromSenderToThis(_amount);\n            highTokenPool = SafeMath.add(highTokenPool, _amount);\n        } else if (_poolType == 2) {\n            IERC20(token).universalTransferFromSenderToThis(_amount);\n            lowTokenPool = SafeMath.add(lowTokenPool, _amount);\n        }\n    }\n\n    /**\n     * @dev Modifier determines if swapping is valid. Value must be higher than\n     * 0.015 ETH and chromium status should be turned on.\n     */\n    modifier validBuy() {\n        require(\n            msg.value >= 15e15,\n            \"Error, deposit must be higher than 0.015 ETH\"\n        );\n        require(\n            chromiumStatus == true,\n            \"Exchange is currently offline, please try again later.\"\n        );\n        _;\n    }\n\n    /**\n     * @dev Modifier checks if chromium is currently supporting swapping in both\n     * directions (buy and sell).\n     */\n    modifier validSell() {\n        require(\n            chromiumStatus == true,\n            \"Exchange is currently offline, please try again later.\"\n        );\n        require(buyStatus == true, \"Buying feature is currently offline\");\n\n        _;\n    }\n\n    /**\n     * @dev Function outputs information on a simulated transaction based on\n     * an amount of ETH sent.\n     * @param _amount of ethereum sent to buy CBLT tokens\n     * @return amount of expected tokens user should receive on ETH sent,\n     * new balance after fee has been subtracted, and the substracted fee.\n     */\n    function expectedBuyReturn(uint256 _amount)\n        public\n        view\n        returns (\n            uint256,\n            uint256,\n            uint256\n        )\n    {\n        uint256 priceOfToken = oracle.priceOfToken(address(token));\n        uint256 balance;\n        uint256 tokenExpectedReturn;\n        uint256 fee;\n\n        (balance, fee) = calculateFee(_amount);\n        tokenExpectedReturn = SafeMath.mul(\n            1e18,\n            SafeMath.div(balance, priceOfToken)\n        );\n        return (tokenExpectedReturn, balance, fee);\n    }\n\n    /**\n     * @dev Function outputs information on a simulated transaction based on\n     * an amount of CBLT sent.\n     * @param _amount of CBLT tokens sent to swap for ETH\n     * @return new balance after fee has been subtracted, and the substracted\n     * fee.\n     */\n    function expectedSellReturn(uint256 _amount)\n        public\n        view\n        returns (uint256, uint256)\n    {\n        uint256 priceOfToken;\n        uint256 balance;\n        uint256 fee;\n\n        priceOfToken = oracle.priceOfToken(address(token));\n        (balance, fee) = calculateFee(SafeMath.mul(_amount, priceOfToken));\n        return (balance, fee);\n    }\n\n    /**\n     * @dev Helper function calculates a fee based on the amount of ETH\n     * user sent or should be sent.\n     * @param _amount of ETH sent or received\n     * @return new balance after fee is subtracted, fee subtracted\n     */\n    function calculateFee(uint256 _amount)\n        public\n        view\n        returns (uint256, uint256)\n    {\n        uint256 newBalance;\n        uint256 fee;\n\n        if (_amount > feeThreshold) {\n            fee = SafeMath.multiply(_amount, percentFee, 1000);\n            newBalance = SafeMath.sub(_amount, fee);\n        } else {\n            uint256 ETHprice = oracle.priceOfETH();\n            uint256 ETHinUSD = SafeMath.div(100000000000000000000, ETHprice);\n            fee = SafeMath.mul(ETHinUSD, flatFee);\n            newBalance = SafeMath.sub(_amount, fee);\n        }\n\n        return (newBalance, fee);\n    }\n\n    /**\n     * @dev Function sends an amount of CBLT tokens to user based\n     * on amount sent by user.\n     */\n    function buyCBLT() public payable validBuy {\n        uint256 tokensOwed;\n        uint256 newBalance;\n        uint256 fee;\n\n        (tokensOwed, newBalance, fee) = expectedBuyReturn(msg.value);\n\n        if (tokensOwed >= poolThreshold) {\n            require(\n                tokensOwed < highTokenPool,\n                \"Pool is currently depleted for this amount promised.\"\n            );\n            highTokenPool = SafeMath.sub(highTokenPool, tokensOwed);\n        } else {\n            require(\n                tokensOwed < lowTokenPool,\n                \"Pool is currently depleted for this amount promised.\"\n            );\n            lowTokenPool = SafeMath.sub(lowTokenPool, tokensOwed);\n        }\n\n        totalFeeBalance = SafeMath.add(totalFeeBalance, fee);\n        contractBalance = SafeMath.add(contractBalance, newBalance);\n        IERC20(token).universalTransfer(msg.sender, tokensOwed);\n    }\n\n    /**\n     * @dev Function accepts a receiving amount of CBLT from user and\n     * sends the amount of ETH equivalent in value back.\n     * @notice Amount of ETH sent is first subtracted a fee.\n     */\n    function sellCBLT(uint256 _amount) public payable {\n        uint256 newBalance;\n        uint256 fee;\n\n        (newBalance, fee) = expectedSellReturn(_amount);\n        require(\n            newBalance < contractBalance,\n            \"Expected ETH return is higher than contract's balance.\"\n        );\n        totalFeeBalance = SafeMath.add(totalFeeBalance, fee);\n\n        IERC20(token).universalTransferFromSenderToThis(\n            SafeMath.mul(_amount, 1e18)\n        );\n        payable(msg.sender).transfer(newBalance);\n    }\n\n    //**************************************** FEE *****************************************\n\n    /**\n     * @dev Address of the contract used to withdraw fee funds from exchange\n     */\n    address public WithdrawContract;\n\n    /**\n     * @dev uint threshold used to determine if user will be charged a flat or % fee\n     */\n    uint256 public feeThreshold;\n\n    /**\n     * @dev uint saves information on flatfee amount.\n     */\n    uint256 public flatFee;\n\n    /**\n     * @dev uint saves information on percentFee amount.\n     */\n    uint256 public percentFee;\n\n    /**\n     * @dev uint saves the running total balance collected in ETH\n     * from fees.\n     */\n    uint256 public totalFeeBalance;\n\n    /**\n     * @dev Function sets the a new address to which amount withdrawn\n     * will be sent to.\n     */\n    function setWithdrawContract() public {\n        address treasuryAddress = oracle.addressChange(\n            50,\n            \"setWithdrawContract\"\n        );\n        WithdrawContract = treasuryAddress;\n    }\n\n    /**\n     * @dev Getter function used to pull the total running balance of\n     * fees collected in ETH.\n     */\n    function getTotalBalance() public view returns (uint256) {\n        return totalFeeBalance;\n    }\n\n    /**\n     * @dev transfers funds to the approved address for withdrawal.\n     */\n    function withdrawFees() public payable {\n        uint256 amount = oracle.numberChange(50, \"newFlatFee\");\n\n        require(\n            amount <= totalFeeBalance,\n            \"Treasury doesn't have sufficient funds.\"\n        );\n\n        totalFeeBalance = SafeMath.sub(totalFeeBalance, amount);\n        payable(WithdrawContract).transfer(amount);\n    }\n\n    /**\n     * @dev Setter for staking flat fee.\n     */\n    function newFlatFee() public {\n        uint256 newFee = oracle.numberChange(50, \"newFlatFee\");\n        flatFee = newFee;\n    }\n\n    /**\n     * @dev Setter for staking percentage fee.\n     */\n    function newPercentFee() public {\n        uint256 newFee = oracle.numberChange(50, \"newPercentFee\");\n        percentFee = newFee;\n    }\n\n    //*********************************** Exchange Migration *************************************\n\n    /**\n     * @dev Contract to which all assets will be transfered to.\n     */\n    address public migrationExchange;\n\n    /**\n     * @dev Function sets a new address to which all assets will migrate.\n     */\n    function setExchangeAddress() public {\n        // Only devs\n        address newExchange = oracle.addressChange(50, \"setExchangeAddress\");\n        migrationExchange = newExchange;\n    }\n\n    /**\n     * @dev\n     */\n    function assetsMigration() public payable {\n        bool confirmation = oracle.boolChange(50, \"assetsMigration\");\n\n        require(confirmation == true, \"This action is not approved\");\n\n        uint256 totalTokenBalance = token.balanceOf(address(this));\n        uint256 totalETHBalance = address(this).balance;\n\n        IERC20(token).universalTransfer(migrationExchange, totalTokenBalance);\n        payable(migrationExchange).transfer(totalETHBalance);\n    }\n}\n",
  "sourcePath": "/Users/christianroque/Desktop/TungstenGroupProject/contracts/ChromiumV2.sol",
  "compiler": {
    "name": "solc",
    "version": "0.7.6+commit.7338295f.Emscripten.clang"
  },
  "schemaVersion": "3.3.4",
  "updatedAt": "2021-07-02T05:39:32.210Z",
  "devdoc": {
    "kind": "dev",
    "methods": {
      "buyCBLT()": {
        "details": "Function sends an amount of CBLT tokens to user based on amount sent by user."
      },
      "calculateFee(uint256)": {
        "details": "Helper function calculates a fee based on the amount of ETH user sent or should be sent.",
        "params": {
          "_amount": "of ETH sent or received"
        },
        "returns": {
          "_0": "new balance after fee is subtracted, fee subtracted"
        }
      },
      "expectedBuyReturn(uint256)": {
        "details": "Function outputs information on a simulated transaction based on an amount of ETH sent.",
        "params": {
          "_amount": "of ethereum sent to buy CBLT tokens"
        },
        "returns": {
          "_0": "amount of expected tokens user should receive on ETH sent, new balance after fee has been subtracted, and the substracted fee."
        }
      },
      "expectedSellReturn(uint256)": {
        "details": "Function outputs information on a simulated transaction based on an amount of CBLT sent.",
        "params": {
          "_amount": "of CBLT tokens sent to swap for ETH"
        },
        "returns": {
          "_0": "new balance after fee has been subtracted, and the substracted fee."
        }
      },
      "fundTokenPool(uint256,uint256)": {
        "details": "Function used to send CBLT to contract. Function takes a param of uint to determine to which pool balance will be added as well as the amount sent.",
        "params": {
          "_amount": "Amount being sent to the contract.",
          "_poolType": "Type 1 funds high pool, type 2 funds low pool."
        }
      },
      "getContractBalance()": {
        "details": "Getter function used to pull total available ETH for swapping."
      },
      "getPoolBalance(uint256)": {
        "details": "Function returns the balance of each pool."
      },
      "getTotalBalance()": {
        "details": "Getter function used to pull the total running balance of fees collected in ETH."
      },
      "newFlatFee()": {
        "details": "Setter for staking flat fee."
      },
      "newPercentFee()": {
        "details": "Setter for staking percentage fee."
      },
      "sellCBLT(uint256)": {
        "details": "Function accepts a receiving amount of CBLT from user and sends the amount of ETH equivalent in value back."
      },
      "setBuyStatus()": {
        "details": "Function changes chromium status."
      },
      "setChromiumStatus()": {
        "details": "Function returns the current status for chromium status. True - on, False - off."
      },
      "setExchangeAddress()": {
        "details": "Function sets a new address to which all assets will migrate."
      },
      "setOracle()": {
        "details": "Setter function changes the address of the default oracle from which contract pulls prices."
      },
      "setThreshold()": {
        "details": "Function sets the threshold to determine fee and pool access."
      },
      "setToken()": {
        "details": "Setter function changes the address of the default token exchange uses to swap."
      },
      "setWithdrawContract()": {
        "details": "Function sets the a new address to which amount withdrawn will be sent to."
      },
      "withdrawFees()": {
        "details": "transfers funds to the approved address for withdrawal."
      }
    },
    "stateVariables": {
      "WithdrawContract": {
        "details": "Address of the contract used to withdraw fee funds from exchange"
      },
      "buyStatus": {
        "details": "Bool enables the sellCBLT function. True - On / False - Off"
      },
      "chromiumStatus": {
        "details": "Exchange status. True - On / False - Off"
      },
      "contractBalance": {
        "details": "Total contract balance of available ETH for swapping."
      },
      "feeThreshold": {
        "details": "uint threshold used to determine if user will be charged a flat or % fee"
      },
      "flatFee": {
        "details": "uint saves information on flatfee amount."
      },
      "highTokenPool": {
        "details": "uint keeps track of current balance available for high value transactions."
      },
      "lowTokenPool": {
        "details": "uint keeps track of current balance available for low value transactions."
      },
      "migrationExchange": {
        "details": "Contract to which all assets will be transfered to."
      },
      "oracle": {
        "details": "Cobalt oracle contract."
      },
      "percentFee": {
        "details": "uint saves information on percentFee amount."
      },
      "poolThreshold": {
        "details": "uint used to determine to determine fee and pool from which the users request to swap will be funded."
      },
      "token": {
        "details": "ERC20 storing instance of main token (CBLT)."
      },
      "totalFeeBalance": {
        "details": "uint saves the running total balance collected in ETH from fees."
      }
    },
    "version": 1
  },
  "userdoc": {
    "kind": "user",
    "methods": {
      "fundTokenPool(uint256,uint256)": {
        "notice": "Permission for contract to withdraw from funder's wallet should be granted beforehand."
      },
      "sellCBLT(uint256)": {
        "notice": "Amount of ETH sent is first subtracted a fee."
      }
    },
    "version": 1
  }
}