{
  "contractName": "ExchangeOracle",
  "abi": [
    {
      "inputs": [],
      "stateMutability": "nonpayable",
      "type": "constructor"
    },
    {
      "anonymous": false,
      "inputs": [
        {
          "indexed": false,
          "internalType": "address",
          "name": "_previousOwner",
          "type": "address"
        },
        {
          "indexed": true,
          "internalType": "address",
          "name": "_newOwner",
          "type": "address"
        }
      ],
      "name": "OwnershipTransferred",
      "type": "event"
    },
    {
      "inputs": [],
      "name": "USDpriceETH",
      "outputs": [
        {
          "internalType": "uint256",
          "name": "",
          "type": "uint256"
        }
      ],
      "stateMutability": "view",
      "type": "function"
    },
    {
      "inputs": [],
      "name": "_owner",
      "outputs": [
        {
          "internalType": "address",
          "name": "",
          "type": "address"
        }
      ],
      "stateMutability": "view",
      "type": "function"
    },
    {
      "inputs": [
        {
          "internalType": "address",
          "name": "",
          "type": "address"
        }
      ],
      "name": "contractSupported",
      "outputs": [
        {
          "internalType": "bool",
          "name": "",
          "type": "bool"
        }
      ],
      "stateMutability": "view",
      "type": "function"
    },
    {
      "inputs": [
        {
          "internalType": "uint256",
          "name": "",
          "type": "uint256"
        }
      ],
      "name": "devArray",
      "outputs": [
        {
          "internalType": "address",
          "name": "",
          "type": "address"
        }
      ],
      "stateMutability": "view",
      "type": "function"
    },
    {
      "inputs": [
        {
          "internalType": "address",
          "name": "",
          "type": "address"
        }
      ],
      "name": "devBook",
      "outputs": [
        {
          "internalType": "bool",
          "name": "active",
          "type": "bool"
        },
        {
          "internalType": "bool",
          "name": "vote",
          "type": "bool"
        }
      ],
      "stateMutability": "view",
      "type": "function"
    },
    {
      "inputs": [],
      "name": "isOwner",
      "outputs": [
        {
          "internalType": "bool",
          "name": "",
          "type": "bool"
        }
      ],
      "stateMutability": "view",
      "type": "function"
    },
    {
      "inputs": [],
      "name": "oracle",
      "outputs": [
        {
          "internalType": "contract ExternalOracle",
          "name": "",
          "type": "address"
        }
      ],
      "stateMutability": "view",
      "type": "function"
    },
    {
      "inputs": [
        {
          "internalType": "address",
          "name": "",
          "type": "address"
        }
      ],
      "name": "tokenData",
      "outputs": [
        {
          "internalType": "uint256",
          "name": "value",
          "type": "uint256"
        },
        {
          "internalType": "bool",
          "name": "active",
          "type": "bool"
        }
      ],
      "stateMutability": "view",
      "type": "function"
    },
    {
      "inputs": [
        {
          "internalType": "address",
          "name": "_newOwner",
          "type": "address"
        }
      ],
      "name": "transferOwnership",
      "outputs": [],
      "stateMutability": "nonpayable",
      "type": "function"
    },
    {
      "inputs": [],
      "name": "acceptDev",
      "outputs": [],
      "stateMutability": "nonpayable",
      "type": "function"
    },
    {
      "inputs": [],
      "name": "deleteDev",
      "outputs": [],
      "stateMutability": "nonpayable",
      "type": "function"
    },
    {
      "inputs": [],
      "name": "acceptContract",
      "outputs": [],
      "stateMutability": "nonpayable",
      "type": "function"
    },
    {
      "inputs": [],
      "name": "deleteContract",
      "outputs": [],
      "stateMutability": "nonpayable",
      "type": "function"
    },
    {
      "inputs": [],
      "name": "vote",
      "outputs": [],
      "stateMutability": "nonpayable",
      "type": "function"
    },
    {
      "inputs": [
        {
          "internalType": "bool",
          "name": "_bool",
          "type": "bool"
        },
        {
          "internalType": "string",
          "name": "_proposedChange",
          "type": "string"
        }
      ],
      "name": "proposeBoolChange",
      "outputs": [],
      "stateMutability": "nonpayable",
      "type": "function"
    },
    {
      "inputs": [
        {
          "internalType": "uint256",
          "name": "_percent",
          "type": "uint256"
        },
        {
          "internalType": "string",
          "name": "_proposedChange",
          "type": "string"
        }
      ],
      "name": "boolChange",
      "outputs": [
        {
          "internalType": "bool",
          "name": "",
          "type": "bool"
        }
      ],
      "stateMutability": "nonpayable",
      "type": "function"
    },
    {
      "inputs": [
        {
          "internalType": "uint256",
          "name": "_num",
          "type": "uint256"
        },
        {
          "internalType": "string",
          "name": "_proposedChange",
          "type": "string"
        }
      ],
      "name": "proposeNumberChange",
      "outputs": [],
      "stateMutability": "nonpayable",
      "type": "function"
    },
    {
      "inputs": [
        {
          "internalType": "uint256",
          "name": "_percent",
          "type": "uint256"
        },
        {
          "internalType": "string",
          "name": "_proposedChange",
          "type": "string"
        }
      ],
      "name": "numberChange",
      "outputs": [
        {
          "internalType": "uint256",
          "name": "",
          "type": "uint256"
        }
      ],
      "stateMutability": "nonpayable",
      "type": "function"
    },
    {
      "inputs": [
        {
          "internalType": "address",
          "name": "_address",
          "type": "address"
        },
        {
          "internalType": "string",
          "name": "_proposedChange",
          "type": "string"
        }
      ],
      "name": "proposeAddressChange",
      "outputs": [],
      "stateMutability": "nonpayable",
      "type": "function"
    },
    {
      "inputs": [
        {
          "internalType": "uint256",
          "name": "_percent",
          "type": "uint256"
        },
        {
          "internalType": "string",
          "name": "_proposedChange",
          "type": "string"
        }
      ],
      "name": "addressChange",
      "outputs": [
        {
          "internalType": "address",
          "name": "",
          "type": "address"
        }
      ],
      "stateMutability": "nonpayable",
      "type": "function"
    },
    {
      "inputs": [
        {
          "internalType": "uint256",
          "name": "_amountTier",
          "type": "uint256"
        },
        {
          "internalType": "uint256",
          "name": "_timeTier",
          "type": "uint256"
        },
        {
          "internalType": "uint256",
          "name": "_interest",
          "type": "uint256"
        },
        {
          "internalType": "uint256",
          "name": "_amountStakersLeft",
          "type": "uint256"
        },
        {
          "internalType": "uint256",
          "name": "_tierDuration",
          "type": "uint256"
        },
        {
          "internalType": "string",
          "name": "_proposedChange",
          "type": "string"
        }
      ],
      "name": "proposeTierChange",
      "outputs": [],
      "stateMutability": "nonpayable",
      "type": "function"
    },
    {
      "inputs": [
        {
          "internalType": "uint256",
          "name": "_percent",
          "type": "uint256"
        },
        {
          "internalType": "string",
          "name": "_proposedChange",
          "type": "string"
        }
      ],
      "name": "tierChange",
      "outputs": [
        {
          "internalType": "uint256",
          "name": "",
          "type": "uint256"
        },
        {
          "internalType": "uint256",
          "name": "",
          "type": "uint256"
        },
        {
          "internalType": "uint256",
          "name": "",
          "type": "uint256"
        },
        {
          "internalType": "uint256",
          "name": "",
          "type": "uint256"
        },
        {
          "internalType": "uint256",
          "name": "",
          "type": "uint256"
        }
      ],
      "stateMutability": "nonpayable",
      "type": "function"
    },
    {
      "inputs": [
        {
          "internalType": "address",
          "name": "_caller",
          "type": "address"
        }
      ],
      "name": "isDev",
      "outputs": [
        {
          "internalType": "bool",
          "name": "",
          "type": "bool"
        }
      ],
      "stateMutability": "view",
      "type": "function"
    },
    {
      "inputs": [
        {
          "internalType": "uint256",
          "name": "_value",
          "type": "uint256"
        },
        {
          "internalType": "bool",
          "name": "_status",
          "type": "bool"
        },
        {
          "internalType": "address",
          "name": "_tokenAddress",
          "type": "address"
        },
        {
          "internalType": "string",
          "name": "_proposedChange",
          "type": "string"
        }
      ],
      "name": "proposeTokenChange",
      "outputs": [],
      "stateMutability": "nonpayable",
      "type": "function"
    },
    {
      "inputs": [],
      "name": "tokenChange",
      "outputs": [],
      "stateMutability": "nonpayable",
      "type": "function"
    },
    {
      "inputs": [],
      "name": "priceChangeETH",
      "outputs": [],
      "stateMutability": "nonpayable",
      "type": "function"
    },
    {
      "inputs": [],
      "name": "externalOracleChange",
      "outputs": [],
      "stateMutability": "nonpayable",
      "type": "function"
    },
    {
      "inputs": [
        {
          "internalType": "address",
          "name": "_sellTokenAddress",
          "type": "address"
        },
        {
          "internalType": "address",
          "name": "_buyTokenAddress",
          "type": "address"
        }
      ],
      "name": "priceOfPair",
      "outputs": [
        {
          "internalType": "uint256",
          "name": "",
          "type": "uint256"
        },
        {
          "internalType": "uint256",
          "name": "",
          "type": "uint256"
        }
      ],
      "stateMutability": "view",
      "type": "function"
    },
    {
      "inputs": [],
      "name": "priceOfETH",
      "outputs": [
        {
          "internalType": "uint256",
          "name": "",
          "type": "uint256"
        }
      ],
      "stateMutability": "view",
      "type": "function"
    },
    {
      "inputs": [
        {
          "internalType": "address",
          "name": "_tokenAddress",
          "type": "address"
        }
      ],
      "name": "priceOfToken",
      "outputs": [
        {
          "internalType": "uint256",
          "name": "",
          "type": "uint256"
        }
      ],
      "stateMutability": "view",
      "type": "function"
    }
  ],
  "bytecode": "0x60806040523480156200001157600080fd5b50336000806101000a81548173ffffffffffffffffffffffffffffffffffffffff021916908373ffffffffffffffffffffffffffffffffffffffff1602179055506040518060400160405280670de0b6b3a7640000815260200160011515815250600e600073eeeeeeeeeeeeeeeeeeeeeeeeeeeeeeeeeeeeeeee73ffffffffffffffffffffffffffffffffffffffff1673ffffffffffffffffffffffffffffffffffffffff1681526020019081526020016000206000820151816000015560208201518160010160006101000a81548160ff0219169083151502179055509050506040518060400160405280653034062c5000815260200160011515815250600e600073c778417e063141139fce010982780140aa0cd5ab73ffffffffffffffffffffffffffffffffffffffff1673ffffffffffffffffffffffffffffffffffffffff1681526020019081526020016000206000820151816000015560208201518160010160006101000a81548160ff0219169083151502179055509050506040518060400160405280653034062c5000815260200160011515815250600e600073433c6e3d2def6e1fb414cf9448724efb0399b69873ffffffffffffffffffffffffffffffffffffffff1673ffffffffffffffffffffffffffffffffffffffff1681526020019081526020016000206000820151816000015560208201518160010160006101000a81548160ff0219169083151502179055509050506040518060400160405280735b38da6a701c568545dcfcb03fcb875f56beddc473ffffffffffffffffffffffffffffffffffffffff1673ffffffffffffffffffffffffffffffffffffffff16815260200173ab8483f64d9c6d1ecf9b849ae677dd3315835cb273ffffffffffffffffffffffffffffffffffffffff1673ffffffffffffffffffffffffffffffffffffffff168152506002906002620002d59291906200041a565b506001600360003073ffffffffffffffffffffffffffffffffffffffff1673ffffffffffffffffffffffffffffffffffffffff16815260200190815260200160002060006101000a81548160ff0219169083151502179055506001806000735b38da6a701c568545dcfcb03fcb875f56beddc473ffffffffffffffffffffffffffffffffffffffff1673ffffffffffffffffffffffffffffffffffffffff16815260200190815260200160002060000160006101000a81548160ff021916908315150217905550600180600073ab8483f64d9c6d1ecf9b849ae677dd3315835cb273ffffffffffffffffffffffffffffffffffffffff1673ffffffffffffffffffffffffffffffffffffffff16815260200190815260200160002060000160006101000a81548160ff02191690831515021790555062030d40600d81905550620004c8565b82805482825590600052602060002090810192821562000496579160200282015b82811115620004955782518260006101000a81548173ffffffffffffffffffffffffffffffffffffffff021916908373ffffffffffffffffffffffffffffffffffffffff160217905550916020019190600101906200043b565b5b509050620004a59190620004a9565b5090565b5b80821115620004c4576000816000905550600101620004aa565b5090565b6135b880620004d86000396000f3fe608060405234801561001057600080fd5b50600436106101da5760003560e01c80637a62f51e11610104578063b610e774116100a2578063dd118d6611610071578063dd118d6614610c6d578063e9b8b02c14610cc5578063f2fde38b14610d1f578063f3167c0514610d63576101da565b8063b610e77414610b1d578063b738f88314610bf6578063c997afc214610c00578063d26850e114610c63576101da565b8063858b033d116100de578063858b033d14610a8d5780638f32d59b14610aab5780639506c89614610acb578063b2bdfa7b14610ae9576101da565b80637a62f51e146109745780637dc0d1d014610a4f5780637e046fa814610a83576101da565b806335885ac81161017c5780635522d3c21161014b5780635522d3c21461094c5780635a58cd4c14610956578063619d267114610960578063632a9a521461096a576101da565b806335885ac814610612578063388df741146106ed5780633a7a2a06146107de57806345d4671f1461085d576101da565b8063151ee3af116101b8578063151ee3af146103ed5780631f61a3ef146104e2578063239df389146104ec57806327e45c2c146105b1576101da565b80630c3f64bf146101df5780630caa47c1146102395780630db349bc14610300575b600080fd5b610221600480360360208110156101f557600080fd5b81019080803573ffffffffffffffffffffffffffffffffffffffff169060200190929190505050610dbb565b60405180821515815260200191505060405180910390f35b6102fe6004803603604081101561024f57600080fd5b810190808035151590602001909291908035906020019064010000000081111561027857600080fd5b82018360208201111561028a57600080fd5b803590602001918460018302840111640100000000831117156102ac57600080fd5b91908080601f016020809104026020016040519081016040528093929190818152602001838380828437600081840152601f19601f820116905080830192505050505050509192919290505050610e14565b005b6103eb600480360360c081101561031657600080fd5b8101908080359060200190929190803590602001909291908035906020019092919080359060200190929190803590602001909291908035906020019064010000000081111561036557600080fd5b82018360208201111561037757600080fd5b8035906020019184600183028401116401000000008311171561039957600080fd5b91908080601f016020809104026020016040519081016040528093929190818152602001838380828437600081840152601f19601f820116905080830192505050505050509192919290505050611007565b005b6104b06004803603604081101561040357600080fd5b81019080803590602001909291908035906020019064010000000081111561042a57600080fd5b82018360208201111561043c57600080fd5b8035906020019184600183028401116401000000008311171561045e57600080fd5b91908080601f016020809104026020016040519081016040528093929190818152602001838380828437600081840152601f19601f8201169050808301925050505050505091929192905050506110f9565b604051808681526020018581526020018481526020018381526020018281526020019550505050505060405180910390f35b6104ea611237565b005b6105af6004803603604081101561050257600080fd5b81019080803590602001909291908035906020019064010000000081111561052957600080fd5b82018360208201111561053b57600080fd5b8035906020019184600183028401116401000000008311171561055d57600080fd5b91908080601f016020809104026020016040519081016040528093929190818152602001838380828437600081840152601f19601f8201169050808301925050505050505091929192905050506113ea565b005b6105f3600480360360208110156105c757600080fd5b81019080803573ffffffffffffffffffffffffffffffffffffffff1690602001909291905050506115ca565b6040518083815260200182151581526020019250505060405180910390f35b6106eb6004803603604081101561062857600080fd5b81019080803573ffffffffffffffffffffffffffffffffffffffff1690602001909291908035906020019064010000000081111561066557600080fd5b82018360208201111561067757600080fd5b8035906020019184600183028401116401000000008311171561069957600080fd5b91908080601f016020809104026020016040519081016040528093929190818152602001838380828437600081840152601f19601f8201169050808301925050505050505091929192905050506115fb565b005b6107dc6004803603608081101561070357600080fd5b8101908080359060200190929190803515159060200190929190803573ffffffffffffffffffffffffffffffffffffffff1690602001909291908035906020019064010000000081111561075657600080fd5b82018360208201111561076857600080fd5b8035906020019184600183028401116401000000008311171561078a57600080fd5b91908080601f016020809104026020016040519081016040528093929190818152602001838380828437600081840152601f19601f820116905080830192505050505050509192919290505050611815565b005b610840600480360360408110156107f457600080fd5b81019080803573ffffffffffffffffffffffffffffffffffffffff169060200190929190803573ffffffffffffffffffffffffffffffffffffffff169060200190929190505050611a52565b604051808381526020018281526020019250505060405180910390f35b6109206004803603604081101561087357600080fd5b81019080803590602001909291908035906020019064010000000081111561089a57600080fd5b8201836020820111156108ac57600080fd5b803590602001918460018302840111640100000000831117156108ce57600080fd5b91908080601f016020809104026020016040519081016040528093929190818152602001838380828437600081840152601f19601f820116905080830192505050505050509192919290505050611d33565b604051808273ffffffffffffffffffffffffffffffffffffffff16815260200191505060405180910390f35b610954611e73565b005b61095e612079565b005b610968612243565b005b61097261240d565b005b610a376004803603604081101561098a57600080fd5b8101908080359060200190929190803590602001906401000000008111156109b157600080fd5b8201836020820111156109c357600080fd5b803590602001918460018302840111640100000000831117156109e557600080fd5b91908080601f016020809104026020016040519081016040528093929190818152602001838380828437600081840152601f19601f820116905080830192505050505050509192919290505050612577565b60405180821515815260200191505060405180910390f35b610a576126a4565b604051808273ffffffffffffffffffffffffffffffffffffffff16815260200191505060405180910390f35b610a8b6126ca565b005b610a956128dc565b6040518082815260200191505060405180910390f35b610ab36128e6565b60405180821515815260200191505060405180910390f35b610ad361293d565b6040518082815260200191505060405180910390f35b610af1612943565b604051808273ffffffffffffffffffffffffffffffffffffffff16815260200191505060405180910390f35b610be060048036036040811015610b3357600080fd5b810190808035906020019092919080359060200190640100000000811115610b5a57600080fd5b820183602082011115610b6c57600080fd5b80359060200191846001830284011164010000000083111715610b8e57600080fd5b91908080601f016020809104026020016040519081016040528093929190818152602001838380828437600081840152601f19601f820116905080830192505050505050509192919290505050612967565b6040518082815260200191505060405180910390f35b610bfe612a87565b005b610c4260048036036020811015610c1657600080fd5b81019080803573ffffffffffffffffffffffffffffffffffffffff169060200190929190505050612c37565b60405180831515815260200182151581526020019250505060405180910390f35b610c6b612c75565b005b610c9960048036036020811015610c8357600080fd5b8101908080359060200190929190505050612dce565b604051808273ffffffffffffffffffffffffffffffffffffffff16815260200191505060405180910390f35b610d0760048036036020811015610cdb57600080fd5b81019080803573ffffffffffffffffffffffffffffffffffffffff169060200190929190505050612e0d565b60405180821515815260200191505060405180910390f35b610d6160048036036020811015610d3557600080fd5b81019080803573ffffffffffffffffffffffffffffffffffffffff169060200190929190505050612e2d565b005b610da560048036036020811015610d7957600080fd5b81019080803573ffffffffffffffffffffffffffffffffffffffff169060200190929190505050612f68565b6040518082815260200191505060405180910390f35b6000600160008373ffffffffffffffffffffffffffffffffffffffff1673ffffffffffffffffffffffffffffffffffffffff16815260200190815260200160002060000160009054906101000a900460ff169050919050565b600080600090505b600280549050811015610ea65760028181548110610e3657fe5b9060005260206000200160009054906101000a900473ffffffffffffffffffffffffffffffffffffffff1673ffffffffffffffffffffffffffffffffffffffff163373ffffffffffffffffffffffffffffffffffffffff161415610e9957600191505b8080600101915050610e1c565b506001151581151514610f21576040517f08c379a00000000000000000000000000000000000000000000000000000000081526004018080602001828103825260188152602001807f43616c6c6572206e6565647320746f206265206120646576000000000000000081525060200191505060405180910390fd5b60005b600280549050811015610fd05760006001600060028481548110610f4457fe5b9060005260206000200160009054906101000a900473ffffffffffffffffffffffffffffffffffffffff1673ffffffffffffffffffffffffffffffffffffffff1673ffffffffffffffffffffffffffffffffffffffff16815260200190815260200160002060000160016101000a81548160ff0219169083151502179055508080600101915050610f24565b5082600c60006101000a81548160ff02191690831515021790555081600590805190602001906110019291906134a9565b50505050565b60005b6002805490508110156110b6576000600160006002848154811061102a57fe5b9060005260206000200160009054906101000a900473ffffffffffffffffffffffffffffffffffffffff1673ffffffffffffffffffffffffffffffffffffffff1673ffffffffffffffffffffffffffffffffffffffff16815260200190815260200160002060000160016101000a81548160ff021916908315150217905550808060010191505061100a565b508560068190555084600781905550836008819055508260098190555081600a8190555080600590805190602001906110f09291906134a9565b50505050505050565b60008060008060008060011515600360003373ffffffffffffffffffffffffffffffffffffffff1673ffffffffffffffffffffffffffffffffffffffff16815260200190815260200160002060009054906101000a900460ff16151514806111b4575060011515600160003373ffffffffffffffffffffffffffffffffffffffff1673ffffffffffffffffffffffffffffffffffffffff16815260200190815260200160002060000160009054906101000a900460ff161515145b611209576040517f08c379a000000000000000000000000000000000000000000000000000000000815260040180806020018281038252602e815260200180613555602e913960400191505060405180910390fd5b61121388886130d5565b600654600754600854600954600a5495509550955095509550509295509295909350565b600080600090505b6002805490508110156112c9576002818154811061125957fe5b9060005260206000200160009054906101000a900473ffffffffffffffffffffffffffffffffffffffff1673ffffffffffffffffffffffffffffffffffffffff163373ffffffffffffffffffffffffffffffffffffffff1614156112bc57600191505b808060010191505061123f565b506001151581151514611344576040517f08c379a00000000000000000000000000000000000000000000000000000000081526004018080602001828103825260188152602001807f43616c6c6572206e6565647320746f206265206120646576000000000000000081525060200191505060405180910390fd5b61138460326040518060400160405280601481526020017f65787465726e616c4f7261636c654368616e67650000000000000000000000008152506130d5565b600460009054906101000a900473ffffffffffffffffffffffffffffffffffffffff16600c60016101000a81548173ffffffffffffffffffffffffffffffffffffffff021916908373ffffffffffffffffffffffffffffffffffffffff16021790555050565b600080600090505b60028054905081101561147c576002818154811061140c57fe5b9060005260206000200160009054906101000a900473ffffffffffffffffffffffffffffffffffffffff1673ffffffffffffffffffffffffffffffffffffffff163373ffffffffffffffffffffffffffffffffffffffff16141561146f57600191505b80806001019150506113f2565b5060011515811515146114f7576040517f08c379a00000000000000000000000000000000000000000000000000000000081526004018080602001828103825260188152602001807f43616c6c6572206e6565647320746f206265206120646576000000000000000081525060200191505060405180910390fd5b60005b6002805490508110156115a6576000600160006002848154811061151a57fe5b9060005260206000200160009054906101000a900473ffffffffffffffffffffffffffffffffffffffff1673ffffffffffffffffffffffffffffffffffffffff1673ffffffffffffffffffffffffffffffffffffffff16815260200190815260200160002060000160016101000a81548160ff02191690831515021790555080806001019150506114fa565b508260068190555081600590805190602001906115c49291906134a9565b50505050565b600e6020528060005260406000206000915090508060000154908060010160009054906101000a900460ff16905082565b600080600090505b60028054905081101561168d576002818154811061161d57fe5b9060005260206000200160009054906101000a900473ffffffffffffffffffffffffffffffffffffffff1673ffffffffffffffffffffffffffffffffffffffff163373ffffffffffffffffffffffffffffffffffffffff16141561168057600191505b8080600101915050611603565b506001151581151514611708576040517f08c379a00000000000000000000000000000000000000000000000000000000081526004018080602001828103825260188152602001807f43616c6c6572206e6565647320746f206265206120646576000000000000000081525060200191505060405180910390fd5b60005b6002805490508110156117b7576000600160006002848154811061172b57fe5b9060005260206000200160009054906101000a900473ffffffffffffffffffffffffffffffffffffffff1673ffffffffffffffffffffffffffffffffffffffff1673ffffffffffffffffffffffffffffffffffffffff16815260200190815260200160002060000160016101000a81548160ff021916908315150217905550808060010191505061170b565b5082600460006101000a81548173ffffffffffffffffffffffffffffffffffffffff021916908373ffffffffffffffffffffffffffffffffffffffff160217905550816005908051906020019061180f9291906134a9565b50505050565b600080600090505b6002805490508110156118a7576002818154811061183757fe5b9060005260206000200160009054906101000a900473ffffffffffffffffffffffffffffffffffffffff1673ffffffffffffffffffffffffffffffffffffffff163373ffffffffffffffffffffffffffffffffffffffff16141561189a57600191505b808060010191505061181d565b506001151581151514611922576040517f08c379a00000000000000000000000000000000000000000000000000000000081526004018080602001828103825260188152602001807f43616c6c6572206e6565647320746f206265206120646576000000000000000081525060200191505060405180910390fd5b60005b6002805490508110156119d1576000600160006002848154811061194557fe5b9060005260206000200160009054906101000a900473ffffffffffffffffffffffffffffffffffffffff1673ffffffffffffffffffffffffffffffffffffffff1673ffffffffffffffffffffffffffffffffffffffff16815260200190815260200160002060000160016101000a81548160ff0219169083151502179055508080600101915050611925565b508460068190555083600c60006101000a81548160ff02191690831515021790555082600460006101000a81548173ffffffffffffffffffffffffffffffffffffffff021916908373ffffffffffffffffffffffffffffffffffffffff1602179055508160059080519060200190611a4a9291906134a9565b505050505050565b600080600080600e60008773ffffffffffffffffffffffffffffffffffffffff1673ffffffffffffffffffffffffffffffffffffffff16815260200190815260200160002060010160009054906101000a900460ff1615611af757600e60008773ffffffffffffffffffffffffffffffffffffffff1673ffffffffffffffffffffffffffffffffffffffff168152602001908152602001600020600001549150611bbe565b600c60019054906101000a900473ffffffffffffffffffffffffffffffffffffffff1673ffffffffffffffffffffffffffffffffffffffff1663729f20c7876040518263ffffffff1660e01b8152600401808273ffffffffffffffffffffffffffffffffffffffff16815260200191505060206040518083038186803b158015611b8057600080fd5b505afa158015611b94573d6000803e3d6000fd5b505050506040513d6020811015611baa57600080fd5b810190808051906020019092919050505091505b600e60008673ffffffffffffffffffffffffffffffffffffffff1673ffffffffffffffffffffffffffffffffffffffff16815260200190815260200160002060010160009054906101000a900460ff1615611c5d57600e60008673ffffffffffffffffffffffffffffffffffffffff1673ffffffffffffffffffffffffffffffffffffffff168152602001908152602001600020600001549050611d24565b600c60019054906101000a900473ffffffffffffffffffffffffffffffffffffffff1673ffffffffffffffffffffffffffffffffffffffff1663729f20c7866040518263ffffffff1660e01b8152600401808273ffffffffffffffffffffffffffffffffffffffff16815260200191505060206040518083038186803b158015611ce657600080fd5b505afa158015611cfa573d6000803e3d6000fd5b505050506040513d6020811015611d1057600080fd5b810190808051906020019092919050505090505b81819350935050509250929050565b60008060011515600360003373ffffffffffffffffffffffffffffffffffffffff1673ffffffffffffffffffffffffffffffffffffffff16815260200190815260200160002060009054906101000a900460ff1615151480611de8575060011515600160003373ffffffffffffffffffffffffffffffffffffffff1673ffffffffffffffffffffffffffffffffffffffff16815260200190815260200160002060000160009054906101000a900460ff161515145b611e3d576040517f08c379a000000000000000000000000000000000000000000000000000000000815260040180806020018281038252602e815260200180613555602e913960400191505060405180910390fd5b611e4784846130d5565b600460009054906101000a900473ffffffffffffffffffffffffffffffffffffffff1691505092915050565b600080600090505b600280549050811015611f055760028181548110611e9557fe5b9060005260206000200160009054906101000a900473ffffffffffffffffffffffffffffffffffffffff1673ffffffffffffffffffffffffffffffffffffffff163373ffffffffffffffffffffffffffffffffffffffff161415611ef857600191505b8080600101915050611e7b565b506001151581151514611f80576040517f08c379a00000000000000000000000000000000000000000000000000000000081526004018080602001828103825260188152602001807f43616c6c6572206e6565647320746f206265206120646576000000000000000081525060200191505060405180910390fd5b611fc060326040518060400160405280600b81526020017f746f6b656e4368616e67650000000000000000000000000000000000000000008152506130d5565b60405180604001604052806006548152602001600c60009054906101000a900460ff161515815250600e6000600460009054906101000a900473ffffffffffffffffffffffffffffffffffffffff1673ffffffffffffffffffffffffffffffffffffffff1673ffffffffffffffffffffffffffffffffffffffff1681526020019081526020016000206000820151816000015560208201518160010160006101000a81548160ff02191690831515021790555090505050565b600080600090505b60028054905081101561210b576002818154811061209b57fe5b9060005260206000200160009054906101000a900473ffffffffffffffffffffffffffffffffffffffff1673ffffffffffffffffffffffffffffffffffffffff163373ffffffffffffffffffffffffffffffffffffffff1614156120fe57600191505b8080600101915050612081565b506001151581151514612186576040517f08c379a00000000000000000000000000000000000000000000000000000000081526004018080602001828103825260188152602001807f43616c6c6572206e6565647320746f206265206120646576000000000000000081525060200191505060405180910390fd5b6121c660506040518060400160405280600e81526020017f64656c657465436f6e74726163740000000000000000000000000000000000008152506130d5565b600060036000600460009054906101000a900473ffffffffffffffffffffffffffffffffffffffff1673ffffffffffffffffffffffffffffffffffffffff1673ffffffffffffffffffffffffffffffffffffffff16815260200190815260200160002060006101000a81548160ff02191690831515021790555050565b600080600090505b6002805490508110156122d5576002818154811061226557fe5b9060005260206000200160009054906101000a900473ffffffffffffffffffffffffffffffffffffffff1673ffffffffffffffffffffffffffffffffffffffff163373ffffffffffffffffffffffffffffffffffffffff1614156122c857600191505b808060010191505061224b565b506001151581151514612350576040517f08c379a00000000000000000000000000000000000000000000000000000000081526004018080602001828103825260188152602001807f43616c6c6572206e6565647320746f206265206120646576000000000000000081525060200191505060405180910390fd5b61239060506040518060400160405280600e81526020017f616363657074436f6e74726163740000000000000000000000000000000000008152506130d5565b600160036000600460009054906101000a900473ffffffffffffffffffffffffffffffffffffffff1673ffffffffffffffffffffffffffffffffffffffff1673ffffffffffffffffffffffffffffffffffffffff16815260200190815260200160002060006101000a81548160ff02191690831515021790555050565b600080600090505b60028054905081101561249f576002818154811061242f57fe5b9060005260206000200160009054906101000a900473ffffffffffffffffffffffffffffffffffffffff1673ffffffffffffffffffffffffffffffffffffffff163373ffffffffffffffffffffffffffffffffffffffff16141561249257600191505b8080600101915050612415565b50600115158115151461251a576040517f08c379a00000000000000000000000000000000000000000000000000000000081526004018080602001828103825260188152602001807f43616c6c6572206e6565647320746f206265206120646576000000000000000081525060200191505060405180910390fd5b60018060003373ffffffffffffffffffffffffffffffffffffffff1673ffffffffffffffffffffffffffffffffffffffff16815260200190815260200160002060000160016101000a81548160ff02191690831515021790555050565b60008060011515600360003373ffffffffffffffffffffffffffffffffffffffff1673ffffffffffffffffffffffffffffffffffffffff16815260200190815260200160002060009054906101000a900460ff161515148061262c575060011515600160003373ffffffffffffffffffffffffffffffffffffffff1673ffffffffffffffffffffffffffffffffffffffff16815260200190815260200160002060000160009054906101000a900460ff161515145b612681576040517f08c379a000000000000000000000000000000000000000000000000000000000815260040180806020018281038252602e815260200180613555602e913960400191505060405180910390fd5b61268b84846130d5565b600c60009054906101000a900460ff1691505092915050565b600c60019054906101000a900473ffffffffffffffffffffffffffffffffffffffff1681565b600080600090505b60028054905081101561275c57600281815481106126ec57fe5b9060005260206000200160009054906101000a900473ffffffffffffffffffffffffffffffffffffffff1673ffffffffffffffffffffffffffffffffffffffff163373ffffffffffffffffffffffffffffffffffffffff16141561274f57600191505b80806001019150506126d2565b5060011515811515146127d7576040517f08c379a00000000000000000000000000000000000000000000000000000000081526004018080602001828103825260188152602001807f43616c6c6572206e6565647320746f206265206120646576000000000000000081525060200191505060405180910390fd5b600061281960506040518060400160405280600981526020017f6163636570744465760000000000000000000000000000000000000000000000815250611d33565b90506002819080600181540180825580915050600190039060005260206000200160009091909190916101000a81548173ffffffffffffffffffffffffffffffffffffffff021916908373ffffffffffffffffffffffffffffffffffffffff16021790555060018060008373ffffffffffffffffffffffffffffffffffffffff1673ffffffffffffffffffffffffffffffffffffffff16815260200190815260200160002060000160006101000a81548160ff0219169083151502179055505050565b6000600d54905090565b60008060009054906101000a900473ffffffffffffffffffffffffffffffffffffffff1673ffffffffffffffffffffffffffffffffffffffff163373ffffffffffffffffffffffffffffffffffffffff1614905090565b600d5481565b60008054906101000a900473ffffffffffffffffffffffffffffffffffffffff1681565b60008060011515600360003373ffffffffffffffffffffffffffffffffffffffff1673ffffffffffffffffffffffffffffffffffffffff16815260200190815260200160002060009054906101000a900460ff1615151480612a1c575060011515600160003373ffffffffffffffffffffffffffffffffffffffff1673ffffffffffffffffffffffffffffffffffffffff16815260200190815260200160002060000160009054906101000a900460ff161515145b612a71576040517f08c379a000000000000000000000000000000000000000000000000000000000815260040180806020018281038252602e815260200180613555602e913960400191505060405180910390fd5b612a7b84846130d5565b60065491505092915050565b600080600090505b600280549050811015612b195760028181548110612aa957fe5b9060005260206000200160009054906101000a900473ffffffffffffffffffffffffffffffffffffffff1673ffffffffffffffffffffffffffffffffffffffff163373ffffffffffffffffffffffffffffffffffffffff161415612b0c57600191505b8080600101915050612a8f565b506001151581151514612b94576040517f08c379a00000000000000000000000000000000000000000000000000000000081526004018080602001828103825260188152602001807f43616c6c6572206e6565647320746f206265206120646576000000000000000081525060200191505060405180910390fd5b6000612bd660506040518060400160405280600981526020017f64656c6574654465760000000000000000000000000000000000000000000000815250611d33565b90506000600160008373ffffffffffffffffffffffffffffffffffffffff1673ffffffffffffffffffffffffffffffffffffffff16815260200190815260200160002060000160006101000a81548160ff0219169083151502179055505050565b60016020528060005260406000206000915090508060000160009054906101000a900460ff16908060000160019054906101000a900460ff16905082565b600080600090505b600280549050811015612d075760028181548110612c9757fe5b9060005260206000200160009054906101000a900473ffffffffffffffffffffffffffffffffffffffff1673ffffffffffffffffffffffffffffffffffffffff163373ffffffffffffffffffffffffffffffffffffffff161415612cfa57600191505b8080600101915050612c7d565b506001151581151514612d82576040517f08c379a00000000000000000000000000000000000000000000000000000000081526004018080602001828103825260188152602001807f43616c6c6572206e6565647320746f206265206120646576000000000000000081525060200191505060405180910390fd5b612dc260326040518060400160405280600e81526020017f70726963654368616e67654554480000000000000000000000000000000000008152506130d5565b600654600d8190555050565b60028181548110612dde57600080fd5b906000526020600020016000915054906101000a900473ffffffffffffffffffffffffffffffffffffffff1681565b60036020528060005260406000206000915054906101000a900460ff1681565b612e356128e6565b612ea7576040517f08c379a00000000000000000000000000000000000000000000000000000000081526004018080602001828103825260168152602001807f596f7520617265206e6f7420746865206f776e65722e0000000000000000000081525060200191505060405180910390fd5b600073ffffffffffffffffffffffffffffffffffffffff168173ffffffffffffffffffffffffffffffffffffffff161415612ee157600080fd5b8073ffffffffffffffffffffffffffffffffffffffff167f8be0079c531659141344cd1fd0a4f28419497f9722a3daafe3b4186f6b6457e060008054906101000a900473ffffffffffffffffffffffffffffffffffffffff16604051808273ffffffffffffffffffffffffffffffffffffffff16815260200191505060405180910390a250565b6000600e60008373ffffffffffffffffffffffffffffffffffffffff1673ffffffffffffffffffffffffffffffffffffffff16815260200190815260200160002060010160009054906101000a900460ff161561300957600e60008373ffffffffffffffffffffffffffffffffffffffff1673ffffffffffffffffffffffffffffffffffffffff1681526020019081526020016000206000015490506130d0565b600c60019054906101000a900473ffffffffffffffffffffffffffffffffffffffff1673ffffffffffffffffffffffffffffffffffffffff1663729f20c7836040518263ffffffff1660e01b8152600401808273ffffffffffffffffffffffffffffffffffffffff16815260200191505060206040518083038186803b15801561309257600080fd5b505afa1580156130a6573d6000803e3d6000fd5b505050506040513d60208110156130bc57600080fd5b810190808051906020019092919050505090505b919050565b600080600080600090505b6002805490508110156132c85760011515600160006002848154811061310257fe5b9060005260206000200160009054906101000a900473ffffffffffffffffffffffffffffffffffffffff1673ffffffffffffffffffffffffffffffffffffffff1673ffffffffffffffffffffffffffffffffffffffff16815260200190815260200160002060000160019054906101000a900460ff161515148015613211575060011515600160006002848154811061319757fe5b9060005260206000200160009054906101000a900473ffffffffffffffffffffffffffffffffffffffff1673ffffffffffffffffffffffffffffffffffffffff1673ffffffffffffffffffffffffffffffffffffffff16815260200190815260200160002060000160009054906101000a900460ff161515145b1561321f5783806001019450505b60011515600160006002848154811061323457fe5b9060005260206000200160009054906101000a900473ffffffffffffffffffffffffffffffffffffffff1673ffffffffffffffffffffffffffffffffffffffff1673ffffffffffffffffffffffffffffffffffffffff16815260200190815260200160002060000160009054906101000a900460ff16151514156132bb5782806001019350505b80806001019150506130e0565b506132d583606484613492565b9050848110156132e457600080fd5b836040516020018082805190602001908083835b6020831061331b57805182526020820191506020810190506020830392506132f8565b6001836020036101000a03801982511681845116808217855250505050505090500191505060405160208183030381529060405280519060200120600560405160200180828054600181600116156101000203166002900480156133b65780601f106133945761010080835404028352918201916133b6565b820191906000526020600020905b8154815290600101906020018083116133a2575b505091505060405160208183030381529060405280519060200120146133db57600080fd5b60005b60028054905081101561348a57600060016000600284815481106133fe57fe5b9060005260206000200160009054906101000a900473ffffffffffffffffffffffffffffffffffffffff1673ffffffffffffffffffffffffffffffffffffffff1673ffffffffffffffffffffffffffffffffffffffff16815260200190815260200160002060000160016101000a81548160ff02191690831515021790555080806001019150506133de565b505050505050565b6000818385028161349f57fe5b0490509392505050565b828054600181600116156101000203166002900490600052602060002090601f0160209004810192826134df5760008555613526565b82601f106134f857805160ff1916838001178555613526565b82800160010185558215613526579182015b8281111561352557825182559160200191906001019061350a565b5b5090506135339190613537565b5090565b5b80821115613550576000816000905550600101613538565b509056fe5468697320636f6e74726163742063616e7420696e746572616374207769746820746865206465762070616e656ca26469706673582212208384e1295b5f05788b32f921cb5e37199d8b5ae643c46807cf40b952a30f587264736f6c63430007060033",
  "immutableReferences": {},
  "source": "// SPDX-License-Identifier: MIT\npragma solidity >=0.4.22 <0.9.0;\n\nimport \"./interfaces/Ownable.sol\";\nimport \"./interfaces/SafeMath.sol\";\nimport \"./ExternalOracle.sol\";\n\ncontract ExchangeOracle is Ownable {\n    // **************************************** DEV VOTE ***************************************\n    /**\n     * @dev Struct saves information on dev's current vote and status. False denotes that dev\n     * wont be included in total tally for votes and vote wont count towards any change\n     * @notice Activating a dev's status can only occur under dev vote\n     */\n    struct Dev {\n        bool active;\n        bool vote;\n    }\n    /**\n     * @dev Mapping key value address (developer) returns Dev struct information for dev\n     */\n    mapping(address => Dev) public devBook;\n\n    /**\n     * @dev Array used to access the address of all developers on Cobalt\n     */\n    address[] public devArray;\n\n    /**\n     * @dev Mapping key value address (Contract address) returns a bool on contract entry\n     * status. True - valid entry, False - not permitted.\n     */\n    mapping(address => bool) public contractSupported;\n\n    /**\n     * @dev List all variables proposed for changes.\n     */\n    address addressProposed;\n    string proposedChange;\n    uint256 intProposed;\n    uint256 intProposed2;\n    uint256 intProposed3;\n    uint256 intProposed4;\n    uint256 intProposed5;\n    uint256 intProposed6;\n    bool boolProposed;\n\n    /**\n     * @dev Modifier limits the entry of contracts interacting with the dev panel.\n     */\n    modifier validEntry {\n        bool cleared;\n        require(\n            contractSupported[msg.sender] == true ||\n                devBook[msg.sender].active == true,\n            \"This contract cant interact with the dev panel\"\n        );\n        _;\n    }\n\n    /**\n     * @dev Modifier limits the entry of user addresses interacting with the dev panel.\n     */\n    modifier onlyDev {\n        bool cleared;\n\n        for (uint256 i = 0; i < devArray.length; i++) {\n            if (msg.sender == devArray[i]) {\n                cleared = true;\n            }\n        }\n\n        require(cleared == true, \"Caller needs to be a dev\");\n        _;\n    }\n\n    /**\n     * @dev Function takes a set percentage and string set by the contract making the call\n     * with information on percentage needed for change to occur and string of the calling\n     * function. Reverts if percentage is not met or calling function was does not coincide\n     * with the one agreed for the change.\n     * @param _percentage percent needed for change to be approved.\n     * @param _callingFunctionChange string of asking for clearance\n     * @notice On successful run, function also resets all dev votes to false\n     */\n    function clearedAction(\n        uint256 _percentage,\n        string memory _callingFunctionChange\n    ) internal {\n        uint256 votes;\n        uint256 totalVotes;\n        uint256 votePercentage;\n\n        for (uint256 i = 0; i < devArray.length; i++) {\n            if (\n                devBook[devArray[i]].vote == true &&\n                devBook[devArray[i]].active == true\n            ) {\n                votes++;\n            }\n            if (devBook[devArray[i]].active == true) {\n                totalVotes++;\n            }\n        }\n\n        votePercentage = SafeMath.multiply(votes, 100, totalVotes);\n        require(votePercentage >= _percentage);\n        require(\n            keccak256(abi.encodePacked(proposedChange)) ==\n                keccak256(abi.encodePacked(_callingFunctionChange))\n        );\n\n        for (uint256 i = 0; i < devArray.length; i++) {\n            devBook[devArray[i]].vote = false;\n        }\n    }\n\n    /**\n     * @dev Function accepts a proposed address for a new dev addition. This dev gets added\n     * to the dev array as well as turned as active as default.\n     */\n    function acceptDev() public onlyDev {\n        address newDev = addressChange(80, \"acceptDev\");\n        devArray.push(newDev);\n        devBook[newDev].active = true;\n    }\n\n    /**\n     * @dev Function deactivates the active status for a developer.\n     */\n    function deleteDev() public onlyDev {\n        address status = addressChange(80, \"deleteDev\");\n        devBook[status].active = false;\n    }\n\n    /**\n     * @dev Function activates a new contract address as entry point.\n     */\n    function acceptContract() public onlyDev {\n        clearedAction(80, \"acceptContract\");\n        contractSupported[addressProposed] = true;\n    }\n\n    /**\n     * @dev Function deactivates an existing contract address as entry point.\n     */\n    function deleteContract() public onlyDev {\n        clearedAction(80, \"deleteContract\");\n        contractSupported[addressProposed] = false;\n    }\n\n    /**\n     * @dev Function stores the dev's vote for the current proposed change.\n     * @notice We dont limit vote to only active devs as their votes dont get added\n     * to the total tally during clearedAction function.\n     */\n    function vote() public onlyDev {\n        devBook[msg.sender].vote = true;\n    }\n\n    /**\n     * @dev Resets all the dev contract votes to false and takes a parameter bool as\n     * the new proposed change. The string of the function accepting this change must also\n     * be parsed in.\n     * @param _bool proposed change on function output\n     * @param _proposedChange string cointaining information on permitted function accessing\n     * the boolChange function.\n     */\n    function proposeBoolChange(bool _bool, string memory _proposedChange)\n        public\n        onlyDev\n    {\n        for (uint256 i = 0; i < devArray.length; i++) {\n            devBook[devArray[i]].vote = false;\n        }\n        boolProposed = _bool;\n        proposedChange = _proposedChange;\n    }\n\n    /**\n     * @dev Function outputs the current bool proposed as function output to a valid\n     * entry contract. The contract will also specify its own name to limit changes\n     * on other functions and increase security.\n     * @param _percent percent needed for change to be approved.\n     * @param _proposedChange string of the calling function.\n     * @return new bool value proposed\n     */\n    function boolChange(uint256 _percent, string memory _proposedChange)\n        public\n        validEntry\n        returns (bool)\n    {\n        clearedAction(_percent, _proposedChange);\n\n        return (boolProposed);\n    }\n\n    /**\n     * @dev Resets all the dev contract votes to false and takes a parameter uint as\n     * the new proposed change. The string of the function accepting this change must also\n     * be parsed in.\n     * @param _num proposed change on function output\n     * @param _proposedChange string cointaining information on permitted function accessing\n     * the numChange function.\n     */\n    function proposeNumberChange(uint256 _num, string memory _proposedChange)\n        public\n        onlyDev\n    {\n        for (uint256 i = 0; i < devArray.length; i++) {\n            devBook[devArray[i]].vote = false;\n        }\n        intProposed = _num;\n        proposedChange = _proposedChange;\n    }\n\n    /**\n     * @dev Function outputs the current uint proposed as function output to a valid\n     * entry contract. The contract will also specify its own name to limit changes\n     * on other functions and increase security.\n     * @param _percent percent needed for change to be approved.\n     * @param _proposedChange string of the calling function.\n     * @return new uint value proposed\n     */\n    function numberChange(uint256 _percent, string memory _proposedChange)\n        public\n        validEntry\n        returns (uint256)\n    {\n        clearedAction(_percent, _proposedChange);\n\n        return (intProposed);\n    }\n\n    /**\n     * @dev Resets all the dev contract votes to false and takes a parameter address as\n     * the new proposed change. The string of the function accepting this change must also\n     * be parsed in.\n     * @param _address proposed change on function output\n     * @param _proposedChange string cointaining information on permitted function accessing\n     * the addressChange function.\n     */\n    function proposeAddressChange(\n        address _address,\n        string memory _proposedChange\n    ) public onlyDev {\n        for (uint256 i = 0; i < devArray.length; i++) {\n            devBook[devArray[i]].vote = false;\n        }\n\n        addressProposed = _address;\n        proposedChange = _proposedChange;\n    }\n\n    /**\n     * @dev Function outputs the current address proposed as function output to a valid\n     * entry contract. The contract will also specify its own name to limit changes\n     * on other functions and increase security.\n     * @param _percent percent needed for change to be approved.\n     * @param _proposedChange string of the calling function.\n     * @return new address value proposed\n     */\n    function addressChange(uint256 _percent, string memory _proposedChange)\n        public\n        validEntry\n        returns (address)\n    {\n        clearedAction(_percent, _proposedChange);\n\n        return addressProposed;\n    }\n\n    /**\n     * @dev Resets all the dev contract votes to false and takes multiple params as\n     * the new tier proposed. The string of the function accepting this change must also\n     * be parsed in.\n     */\n    function proposeTierChange(\n        uint256 _amountTier,\n        uint256 _timeTier,\n        uint256 _interest,\n        uint256 _amountStakersLeft,\n        uint256 _tierDuration,\n        string memory _proposedChange\n    ) public {\n        for (uint256 i = 0; i < devArray.length; i++) {\n            devBook[devArray[i]].vote = false;\n        }\n        intProposed = _amountTier;\n        intProposed2 = _timeTier;\n        intProposed3 = _interest;\n        intProposed4 = _amountStakersLeft;\n        intProposed5 = _tierDuration;\n\n        proposedChange = _proposedChange;\n    }\n\n    /**\n     * @dev Function outputs the current selection proposed as function output to a valid\n     * entry contract. The contract will also specify its own name to limit changes\n     * on other functions and increase security.\n     */\n    function tierChange(uint256 _percent, string memory _proposedChange)\n        public\n        validEntry\n        returns (\n            uint256,\n            uint256,\n            uint256,\n            uint256,\n            uint256\n        )\n    {\n        clearedAction(_percent, _proposedChange);\n\n        return (\n            intProposed,\n            intProposed2,\n            intProposed3,\n            intProposed4,\n            intProposed5\n        );\n    }\n\n    function isDev(address _caller) public view returns (bool) {\n        return devBook[_caller].active;\n    }\n\n    /**\n     * @dev Resets all the dev contract votes to false and takes a parameter value, status and\n     * address of the token. The string of the function accepting this change must also\n     * be parsed in.\n     * @param  _value new proposed value for token\n     * @param  _status new status of token support\n     * @param  _tokenAddress address of token being updated\n     * @param _proposedChange string cointaining information on permitted function accessing\n     * the boolChange function.\n     */\n    function proposeTokenChange(\n        uint256 _value,\n        bool _status,\n        address _tokenAddress,\n        string memory _proposedChange\n    ) public onlyDev {\n        for (uint256 i = 0; i < devArray.length; i++) {\n            devBook[devArray[i]].vote = false;\n        }\n        intProposed = _value;\n        boolProposed = _status;\n        addressProposed = _tokenAddress;\n        proposedChange = _proposedChange;\n    }\n\n    /**\n     * @dev Function takes proposed variable values to update token information.\n     */\n    function tokenChange() public onlyDev {\n        clearedAction(50, \"tokenChange\");\n        tokenData[addressProposed] = Token(intProposed, boolProposed);\n    }\n\n    /**\n     * @dev Function takes a proposed uint value to update ethereum current price in USD.\n     */\n    function priceChangeETH() public onlyDev {\n        clearedAction(50, \"priceChangeETH\");\n        USDpriceETH = intProposed;\n    }\n\n    /**\n     * @dev Function takes a proposed address value to update the external oracle.\n     */\n    function externalOracleChange() public onlyDev {\n        clearedAction(50, \"externalOracleChange\");\n        oracle = ExternalOracle(addressProposed);\n    }\n\n    constructor() {\n        tokenData[0xEeeeeEeeeEeEeeEeEeEeeEEEeeeeEeeeeeeeEEeE] = Token(\n            1000000000000000000,\n            true\n        );\n        // rinkeby weth address to work with uniswap\n        tokenData[0xc778417E063141139Fce010982780140Aa0cD5Ab] = Token(\n            53000000000000,\n            true\n        );\n        tokenData[0x433C6E3D2def6E1fb414cf9448724EFB0399b698] = Token(\n            53000000000000,\n            true\n        );\n        devArray = [\n            0x5B38Da6a701c568545dCfcB03FcB875f56beddC4,\n            0xAb8483F64d9C6d1EcF9b849Ae677dD3315835cb2\n        ];\n        contractSupported[address(this)] = true;\n\n        devBook[0x5B38Da6a701c568545dCfcB03FcB875f56beddC4].active = true;\n        devBook[0xAb8483F64d9C6d1EcF9b849Ae677dD3315835cb2].active = true;\n        USDpriceETH = 200000;\n    }\n\n    // ******************************** Token Data **********************************\n    /**\n     * @dev Struct saves information token data. Value field contains data on token\n     * value relative to ethereum. Active field displays current support for token.\n     * @notice Unsupported tokens use an external oracle to output relative value of eth\n     * from other sources.\n     */\n    struct Token {\n        uint256 value;\n        bool active;\n    }\n\n    /**\n     * @dev External oracle instance to provides information on token relative value using\n     * other platforms.\n     */\n    ExternalOracle public oracle;\n\n    /**\n     * @dev uint saves the value of Ethereum in USD.\n     * @notice Decimals were shifted to the right for more accurate readings on current\n     * prices of Ethereum in USD.\n     */\n    uint256 public USDpriceETH;\n\n    /**\n     * @dev Mapping key value of address (token address) returns the struct with pertaining information\n     * on token support and value.\n     */\n    mapping(address => Token) public tokenData; // Token information accessed by token address\n\n    /**\n     * @dev Function returns relative price of two tokens.\n     * @notice Fuction checks for token support, if token is not supported,\n     * the contract will delegate the task to the outer oracle to pull\n     * prices from other sources.\n     * @param _sellTokenAddress address of queried selling token\n     * @param _buyTokenAddress address of queried token being bought\n     * @return relative value of token being sold, relative value of token\n     * being bought.\n     */\n    function priceOfPair(address _sellTokenAddress, address _buyTokenAddress)\n        public\n        view\n        returns (uint256, uint256)\n    {\n        uint256 sellTokenPrice;\n        uint256 buyTokenPrice;\n\n        if (tokenData[_sellTokenAddress].active) {\n            sellTokenPrice = tokenData[_sellTokenAddress].value;\n        } else {\n            sellTokenPrice = oracle.getRelativePrice(_sellTokenAddress);\n        }\n\n        if (tokenData[_buyTokenAddress].active) {\n            buyTokenPrice = tokenData[_buyTokenAddress].value;\n        } else {\n            buyTokenPrice = oracle.getRelativePrice(_buyTokenAddress);\n        }\n\n        return (sellTokenPrice, buyTokenPrice);\n    }\n\n    /**\n     * @dev Function returns the price of Ethereum in USD\n     * @return price of ETH in USD\n     */\n    function priceOfETH() public view returns (uint256) {\n        return (USDpriceETH);\n    }\n\n    /**\n     * @dev Function returns the value of the queried token.\n     * @param _tokenAddress of token query\n     * @notice Fuction checks for token support, if token is not supported,\n     * the contract will delegate the task to the outer oracle to pull\n     * prices from other sources.\n     */\n    function priceOfToken(address _tokenAddress) public view returns (uint256) {\n        if (tokenData[_tokenAddress].active) {\n            return tokenData[_tokenAddress].value;\n        } else {\n            return oracle.getRelativePrice(_tokenAddress);\n        }\n    }\n}\n",
  "sourcePath": "/Users/christianroque/Desktop/TungstenGroupProject/contracts/ExchangeOracle.sol",
  "compiler": {
    "name": "solc",
    "version": "0.7.6+commit.7338295f.Emscripten.clang"
  },
  "schemaVersion": "3.3.4",
  "updatedAt": "2021-07-02T05:39:32.229Z",
  "devdoc": {
    "kind": "dev",
    "methods": {
      "acceptContract()": {
        "details": "Function activates a new contract address as entry point."
      },
      "acceptDev()": {
        "details": "Function accepts a proposed address for a new dev addition. This dev gets added to the dev array as well as turned as active as default."
      },
      "addressChange(uint256,string)": {
        "details": "Function outputs the current address proposed as function output to a valid entry contract. The contract will also specify its own name to limit changes on other functions and increase security.",
        "params": {
          "_percent": "percent needed for change to be approved.",
          "_proposedChange": "string of the calling function."
        },
        "returns": {
          "_0": "new address value proposed"
        }
      },
      "boolChange(uint256,string)": {
        "details": "Function outputs the current bool proposed as function output to a valid entry contract. The contract will also specify its own name to limit changes on other functions and increase security.",
        "params": {
          "_percent": "percent needed for change to be approved.",
          "_proposedChange": "string of the calling function."
        },
        "returns": {
          "_0": "new bool value proposed"
        }
      },
      "deleteContract()": {
        "details": "Function deactivates an existing contract address as entry point."
      },
      "deleteDev()": {
        "details": "Function deactivates the active status for a developer."
      },
      "externalOracleChange()": {
        "details": "Function takes a proposed address value to update the external oracle."
      },
      "numberChange(uint256,string)": {
        "details": "Function outputs the current uint proposed as function output to a valid entry contract. The contract will also specify its own name to limit changes on other functions and increase security.",
        "params": {
          "_percent": "percent needed for change to be approved.",
          "_proposedChange": "string of the calling function."
        },
        "returns": {
          "_0": "new uint value proposed"
        }
      },
      "priceChangeETH()": {
        "details": "Function takes a proposed uint value to update ethereum current price in USD."
      },
      "priceOfETH()": {
        "details": "Function returns the price of Ethereum in USD",
        "returns": {
          "_0": "price of ETH in USD"
        }
      },
      "priceOfPair(address,address)": {
        "details": "Function returns relative price of two tokens.",
        "params": {
          "_buyTokenAddress": "address of queried token being bought",
          "_sellTokenAddress": "address of queried selling token"
        },
        "returns": {
          "_0": "relative value of token being sold, relative value of token being bought."
        }
      },
      "priceOfToken(address)": {
        "details": "Function returns the value of the queried token.",
        "params": {
          "_tokenAddress": "of token query"
        }
      },
      "proposeAddressChange(address,string)": {
        "details": "Resets all the dev contract votes to false and takes a parameter address as the new proposed change. The string of the function accepting this change must also be parsed in.",
        "params": {
          "_address": "proposed change on function output",
          "_proposedChange": "string cointaining information on permitted function accessing the addressChange function."
        }
      },
      "proposeBoolChange(bool,string)": {
        "details": "Resets all the dev contract votes to false and takes a parameter bool as the new proposed change. The string of the function accepting this change must also be parsed in.",
        "params": {
          "_bool": "proposed change on function output",
          "_proposedChange": "string cointaining information on permitted function accessing the boolChange function."
        }
      },
      "proposeNumberChange(uint256,string)": {
        "details": "Resets all the dev contract votes to false and takes a parameter uint as the new proposed change. The string of the function accepting this change must also be parsed in.",
        "params": {
          "_num": "proposed change on function output",
          "_proposedChange": "string cointaining information on permitted function accessing the numChange function."
        }
      },
      "proposeTierChange(uint256,uint256,uint256,uint256,uint256,string)": {
        "details": "Resets all the dev contract votes to false and takes multiple params as the new tier proposed. The string of the function accepting this change must also be parsed in."
      },
      "proposeTokenChange(uint256,bool,address,string)": {
        "details": "Resets all the dev contract votes to false and takes a parameter value, status and address of the token. The string of the function accepting this change must also be parsed in.",
        "params": {
          "_proposedChange": "string cointaining information on permitted function accessing the boolChange function.",
          "_status": "new status of token support",
          "_tokenAddress": "address of token being updated",
          "_value": "new proposed value for token"
        }
      },
      "tierChange(uint256,string)": {
        "details": "Function outputs the current selection proposed as function output to a valid entry contract. The contract will also specify its own name to limit changes on other functions and increase security."
      },
      "tokenChange()": {
        "details": "Function takes proposed variable values to update token information."
      },
      "vote()": {
        "details": "Function stores the dev's vote for the current proposed change."
      }
    },
    "stateVariables": {
      "USDpriceETH": {
        "details": "uint saves the value of Ethereum in USD."
      },
      "addressProposed": {
        "details": "List all variables proposed for changes."
      },
      "contractSupported": {
        "details": "Mapping key value address (Contract address) returns a bool on contract entry status. True - valid entry, False - not permitted."
      },
      "devArray": {
        "details": "Array used to access the address of all developers on Cobalt"
      },
      "devBook": {
        "details": "Mapping key value address (developer) returns Dev struct information for dev"
      },
      "oracle": {
        "details": "External oracle instance to provides information on token relative value using other platforms."
      },
      "tokenData": {
        "details": "Mapping key value of address (token address) returns the struct with pertaining information on token support and value."
      }
    },
    "version": 1
  },
  "userdoc": {
    "kind": "user",
    "methods": {
      "USDpriceETH()": {
        "notice": "Decimals were shifted to the right for more accurate readings on current prices of Ethereum in USD."
      },
      "priceOfPair(address,address)": {
        "notice": "Fuction checks for token support, if token is not supported, the contract will delegate the task to the outer oracle to pull prices from other sources."
      },
      "priceOfToken(address)": {
        "notice": "Fuction checks for token support, if token is not supported, the contract will delegate the task to the outer oracle to pull prices from other sources."
      },
      "vote()": {
        "notice": "We dont limit vote to only active devs as their votes dont get added to the total tally during clearedAction function."
      }
    },
    "version": 1
  }
}