{
  "contractName": "ExchangeOracle",
  "abi": [
    {
      "inputs": [],
      "stateMutability": "nonpayable",
      "type": "constructor"
    },
    {
      "inputs": [],
      "name": "USDpriceETH",
      "outputs": [
        {
          "internalType": "uint256",
          "name": "",
          "type": "uint256"
        }
      ],
      "stateMutability": "view",
      "type": "function"
    },
    {
      "inputs": [
        {
          "internalType": "address",
          "name": "",
          "type": "address"
        }
      ],
      "name": "contractSupported",
      "outputs": [
        {
          "internalType": "bool",
          "name": "",
          "type": "bool"
        }
      ],
      "stateMutability": "view",
      "type": "function"
    },
    {
      "inputs": [
        {
          "internalType": "uint256",
          "name": "",
          "type": "uint256"
        }
      ],
      "name": "devArray",
      "outputs": [
        {
          "internalType": "address",
          "name": "",
          "type": "address"
        }
      ],
      "stateMutability": "view",
      "type": "function"
    },
    {
      "inputs": [
        {
          "internalType": "address",
          "name": "",
          "type": "address"
        }
      ],
      "name": "devBook",
      "outputs": [
        {
          "internalType": "bool",
          "name": "active",
          "type": "bool"
        },
        {
          "internalType": "bool",
          "name": "vote",
          "type": "bool"
        }
      ],
      "stateMutability": "view",
      "type": "function"
    },
    {
      "inputs": [],
      "name": "oracle",
      "outputs": [
        {
          "internalType": "contract ExternalOracle",
          "name": "",
          "type": "address"
        }
      ],
      "stateMutability": "view",
      "type": "function"
    },
    {
      "inputs": [
        {
          "internalType": "address",
          "name": "",
          "type": "address"
        }
      ],
      "name": "tokenData",
      "outputs": [
        {
          "internalType": "uint256",
          "name": "value",
          "type": "uint256"
        },
        {
          "internalType": "bool",
          "name": "active",
          "type": "bool"
        }
      ],
      "stateMutability": "view",
      "type": "function"
    },
    {
      "inputs": [],
      "name": "acceptDev",
      "outputs": [],
      "stateMutability": "nonpayable",
      "type": "function"
    },
    {
      "inputs": [],
      "name": "deleteDev",
      "outputs": [],
      "stateMutability": "nonpayable",
      "type": "function"
    },
    {
      "inputs": [],
      "name": "acceptContract",
      "outputs": [],
      "stateMutability": "nonpayable",
      "type": "function"
    },
    {
      "inputs": [],
      "name": "deleteContract",
      "outputs": [],
      "stateMutability": "nonpayable",
      "type": "function"
    },
    {
      "inputs": [],
      "name": "vote",
      "outputs": [],
      "stateMutability": "nonpayable",
      "type": "function"
    },
    {
      "inputs": [
        {
          "internalType": "bool",
          "name": "_bool",
          "type": "bool"
        },
        {
          "internalType": "string",
          "name": "_proposedChange",
          "type": "string"
        }
      ],
      "name": "proposeBoolChange",
      "outputs": [],
      "stateMutability": "nonpayable",
      "type": "function"
    },
    {
      "inputs": [
        {
          "internalType": "uint256",
          "name": "_percent",
          "type": "uint256"
        },
        {
          "internalType": "string",
          "name": "_proposedChange",
          "type": "string"
        }
      ],
      "name": "boolChange",
      "outputs": [
        {
          "internalType": "bool",
          "name": "",
          "type": "bool"
        }
      ],
      "stateMutability": "nonpayable",
      "type": "function"
    },
    {
      "inputs": [
        {
          "internalType": "uint256",
          "name": "_num",
          "type": "uint256"
        },
        {
          "internalType": "string",
          "name": "_proposedChange",
          "type": "string"
        }
      ],
      "name": "proposeNumberChange",
      "outputs": [],
      "stateMutability": "nonpayable",
      "type": "function"
    },
    {
      "inputs": [
        {
          "internalType": "uint256",
          "name": "_percent",
          "type": "uint256"
        },
        {
          "internalType": "string",
          "name": "_proposedChange",
          "type": "string"
        }
      ],
      "name": "numberChange",
      "outputs": [
        {
          "internalType": "uint256",
          "name": "",
          "type": "uint256"
        }
      ],
      "stateMutability": "nonpayable",
      "type": "function"
    },
    {
      "inputs": [
        {
          "internalType": "address",
          "name": "_address",
          "type": "address"
        },
        {
          "internalType": "string",
          "name": "_proposedChange",
          "type": "string"
        }
      ],
      "name": "proposeAddressChange",
      "outputs": [],
      "stateMutability": "nonpayable",
      "type": "function"
    },
    {
      "inputs": [
        {
          "internalType": "uint256",
          "name": "_percent",
          "type": "uint256"
        },
        {
          "internalType": "string",
          "name": "_proposedChange",
          "type": "string"
        }
      ],
      "name": "addressChange",
      "outputs": [
        {
          "internalType": "address",
          "name": "",
          "type": "address"
        }
      ],
      "stateMutability": "nonpayable",
      "type": "function"
    },
    {
      "inputs": [
        {
          "internalType": "uint256",
          "name": "_amountTier",
          "type": "uint256"
        },
        {
          "internalType": "uint256",
          "name": "_timeTier",
          "type": "uint256"
        },
        {
          "internalType": "uint256",
          "name": "_interest",
          "type": "uint256"
        },
        {
          "internalType": "uint256",
          "name": "_amountStakersLeft",
          "type": "uint256"
        },
        {
          "internalType": "uint256",
          "name": "_tierDuration",
          "type": "uint256"
        },
        {
          "internalType": "string",
          "name": "_proposedChange",
          "type": "string"
        }
      ],
      "name": "proposeTierChange",
      "outputs": [],
      "stateMutability": "nonpayable",
      "type": "function"
    },
    {
      "inputs": [
        {
          "internalType": "uint256",
          "name": "_percent",
          "type": "uint256"
        },
        {
          "internalType": "string",
          "name": "_proposedChange",
          "type": "string"
        }
      ],
      "name": "tierChange",
      "outputs": [
        {
          "internalType": "uint256",
          "name": "",
          "type": "uint256"
        },
        {
          "internalType": "uint256",
          "name": "",
          "type": "uint256"
        },
        {
          "internalType": "uint256",
          "name": "",
          "type": "uint256"
        },
        {
          "internalType": "uint256",
          "name": "",
          "type": "uint256"
        },
        {
          "internalType": "uint256",
          "name": "",
          "type": "uint256"
        }
      ],
      "stateMutability": "nonpayable",
      "type": "function"
    },
    {
      "inputs": [
        {
          "internalType": "address",
          "name": "_caller",
          "type": "address"
        }
      ],
      "name": "isDev",
      "outputs": [
        {
          "internalType": "bool",
          "name": "",
          "type": "bool"
        }
      ],
      "stateMutability": "view",
      "type": "function"
    },
    {
      "inputs": [
        {
          "internalType": "uint256",
          "name": "_value",
          "type": "uint256"
        },
        {
          "internalType": "bool",
          "name": "_status",
          "type": "bool"
        },
        {
          "internalType": "address",
          "name": "_tokenAddress",
          "type": "address"
        },
        {
          "internalType": "string",
          "name": "_proposedChange",
          "type": "string"
        }
      ],
      "name": "proposeTokenChange",
      "outputs": [],
      "stateMutability": "nonpayable",
      "type": "function"
    },
    {
      "inputs": [],
      "name": "tokenChange",
      "outputs": [],
      "stateMutability": "nonpayable",
      "type": "function"
    },
    {
      "inputs": [],
      "name": "priceChangeETH",
      "outputs": [],
      "stateMutability": "nonpayable",
      "type": "function"
    },
    {
      "inputs": [],
      "name": "externalOracleChange",
      "outputs": [],
      "stateMutability": "nonpayable",
      "type": "function"
    },
    {
      "inputs": [],
      "name": "changeSupportStatus",
      "outputs": [],
      "stateMutability": "nonpayable",
      "type": "function"
    },
    {
      "inputs": [
        {
          "internalType": "address",
          "name": "_sellTokenAddress",
          "type": "address"
        },
        {
          "internalType": "address",
          "name": "_buyTokenAddress",
          "type": "address"
        }
      ],
      "name": "priceOfPair",
      "outputs": [
        {
          "internalType": "uint256",
          "name": "",
          "type": "uint256"
        },
        {
          "internalType": "uint256",
          "name": "",
          "type": "uint256"
        }
      ],
      "stateMutability": "view",
      "type": "function"
    },
    {
      "inputs": [],
      "name": "priceOfETH",
      "outputs": [
        {
          "internalType": "uint256",
          "name": "",
          "type": "uint256"
        }
      ],
      "stateMutability": "view",
      "type": "function"
    },
    {
      "inputs": [
        {
          "internalType": "address",
          "name": "_tokenAddress",
          "type": "address"
        }
      ],
      "name": "priceOfToken",
      "outputs": [
        {
          "internalType": "uint256",
          "name": "",
          "type": "uint256"
        }
      ],
      "stateMutability": "view",
      "type": "function"
    }
  ],
  "bytecode": "0x60806040523480156200001157600080fd5b506040518060400160405280670de0b6b3a7640000815260200160011515815250600e600073c02aaa39b223fe8d0a0e5c4f27ead9083c756cc273ffffffffffffffffffffffffffffffffffffffff1673ffffffffffffffffffffffffffffffffffffffff1681526020019081526020016000206000820151816000015560208201518160010160006101000a81548160ff02191690831515021790555090505060405180604001604052806528ed6103d000815260200160011515815250600e60007329a99c126596c0dc96b02a88a9eaab44eccf511e73ffffffffffffffffffffffffffffffffffffffff1673ffffffffffffffffffffffffffffffffffffffff1681526020019081526020016000206000820151816000015560208201518160010160006101000a81548160ff0219169083151502179055509050506040518060200160405280737fb9b032cdd38d3945b03aa0d62ab471e4b2e89073ffffffffffffffffffffffffffffffffffffffff1673ffffffffffffffffffffffffffffffffffffffff168152506001906001620001b19291906200024b565b506001600080737fb9b032cdd38d3945b03aa0d62ab471e4b2e89073ffffffffffffffffffffffffffffffffffffffff1673ffffffffffffffffffffffffffffffffffffffff16815260200190815260200160002060000160006101000a81548160ff021916908315150217905550620363a3600c819055506001600d60006101000a81548160ff021916908315150217905550620002f9565b828054828255906000526020600020908101928215620002c7579160200282015b82811115620002c65782518260006101000a81548173ffffffffffffffffffffffffffffffffffffffff021916908373ffffffffffffffffffffffffffffffffffffffff160217905550916020019190600101906200026c565b5b509050620002d69190620002da565b5090565b5b80821115620002f5576000816000905550600101620002db565b5090565b61358880620003096000396000f3fe608060405234801561001057600080fd5b50600436106101c45760003560e01c8063632a9a52116100f9578063b610e77411610097578063d26850e111610071578063d26850e114610c03578063dd118d6614610c0d578063e9b8b02c14610c65578063f3167c0514610cbf576101c4565b8063b610e77414610abd578063b738f88314610b96578063c997afc214610ba0576101c4565b80637e046fa8116100d35780637e046fa814610a6d578063858b033d14610a775780639506c89614610a95578063a62fb9a014610ab3576101c4565b8063632a9a52146109545780637a62f51e1461095e5780637dc0d1d014610a39576101c4565b806335885ac81161016657806345d4671f1161014057806345d4671f146108475780635522d3c2146109365780635a58cd4c14610940578063619d26711461094a576101c4565b806335885ac8146105fc578063388df741146106d75780633a7a2a06146107c8576101c4565b8063151ee3af116101a2578063151ee3af146103d75780631f61a3ef146104cc578063239df389146104d657806327e45c2c1461059b576101c4565b80630c3f64bf146101c95780630caa47c1146102235780630db349bc146102ea575b600080fd5b61020b600480360360208110156101df57600080fd5b81019080803573ffffffffffffffffffffffffffffffffffffffff169060200190929190505050610d17565b60405180821515815260200191505060405180910390f35b6102e86004803603604081101561023957600080fd5b810190808035151590602001909291908035906020019064010000000081111561026257600080fd5b82018360208201111561027457600080fd5b8035906020019184600183028401116401000000008311171561029657600080fd5b91908080601f016020809104026020016040519081016040528093929190818152602001838380828437600081840152601f19601f820116905080830192505050505050509192919290505050610d6f565b005b6103d5600480360360c081101561030057600080fd5b8101908080359060200190929190803590602001909291908035906020019092919080359060200190929190803590602001909291908035906020019064010000000081111561034f57600080fd5b82018360208201111561036157600080fd5b8035906020019184600183028401116401000000008311171561038357600080fd5b91908080601f016020809104026020016040519081016040528093929190818152602001838380828437600081840152601f19601f820116905080830192505050505050509192919290505050610f61565b005b61049a600480360360408110156103ed57600080fd5b81019080803590602001909291908035906020019064010000000081111561041457600080fd5b82018360208201111561042657600080fd5b8035906020019184600183028401116401000000008311171561044857600080fd5b91908080601f016020809104026020016040519081016040528093929190818152602001838380828437600081840152601f19601f820116905080830192505050505050509192919290505050611052565b604051808681526020018581526020018481526020018381526020018281526020019550505050505060405180910390f35b6104d461118f565b005b610599600480360360408110156104ec57600080fd5b81019080803590602001909291908035906020019064010000000081111561051357600080fd5b82018360208201111561052557600080fd5b8035906020019184600183028401116401000000008311171561054757600080fd5b91908080601f016020809104026020016040519081016040528093929190818152602001838380828437600081840152601f19601f820116905080830192505050505050509192919290505050611342565b005b6105dd600480360360208110156105b157600080fd5b81019080803573ffffffffffffffffffffffffffffffffffffffff169060200190929190505050611521565b6040518083815260200182151581526020019250505060405180910390f35b6106d56004803603604081101561061257600080fd5b81019080803573ffffffffffffffffffffffffffffffffffffffff1690602001909291908035906020019064010000000081111561064f57600080fd5b82018360208201111561066157600080fd5b8035906020019184600183028401116401000000008311171561068357600080fd5b91908080601f016020809104026020016040519081016040528093929190818152602001838380828437600081840152601f19601f820116905080830192505050505050509192919290505050611552565b005b6107c6600480360360808110156106ed57600080fd5b8101908080359060200190929190803515159060200190929190803573ffffffffffffffffffffffffffffffffffffffff1690602001909291908035906020019064010000000081111561074057600080fd5b82018360208201111561075257600080fd5b8035906020019184600183028401116401000000008311171561077457600080fd5b91908080601f016020809104026020016040519081016040528093929190818152602001838380828437600081840152601f19601f82011690508083019250505050505050919291929050505061176b565b005b61082a600480360360408110156107de57600080fd5b81019080803573ffffffffffffffffffffffffffffffffffffffff169060200190929190803573ffffffffffffffffffffffffffffffffffffffff1690602001909291905050506119a7565b604051808381526020018281526020019250505060405180910390f35b61090a6004803603604081101561085d57600080fd5b81019080803590602001909291908035906020019064010000000081111561088457600080fd5b82018360208201111561089657600080fd5b803590602001918460018302840111640100000000831117156108b857600080fd5b91908080601f016020809104026020016040519081016040528093929190818152602001838380828437600081840152601f19601f820116905080830192505050505050509192919290505050611c88565b604051808273ffffffffffffffffffffffffffffffffffffffff16815260200191505060405180910390f35b61093e611dc7565b005b610948611fcd565b005b610952612197565b005b61095c612361565b005b610a216004803603604081101561097457600080fd5b81019080803590602001909291908035906020019064010000000081111561099b57600080fd5b8201836020820111156109ad57600080fd5b803590602001918460018302840111640100000000831117156109cf57600080fd5b91908080601f016020809104026020016040519081016040528093929190818152602001838380828437600081840152601f19601f8201169050808301925050505050505091929192905050506124cb565b60405180821515815260200191505060405180910390f35b610a416125f7565b604051808273ffffffffffffffffffffffffffffffffffffffff16815260200191505060405180910390f35b610a7561261d565b005b610a7f61282f565b6040518082815260200191505060405180910390f35b610a9d6128f9565b6040518082815260200191505060405180910390f35b610abb6128ff565b005b610b8060048036036040811015610ad357600080fd5b810190808035906020019092919080359060200190640100000000811115610afa57600080fd5b820183602082011115610b0c57600080fd5b80359060200191846001830284011164010000000083111715610b2e57600080fd5b91908080601f016020809104026020016040519081016040528093929190818152602001838380828437600081840152601f19601f820116905080830192505050505050509192919290505050612a78565b6040518082815260200191505060405180910390f35b610b9e612b97565b005b610be260048036036020811015610bb657600080fd5b81019080803573ffffffffffffffffffffffffffffffffffffffff169060200190929190505050612d46565b60405180831515815260200182151581526020019250505060405180910390f35b610c0b612d84565b005b610c3960048036036020811015610c2357600080fd5b8101908080359060200190929190505050612edd565b604051808273ffffffffffffffffffffffffffffffffffffffff16815260200191505060405180910390f35b610ca760048036036020811015610c7b57600080fd5b81019080803573ffffffffffffffffffffffffffffffffffffffff169060200190929190505050612f1c565b60405180821515815260200191505060405180910390f35b610d0160048036036020811015610cd557600080fd5b81019080803573ffffffffffffffffffffffffffffffffffffffff169060200190929190505050612f3c565b6040518082815260200191505060405180910390f35b60008060008373ffffffffffffffffffffffffffffffffffffffff1673ffffffffffffffffffffffffffffffffffffffff16815260200190815260200160002060000160009054906101000a900460ff169050919050565b600080600090505b600180549050811015610e015760018181548110610d9157fe5b9060005260206000200160009054906101000a900473ffffffffffffffffffffffffffffffffffffffff1673ffffffffffffffffffffffffffffffffffffffff163373ffffffffffffffffffffffffffffffffffffffff161415610df457600191505b8080600101915050610d77565b506001151581151514610e7c576040517f08c379a00000000000000000000000000000000000000000000000000000000081526004018080602001828103825260188152602001807f43616c6c6572206e6565647320746f206265206120646576000000000000000081525060200191505060405180910390fd5b60005b600180549050811015610f2a57600080600060018481548110610e9e57fe5b9060005260206000200160009054906101000a900473ffffffffffffffffffffffffffffffffffffffff1673ffffffffffffffffffffffffffffffffffffffff1673ffffffffffffffffffffffffffffffffffffffff16815260200190815260200160002060000160016101000a81548160ff0219169083151502179055508080600101915050610e7f565b5082600b60006101000a81548160ff0219169083151502179055508160049080519060200190610f5b929190613479565b50505050565b60005b60018054905081101561100f57600080600060018481548110610f8357fe5b9060005260206000200160009054906101000a900473ffffffffffffffffffffffffffffffffffffffff1673ffffffffffffffffffffffffffffffffffffffff1673ffffffffffffffffffffffffffffffffffffffff16815260200190815260200160002060000160016101000a81548160ff0219169083151502179055508080600101915050610f64565b5085600581905550846006819055508360078190555082600881905550816009819055508060049080519060200190611049929190613479565b50505050505050565b60008060008060008060011515600260003373ffffffffffffffffffffffffffffffffffffffff1673ffffffffffffffffffffffffffffffffffffffff16815260200190815260200160002060009054906101000a900460ff161515148061110c5750600115156000803373ffffffffffffffffffffffffffffffffffffffff1673ffffffffffffffffffffffffffffffffffffffff16815260200190815260200160002060000160009054906101000a900460ff161515145b611161576040517f08c379a000000000000000000000000000000000000000000000000000000000815260040180806020018281038252602e815260200180613525602e913960400191505060405180910390fd5b61116b88886130a9565b60055460065460075460085460095495509550955095509550509295509295909350565b600080600090505b60018054905081101561122157600181815481106111b157fe5b9060005260206000200160009054906101000a900473ffffffffffffffffffffffffffffffffffffffff1673ffffffffffffffffffffffffffffffffffffffff163373ffffffffffffffffffffffffffffffffffffffff16141561121457600191505b8080600101915050611197565b50600115158115151461129c576040517f08c379a00000000000000000000000000000000000000000000000000000000081526004018080602001828103825260188152602001807f43616c6c6572206e6565647320746f206265206120646576000000000000000081525060200191505060405180910390fd5b6112dc60336040518060400160405280601481526020017f65787465726e616c4f7261636c654368616e67650000000000000000000000008152506130a9565b600360009054906101000a900473ffffffffffffffffffffffffffffffffffffffff16600b60016101000a81548173ffffffffffffffffffffffffffffffffffffffff021916908373ffffffffffffffffffffffffffffffffffffffff16021790555050565b600080600090505b6001805490508110156113d4576001818154811061136457fe5b9060005260206000200160009054906101000a900473ffffffffffffffffffffffffffffffffffffffff1673ffffffffffffffffffffffffffffffffffffffff163373ffffffffffffffffffffffffffffffffffffffff1614156113c757600191505b808060010191505061134a565b50600115158115151461144f576040517f08c379a00000000000000000000000000000000000000000000000000000000081526004018080602001828103825260188152602001807f43616c6c6572206e6565647320746f206265206120646576000000000000000081525060200191505060405180910390fd5b60005b6001805490508110156114fd5760008060006001848154811061147157fe5b9060005260206000200160009054906101000a900473ffffffffffffffffffffffffffffffffffffffff1673ffffffffffffffffffffffffffffffffffffffff1673ffffffffffffffffffffffffffffffffffffffff16815260200190815260200160002060000160016101000a81548160ff0219169083151502179055508080600101915050611452565b5082600581905550816004908051906020019061151b929190613479565b50505050565b600e6020528060005260406000206000915090508060000154908060010160009054906101000a900460ff16905082565b600080600090505b6001805490508110156115e4576001818154811061157457fe5b9060005260206000200160009054906101000a900473ffffffffffffffffffffffffffffffffffffffff1673ffffffffffffffffffffffffffffffffffffffff163373ffffffffffffffffffffffffffffffffffffffff1614156115d757600191505b808060010191505061155a565b50600115158115151461165f576040517f08c379a00000000000000000000000000000000000000000000000000000000081526004018080602001828103825260188152602001807f43616c6c6572206e6565647320746f206265206120646576000000000000000081525060200191505060405180910390fd5b60005b60018054905081101561170d5760008060006001848154811061168157fe5b9060005260206000200160009054906101000a900473ffffffffffffffffffffffffffffffffffffffff1673ffffffffffffffffffffffffffffffffffffffff1673ffffffffffffffffffffffffffffffffffffffff16815260200190815260200160002060000160016101000a81548160ff0219169083151502179055508080600101915050611662565b5082600360006101000a81548173ffffffffffffffffffffffffffffffffffffffff021916908373ffffffffffffffffffffffffffffffffffffffff1602179055508160049080519060200190611765929190613479565b50505050565b600080600090505b6001805490508110156117fd576001818154811061178d57fe5b9060005260206000200160009054906101000a900473ffffffffffffffffffffffffffffffffffffffff1673ffffffffffffffffffffffffffffffffffffffff163373ffffffffffffffffffffffffffffffffffffffff1614156117f057600191505b8080600101915050611773565b506001151581151514611878576040517f08c379a00000000000000000000000000000000000000000000000000000000081526004018080602001828103825260188152602001807f43616c6c6572206e6565647320746f206265206120646576000000000000000081525060200191505060405180910390fd5b60005b6001805490508110156119265760008060006001848154811061189a57fe5b9060005260206000200160009054906101000a900473ffffffffffffffffffffffffffffffffffffffff1673ffffffffffffffffffffffffffffffffffffffff1673ffffffffffffffffffffffffffffffffffffffff16815260200190815260200160002060000160016101000a81548160ff021916908315150217905550808060010191505061187b565b508460058190555083600b60006101000a81548160ff02191690831515021790555082600360006101000a81548173ffffffffffffffffffffffffffffffffffffffff021916908373ffffffffffffffffffffffffffffffffffffffff160217905550816004908051906020019061199f929190613479565b505050505050565b600080600080600e60008773ffffffffffffffffffffffffffffffffffffffff1673ffffffffffffffffffffffffffffffffffffffff16815260200190815260200160002060010160009054906101000a900460ff1615611a4c57600e60008773ffffffffffffffffffffffffffffffffffffffff1673ffffffffffffffffffffffffffffffffffffffff168152602001908152602001600020600001549150611b13565b600b60019054906101000a900473ffffffffffffffffffffffffffffffffffffffff1673ffffffffffffffffffffffffffffffffffffffff1663729f20c7876040518263ffffffff1660e01b8152600401808273ffffffffffffffffffffffffffffffffffffffff16815260200191505060206040518083038186803b158015611ad557600080fd5b505afa158015611ae9573d6000803e3d6000fd5b505050506040513d6020811015611aff57600080fd5b810190808051906020019092919050505091505b600e60008673ffffffffffffffffffffffffffffffffffffffff1673ffffffffffffffffffffffffffffffffffffffff16815260200190815260200160002060010160009054906101000a900460ff1615611bb257600e60008673ffffffffffffffffffffffffffffffffffffffff1673ffffffffffffffffffffffffffffffffffffffff168152602001908152602001600020600001549050611c79565b600b60019054906101000a900473ffffffffffffffffffffffffffffffffffffffff1673ffffffffffffffffffffffffffffffffffffffff1663729f20c7866040518263ffffffff1660e01b8152600401808273ffffffffffffffffffffffffffffffffffffffff16815260200191505060206040518083038186803b158015611c3b57600080fd5b505afa158015611c4f573d6000803e3d6000fd5b505050506040513d6020811015611c6557600080fd5b810190808051906020019092919050505090505b81819350935050509250929050565b60008060011515600260003373ffffffffffffffffffffffffffffffffffffffff1673ffffffffffffffffffffffffffffffffffffffff16815260200190815260200160002060009054906101000a900460ff1615151480611d3c5750600115156000803373ffffffffffffffffffffffffffffffffffffffff1673ffffffffffffffffffffffffffffffffffffffff16815260200190815260200160002060000160009054906101000a900460ff161515145b611d91576040517f08c379a000000000000000000000000000000000000000000000000000000000815260040180806020018281038252602e815260200180613525602e913960400191505060405180910390fd5b611d9b84846130a9565b600360009054906101000a900473ffffffffffffffffffffffffffffffffffffffff1691505092915050565b600080600090505b600180549050811015611e595760018181548110611de957fe5b9060005260206000200160009054906101000a900473ffffffffffffffffffffffffffffffffffffffff1673ffffffffffffffffffffffffffffffffffffffff163373ffffffffffffffffffffffffffffffffffffffff161415611e4c57600191505b8080600101915050611dcf565b506001151581151514611ed4576040517f08c379a00000000000000000000000000000000000000000000000000000000081526004018080602001828103825260188152602001807f43616c6c6572206e6565647320746f206265206120646576000000000000000081525060200191505060405180910390fd5b611f1460336040518060400160405280600b81526020017f746f6b656e4368616e67650000000000000000000000000000000000000000008152506130a9565b60405180604001604052806005548152602001600b60009054906101000a900460ff161515815250600e6000600360009054906101000a900473ffffffffffffffffffffffffffffffffffffffff1673ffffffffffffffffffffffffffffffffffffffff1673ffffffffffffffffffffffffffffffffffffffff1681526020019081526020016000206000820151816000015560208201518160010160006101000a81548160ff02191690831515021790555090505050565b600080600090505b60018054905081101561205f5760018181548110611fef57fe5b9060005260206000200160009054906101000a900473ffffffffffffffffffffffffffffffffffffffff1673ffffffffffffffffffffffffffffffffffffffff163373ffffffffffffffffffffffffffffffffffffffff16141561205257600191505b8080600101915050611fd5565b5060011515811515146120da576040517f08c379a00000000000000000000000000000000000000000000000000000000081526004018080602001828103825260188152602001807f43616c6c6572206e6565647320746f206265206120646576000000000000000081525060200191505060405180910390fd5b61211a60506040518060400160405280600e81526020017f64656c657465436f6e74726163740000000000000000000000000000000000008152506130a9565b600060026000600360009054906101000a900473ffffffffffffffffffffffffffffffffffffffff1673ffffffffffffffffffffffffffffffffffffffff1673ffffffffffffffffffffffffffffffffffffffff16815260200190815260200160002060006101000a81548160ff02191690831515021790555050565b600080600090505b60018054905081101561222957600181815481106121b957fe5b9060005260206000200160009054906101000a900473ffffffffffffffffffffffffffffffffffffffff1673ffffffffffffffffffffffffffffffffffffffff163373ffffffffffffffffffffffffffffffffffffffff16141561221c57600191505b808060010191505061219f565b5060011515811515146122a4576040517f08c379a00000000000000000000000000000000000000000000000000000000081526004018080602001828103825260188152602001807f43616c6c6572206e6565647320746f206265206120646576000000000000000081525060200191505060405180910390fd5b6122e460506040518060400160405280600e81526020017f616363657074436f6e74726163740000000000000000000000000000000000008152506130a9565b600160026000600360009054906101000a900473ffffffffffffffffffffffffffffffffffffffff1673ffffffffffffffffffffffffffffffffffffffff1673ffffffffffffffffffffffffffffffffffffffff16815260200190815260200160002060006101000a81548160ff02191690831515021790555050565b600080600090505b6001805490508110156123f3576001818154811061238357fe5b9060005260206000200160009054906101000a900473ffffffffffffffffffffffffffffffffffffffff1673ffffffffffffffffffffffffffffffffffffffff163373ffffffffffffffffffffffffffffffffffffffff1614156123e657600191505b8080600101915050612369565b50600115158115151461246e576040517f08c379a00000000000000000000000000000000000000000000000000000000081526004018080602001828103825260188152602001807f43616c6c6572206e6565647320746f206265206120646576000000000000000081525060200191505060405180910390fd5b60016000803373ffffffffffffffffffffffffffffffffffffffff1673ffffffffffffffffffffffffffffffffffffffff16815260200190815260200160002060000160016101000a81548160ff02191690831515021790555050565b60008060011515600260003373ffffffffffffffffffffffffffffffffffffffff1673ffffffffffffffffffffffffffffffffffffffff16815260200190815260200160002060009054906101000a900460ff161515148061257f5750600115156000803373ffffffffffffffffffffffffffffffffffffffff1673ffffffffffffffffffffffffffffffffffffffff16815260200190815260200160002060000160009054906101000a900460ff161515145b6125d4576040517f08c379a000000000000000000000000000000000000000000000000000000000815260040180806020018281038252602e815260200180613525602e913960400191505060405180910390fd5b6125de84846130a9565b600b60009054906101000a900460ff1691505092915050565b600b60019054906101000a900473ffffffffffffffffffffffffffffffffffffffff1681565b600080600090505b6001805490508110156126af576001818154811061263f57fe5b9060005260206000200160009054906101000a900473ffffffffffffffffffffffffffffffffffffffff1673ffffffffffffffffffffffffffffffffffffffff163373ffffffffffffffffffffffffffffffffffffffff1614156126a257600191505b8080600101915050612625565b50600115158115151461272a576040517f08c379a00000000000000000000000000000000000000000000000000000000081526004018080602001828103825260188152602001807f43616c6c6572206e6565647320746f206265206120646576000000000000000081525060200191505060405180910390fd5b600061276c60506040518060400160405280600981526020017f6163636570744465760000000000000000000000000000000000000000000000815250611c88565b90506001819080600181540180825580915050600190039060005260206000200160009091909190916101000a81548173ffffffffffffffffffffffffffffffffffffffff021916908373ffffffffffffffffffffffffffffffffffffffff16021790555060016000808373ffffffffffffffffffffffffffffffffffffffff1673ffffffffffffffffffffffffffffffffffffffff16815260200190815260200160002060000160006101000a81548160ff0219169083151502179055505050565b6000600d60009054906101000a900460ff161561285057600c5490506128f6565b600b60019054906101000a900473ffffffffffffffffffffffffffffffffffffffff1673ffffffffffffffffffffffffffffffffffffffff1663039ba6be6040518163ffffffff1660e01b815260040160206040518083038186803b1580156128b857600080fd5b505afa1580156128cc573d6000803e3d6000fd5b505050506040513d60208110156128e257600080fd5b810190808051906020019092919050505090505b90565b600c5481565b600080600090505b600180549050811015612991576001818154811061292157fe5b9060005260206000200160009054906101000a900473ffffffffffffffffffffffffffffffffffffffff1673ffffffffffffffffffffffffffffffffffffffff163373ffffffffffffffffffffffffffffffffffffffff16141561298457600191505b8080600101915050612907565b506001151581151514612a0c576040517f08c379a00000000000000000000000000000000000000000000000000000000081526004018080602001828103825260188152602001807f43616c6c6572206e6565647320746f206265206120646576000000000000000081525060200191505060405180910390fd5b612a4c60336040518060400160405280601381526020017f6368616e6765537570706f7274537461747573000000000000000000000000008152506130a9565b600b60009054906101000a900460ff16600d60006101000a81548160ff02191690831515021790555050565b60008060011515600260003373ffffffffffffffffffffffffffffffffffffffff1673ffffffffffffffffffffffffffffffffffffffff16815260200190815260200160002060009054906101000a900460ff1615151480612b2c5750600115156000803373ffffffffffffffffffffffffffffffffffffffff1673ffffffffffffffffffffffffffffffffffffffff16815260200190815260200160002060000160009054906101000a900460ff161515145b612b81576040517f08c379a000000000000000000000000000000000000000000000000000000000815260040180806020018281038252602e815260200180613525602e913960400191505060405180910390fd5b612b8b84846130a9565b60055491505092915050565b600080600090505b600180549050811015612c295760018181548110612bb957fe5b9060005260206000200160009054906101000a900473ffffffffffffffffffffffffffffffffffffffff1673ffffffffffffffffffffffffffffffffffffffff163373ffffffffffffffffffffffffffffffffffffffff161415612c1c57600191505b8080600101915050612b9f565b506001151581151514612ca4576040517f08c379a00000000000000000000000000000000000000000000000000000000081526004018080602001828103825260188152602001807f43616c6c6572206e6565647320746f206265206120646576000000000000000081525060200191505060405180910390fd5b6000612ce660506040518060400160405280600981526020017f64656c6574654465760000000000000000000000000000000000000000000000815250611c88565b905060008060008373ffffffffffffffffffffffffffffffffffffffff1673ffffffffffffffffffffffffffffffffffffffff16815260200190815260200160002060000160006101000a81548160ff0219169083151502179055505050565b60006020528060005260406000206000915090508060000160009054906101000a900460ff16908060000160019054906101000a900460ff16905082565b600080600090505b600180549050811015612e165760018181548110612da657fe5b9060005260206000200160009054906101000a900473ffffffffffffffffffffffffffffffffffffffff1673ffffffffffffffffffffffffffffffffffffffff163373ffffffffffffffffffffffffffffffffffffffff161415612e0957600191505b8080600101915050612d8c565b506001151581151514612e91576040517f08c379a00000000000000000000000000000000000000000000000000000000081526004018080602001828103825260188152602001807f43616c6c6572206e6565647320746f206265206120646576000000000000000081525060200191505060405180910390fd5b612ed160336040518060400160405280600e81526020017f70726963654368616e67654554480000000000000000000000000000000000008152506130a9565b600554600c8190555050565b60018181548110612eed57600080fd5b906000526020600020016000915054906101000a900473ffffffffffffffffffffffffffffffffffffffff1681565b60026020528060005260406000206000915054906101000a900460ff1681565b6000600e60008373ffffffffffffffffffffffffffffffffffffffff1673ffffffffffffffffffffffffffffffffffffffff16815260200190815260200160002060010160009054906101000a900460ff1615612fdd57600e60008373ffffffffffffffffffffffffffffffffffffffff1673ffffffffffffffffffffffffffffffffffffffff1681526020019081526020016000206000015490506130a4565b600b60019054906101000a900473ffffffffffffffffffffffffffffffffffffffff1673ffffffffffffffffffffffffffffffffffffffff1663729f20c7836040518263ffffffff1660e01b8152600401808273ffffffffffffffffffffffffffffffffffffffff16815260200191505060206040518083038186803b15801561306657600080fd5b505afa15801561307a573d6000803e3d6000fd5b505050506040513d602081101561309057600080fd5b810190808051906020019092919050505090505b919050565b600080600080600090505b6001805490508110156132995760011515600080600184815481106130d557fe5b9060005260206000200160009054906101000a900473ffffffffffffffffffffffffffffffffffffffff1673ffffffffffffffffffffffffffffffffffffffff1673ffffffffffffffffffffffffffffffffffffffff16815260200190815260200160002060000160019054906101000a900460ff1615151480156131e35750600115156000806001848154811061316957fe5b9060005260206000200160009054906101000a900473ffffffffffffffffffffffffffffffffffffffff1673ffffffffffffffffffffffffffffffffffffffff1673ffffffffffffffffffffffffffffffffffffffff16815260200190815260200160002060000160009054906101000a900460ff161515145b156131f15783806001019450505b600115156000806001848154811061320557fe5b9060005260206000200160009054906101000a900473ffffffffffffffffffffffffffffffffffffffff1673ffffffffffffffffffffffffffffffffffffffff1673ffffffffffffffffffffffffffffffffffffffff16815260200190815260200160002060000160009054906101000a900460ff161515141561328c5782806001019350505b80806001019150506130b4565b506132a683606484613462565b9050848110156132b557600080fd5b836040516020018082805190602001908083835b602083106132ec57805182526020820191506020810190506020830392506132c9565b6001836020036101000a03801982511681845116808217855250505050505090500191505060405160208183030381529060405280519060200120600460405160200180828054600181600116156101000203166002900480156133875780601f10613365576101008083540402835291820191613387565b820191906000526020600020905b815481529060010190602001808311613373575b505091505060405160208183030381529060405280519060200120146133ac57600080fd5b60005b60018054905081101561345a576000806000600184815481106133ce57fe5b9060005260206000200160009054906101000a900473ffffffffffffffffffffffffffffffffffffffff1673ffffffffffffffffffffffffffffffffffffffff1673ffffffffffffffffffffffffffffffffffffffff16815260200190815260200160002060000160016101000a81548160ff02191690831515021790555080806001019150506133af565b505050505050565b6000818385028161346f57fe5b0490509392505050565b828054600181600116156101000203166002900490600052602060002090601f0160209004810192826134af57600085556134f6565b82601f106134c857805160ff19168380011785556134f6565b828001600101855582156134f6579182015b828111156134f55782518255916020019190600101906134da565b5b5090506135039190613507565b5090565b5b80821115613520576000816000905550600101613508565b509056fe5468697320636f6e74726163742063616e7420696e746572616374207769746820746865206465762070616e656ca26469706673582212203707192305ab25f3f4666270966b0ced2339fc6fd12ffca74108aa6efa88ce0964736f6c63430007060033",
  "immutableReferences": {},
  "source": "// SPDX-License-Identifier: MIT\npragma solidity >=0.4.22 <0.9.0;\n\nimport \"./interfaces/Ownable.sol\";\nimport \"./interfaces/SafeMath.sol\";\nimport \"./ExternalOracle.sol\";\n\ncontract ExchangeOracle {\n    // **************************************** DEV VOTE ***************************************\n    /**\n     * @dev Struct saves information on dev's current vote and status. False denotes that dev\n     * wont be included in total tally for votes and vote wont count towards any change\n     * @notice Activating a dev's status can only occur under dev vote\n     */\n    struct Dev {\n        bool active;\n        bool vote;\n    }\n    /**\n     * @dev Mapping key value address (developer) returns Dev struct information for dev\n     */\n    mapping(address => Dev) public devBook;\n\n    /**\n     * @dev Array used to access the address of all developers on Cobalt\n     */\n    address[] public devArray;\n\n    /**\n     * @dev Mapping key value address (Contract address) returns a bool on contract entry\n     * status. True - valid entry, False - not permitted.\n     */\n    mapping(address => bool) public contractSupported;\n\n    /**\n     * @dev List all variables proposed for changes.\n     */\n    address addressProposed;\n    string proposedChange;\n    uint256 intProposed;\n    uint256 intProposed2;\n    uint256 intProposed3;\n    uint256 intProposed4;\n    uint256 intProposed5;\n    uint256 intProposed6;\n    bool boolProposed;\n\n    /**\n     * @dev Modifier limits the entry of contracts interacting with the dev panel.\n     */\n    modifier validEntry {\n        bool cleared;\n        require(\n            contractSupported[msg.sender] == true ||\n                devBook[msg.sender].active == true,\n            \"This contract cant interact with the dev panel\"\n        );\n        _;\n    }\n\n    /**\n     * @dev Modifier limits the entry of user addresses interacting with the dev panel.\n     */\n    modifier onlyDev {\n        bool cleared;\n\n        for (uint256 i = 0; i < devArray.length; i++) {\n            if (msg.sender == devArray[i]) {\n                cleared = true;\n            }\n        }\n\n        require(cleared == true, \"Caller needs to be a dev\");\n        _;\n    }\n\n    /**\n     * @dev Function takes a set percentage and string set by the contract making the call\n     * with information on percentage needed for change to occur and string of the calling\n     * function. Reverts if percentage is not met or calling function was does not coincide\n     * with the one agreed for the change.\n     * @param _percentage percent needed for change to be approved.\n     * @param _callingFunctionChange string of asking for clearance\n     * @notice On successful run, function also resets all dev votes to false\n     */\n    function clearedAction(\n        uint256 _percentage,\n        string memory _callingFunctionChange\n    ) internal {\n        uint256 votes;\n        uint256 totalVotes;\n        uint256 votePercentage;\n\n        for (uint256 i = 0; i < devArray.length; i++) {\n            if (\n                devBook[devArray[i]].vote == true &&\n                devBook[devArray[i]].active == true\n            ) {\n                votes++;\n            }\n            if (devBook[devArray[i]].active == true) {\n                totalVotes++;\n            }\n        }\n\n        votePercentage = SafeMath.multiply(votes, 100, totalVotes);\n        require(votePercentage >= _percentage);\n        require(\n            keccak256(abi.encodePacked(proposedChange)) ==\n                keccak256(abi.encodePacked(_callingFunctionChange))\n        );\n\n        for (uint256 i = 0; i < devArray.length; i++) {\n            devBook[devArray[i]].vote = false;\n        }\n    }\n\n    /**\n     * @dev Function accepts a proposed address for a new dev addition. This dev gets added\n     * to the dev array as well as turned as active as default.\n     */\n    function acceptDev() public onlyDev {\n        address newDev = addressChange(80, \"acceptDev\");\n        devArray.push(newDev);\n        devBook[newDev].active = true;\n    }\n\n    /**\n     * @dev Function deactivates the active status for a developer.\n     */\n    function deleteDev() public onlyDev {\n        address status = addressChange(80, \"deleteDev\");\n        devBook[status].active = false;\n    }\n\n    /**\n     * @dev Function activates a new contract address as entry point.\n     */\n    function acceptContract() public onlyDev {\n        clearedAction(80, \"acceptContract\");\n        contractSupported[addressProposed] = true;\n    }\n\n    /**\n     * @dev Function deactivates an existing contract address as entry point.\n     */\n    function deleteContract() public onlyDev {\n        clearedAction(80, \"deleteContract\");\n        contractSupported[addressProposed] = false;\n    }\n\n    /**\n     * @dev Function stores the dev's vote for the current proposed change.\n     * @notice We dont limit vote to only active devs as their votes dont get added\n     * to the total tally during clearedAction function.\n     */\n    function vote() public onlyDev {\n        devBook[msg.sender].vote = true;\n    }\n\n    /**\n     * @dev Resets all the dev contract votes to false and takes a parameter bool as\n     * the new proposed change. The string of the function accepting this change must also\n     * be parsed in.\n     * @param _bool proposed change on function output\n     * @param _proposedChange string cointaining information on permitted function accessing\n     * the boolChange function.\n     */\n    function proposeBoolChange(bool _bool, string memory _proposedChange)\n        public\n        onlyDev\n    {\n        for (uint256 i = 0; i < devArray.length; i++) {\n            devBook[devArray[i]].vote = false;\n        }\n        boolProposed = _bool;\n        proposedChange = _proposedChange;\n    }\n\n    /**\n     * @dev Function outputs the current bool proposed as function output to a valid\n     * entry contract. The contract will also specify its own name to limit changes\n     * on other functions and increase security.\n     * @param _percent percent needed for change to be approved.\n     * @param _proposedChange string of the calling function.\n     * @return new bool value proposed\n     */\n    function boolChange(uint256 _percent, string memory _proposedChange)\n        public\n        validEntry\n        returns (bool)\n    {\n        clearedAction(_percent, _proposedChange);\n\n        return (boolProposed);\n    }\n\n    /**\n     * @dev Resets all the dev contract votes to false and takes a parameter uint as\n     * the new proposed change. The string of the function accepting this change must also\n     * be parsed in.\n     * @param _num proposed change on function output\n     * @param _proposedChange string cointaining information on permitted function accessing\n     * the numChange function.\n     */\n    function proposeNumberChange(uint256 _num, string memory _proposedChange)\n        public\n        onlyDev\n    {\n        for (uint256 i = 0; i < devArray.length; i++) {\n            devBook[devArray[i]].vote = false;\n        }\n        intProposed = _num;\n        proposedChange = _proposedChange;\n    }\n\n    /**\n     * @dev Function outputs the current uint proposed as function output to a valid\n     * entry contract. The contract will also specify its own name to limit changes\n     * on other functions and increase security.\n     * @param _percent percent needed for change to be approved.\n     * @param _proposedChange string of the calling function.\n     * @return new uint value proposed\n     */\n    function numberChange(uint256 _percent, string memory _proposedChange)\n        public\n        validEntry\n        returns (uint256)\n    {\n        clearedAction(_percent, _proposedChange);\n\n        return (intProposed);\n    }\n\n    /**\n     * @dev Resets all the dev contract votes to false and takes a parameter address as\n     * the new proposed change. The string of the function accepting this change must also\n     * be parsed in.\n     * @param _address proposed change on function output\n     * @param _proposedChange string cointaining information on permitted function accessing\n     * the addressChange function.\n     */\n    function proposeAddressChange(\n        address _address,\n        string memory _proposedChange\n    ) public onlyDev {\n        for (uint256 i = 0; i < devArray.length; i++) {\n            devBook[devArray[i]].vote = false;\n        }\n\n        addressProposed = _address;\n        proposedChange = _proposedChange;\n    }\n\n    /**\n     * @dev Function outputs the current address proposed as function output to a valid\n     * entry contract. The contract will also specify its own name to limit changes\n     * on other functions and increase security.\n     * @param _percent percent needed for change to be approved.\n     * @param _proposedChange string of the calling function.\n     * @return new address value proposed\n     */\n    function addressChange(uint256 _percent, string memory _proposedChange)\n        public\n        validEntry\n        returns (address)\n    {\n        clearedAction(_percent, _proposedChange);\n\n        return addressProposed;\n    }\n\n    /**\n     * @dev Resets all the dev contract votes to false and takes multiple params as\n     * the new tier proposed. The string of the function accepting this change must also\n     * be parsed in.\n     */\n    function proposeTierChange(\n        uint256 _amountTier,\n        uint256 _timeTier,\n        uint256 _interest,\n        uint256 _amountStakersLeft,\n        uint256 _tierDuration,\n        string memory _proposedChange\n    ) public {\n        for (uint256 i = 0; i < devArray.length; i++) {\n            devBook[devArray[i]].vote = false;\n        }\n        intProposed = _amountTier;\n        intProposed2 = _timeTier;\n        intProposed3 = _interest;\n        intProposed4 = _amountStakersLeft;\n        intProposed5 = _tierDuration;\n\n        proposedChange = _proposedChange;\n    }\n\n    /**\n     * @dev Function outputs the current selection proposed as function output to a valid\n     * entry contract. The contract will also specify its own name to limit changes\n     * on other functions and increase security.\n     */\n    function tierChange(uint256 _percent, string memory _proposedChange)\n        public\n        validEntry\n        returns (\n            uint256,\n            uint256,\n            uint256,\n            uint256,\n            uint256\n        )\n    {\n        clearedAction(_percent, _proposedChange);\n\n        return (\n            intProposed,\n            intProposed2,\n            intProposed3,\n            intProposed4,\n            intProposed5\n        );\n    }\n\n    function isDev(address _caller) public view returns (bool) {\n        return devBook[_caller].active;\n    }\n\n    /**\n     * @dev Resets all the dev contract votes to false and takes a parameter value, status and\n     * address of the token. The string of the function accepting this change must also\n     * be parsed in.\n     * @param  _value new proposed value for token\n     * @param  _status new status of token support\n     * @param  _tokenAddress address of token being updated\n     * @param _proposedChange string cointaining information on permitted function accessing\n     * the boolChange function.\n     */\n    function proposeTokenChange(\n        uint256 _value,\n        bool _status,\n        address _tokenAddress,\n        string memory _proposedChange\n    ) public onlyDev {\n        for (uint256 i = 0; i < devArray.length; i++) {\n            devBook[devArray[i]].vote = false;\n        }\n        intProposed = _value;\n        boolProposed = _status;\n        addressProposed = _tokenAddress;\n        proposedChange = _proposedChange;\n    }\n\n    /**\n     * @dev Function takes proposed variable values to update token information.\n     */\n    function tokenChange() public onlyDev {\n        clearedAction(51, \"tokenChange\");\n        tokenData[addressProposed] = Token(intProposed, boolProposed);\n    }\n\n    /**\n     * @dev Function takes a proposed uint value to update ether current price in USD.\n     */\n    function priceChangeETH() public onlyDev {\n        clearedAction(51, \"priceChangeETH\");\n        USDpriceETH = intProposed;\n    }\n\n    /**\n     * @dev Function takes a proposed address value to update the external oracle.\n     */\n    function externalOracleChange() public onlyDev {\n        clearedAction(51, \"externalOracleChange\");\n        oracle = ExternalOracle(addressProposed);\n    }\n\n    constructor() {\n        tokenData[0xC02aaA39b223FE8D0A0e5C4F27eAD9083C756Cc2] = Token(\n            1000000000000000000,\n            true\n        );\n        // rinkeby weth address to work with uniswap\n        tokenData[0x29a99c126596c0Dc96b02A88a9EAab44EcCf511e] = Token(\n            45000000000000,\n            true\n        );\n\n        devArray = [0x7fB9B032CDd38D3945B03aa0d62AB471E4b2E890];\n\n        devBook[0x7fB9B032CDd38D3945B03aa0d62AB471E4b2E890].active = true;\n        USDpriceETH = 222115;\n        supportETHtoUSD = true;\n    }\n\n    // ******************************** Token Data **********************************\n    /**\n     * @dev Struct saves information token data. Value field contains data on token\n     * value relative to ether. Active field displays current support for token.\n     * @notice Unsupported tokens use an external oracle to output relative value of eth\n     * from other sources.\n     */\n    struct Token {\n        uint256 value;\n        bool active;\n    }\n\n    /**\n     * @dev External oracle instance to provides information on token relative value using\n     * other platforms.\n     */\n    ExternalOracle public oracle;\n\n    /**\n     * @dev uint saves the value of Ether in USD.\n     * @notice Decimals were shifted to the right for more accurate readings on current\n     * prices of Ether in USD.\n     */\n    uint256 public USDpriceETH;\n\n    /**\n     * @dev bool saves status on where price of ether will be called from.\n     */\n    bool supportETHtoUSD;\n\n    /**\n     * @dev Mapping key value of address (token address) returns the struct with pertaining information\n     * on token support and value.\n     */\n    mapping(address => Token) public tokenData; // Token information accessed by token address\n\n    /**\n     * @dev Function determines from which source the price of ether to USD will be pulled from.\n     * True - local / False - External oracle\n     */\n    function changeSupportStatus() public onlyDev {\n        clearedAction(51, \"changeSupportStatus\");\n        supportETHtoUSD = boolProposed;\n    }\n\n    /**\n     * @dev Function returns relative price of two tokens.\n     * @notice Fuction checks for token support, if token is not supported,\n     * the contract will delegate the task to the outer oracle to pull\n     * prices from other sources.\n     * @param _sellTokenAddress address of queried selling token\n     * @param _buyTokenAddress address of queried token being bought\n     * @return relative value of token being sold, relative value of token\n     * being bought.\n     */\n    function priceOfPair(address _sellTokenAddress, address _buyTokenAddress)\n        public\n        view\n        returns (uint256, uint256)\n    {\n        uint256 sellTokenPrice;\n        uint256 buyTokenPrice;\n\n        if (tokenData[_sellTokenAddress].active) {\n            sellTokenPrice = tokenData[_sellTokenAddress].value;\n        } else {\n            sellTokenPrice = oracle.getRelativePrice(_sellTokenAddress);\n        }\n\n        if (tokenData[_buyTokenAddress].active) {\n            buyTokenPrice = tokenData[_buyTokenAddress].value;\n        } else {\n            buyTokenPrice = oracle.getRelativePrice(_buyTokenAddress);\n        }\n\n        return (sellTokenPrice, buyTokenPrice);\n    }\n\n    /**\n     * @dev Function returns the price of Ether in USD\n     * @return price of ETH in USD\n     */\n    function priceOfETH() public view returns (uint256) {\n        if (supportETHtoUSD) {\n            return (USDpriceETH);\n        } else {\n            return oracle.getPriceETH();\n        }\n    }\n\n    /**\n     * @dev Function returns the value of the queried token.\n     * @param _tokenAddress of token query\n     * @notice Fuction checks for token support, if token is not supported,\n     * the contract will delegate the task to the outer oracle to pull\n     * prices from other sources.\n     */\n    function priceOfToken(address _tokenAddress) public view returns (uint256) {\n        if (tokenData[_tokenAddress].active) {\n            return tokenData[_tokenAddress].value;\n        } else {\n            return oracle.getRelativePrice(_tokenAddress);\n        }\n    }\n}\n",
  "sourcePath": "/Users/christianroque/Desktop/TungstenGroupProject/contracts/ExchangeOracle.sol",
  "compiler": {
    "name": "solc",
    "version": "0.7.6+commit.7338295f.Emscripten.clang"
  },
  "schemaVersion": "3.3.4",
  "updatedAt": "2021-07-03T18:27:35.992Z",
  "devdoc": {
    "kind": "dev",
    "methods": {
      "acceptContract()": {
        "details": "Function activates a new contract address as entry point."
      },
      "acceptDev()": {
        "details": "Function accepts a proposed address for a new dev addition. This dev gets added to the dev array as well as turned as active as default."
      },
      "addressChange(uint256,string)": {
        "details": "Function outputs the current address proposed as function output to a valid entry contract. The contract will also specify its own name to limit changes on other functions and increase security.",
        "params": {
          "_percent": "percent needed for change to be approved.",
          "_proposedChange": "string of the calling function."
        },
        "returns": {
          "_0": "new address value proposed"
        }
      },
      "boolChange(uint256,string)": {
        "details": "Function outputs the current bool proposed as function output to a valid entry contract. The contract will also specify its own name to limit changes on other functions and increase security.",
        "params": {
          "_percent": "percent needed for change to be approved.",
          "_proposedChange": "string of the calling function."
        },
        "returns": {
          "_0": "new bool value proposed"
        }
      },
      "changeSupportStatus()": {
        "details": "Function determines from which source the price of ether to USD will be pulled from. True - local / False - External oracle"
      },
      "deleteContract()": {
        "details": "Function deactivates an existing contract address as entry point."
      },
      "deleteDev()": {
        "details": "Function deactivates the active status for a developer."
      },
      "externalOracleChange()": {
        "details": "Function takes a proposed address value to update the external oracle."
      },
      "numberChange(uint256,string)": {
        "details": "Function outputs the current uint proposed as function output to a valid entry contract. The contract will also specify its own name to limit changes on other functions and increase security.",
        "params": {
          "_percent": "percent needed for change to be approved.",
          "_proposedChange": "string of the calling function."
        },
        "returns": {
          "_0": "new uint value proposed"
        }
      },
      "priceChangeETH()": {
        "details": "Function takes a proposed uint value to update ether current price in USD."
      },
      "priceOfETH()": {
        "details": "Function returns the price of Ether in USD",
        "returns": {
          "_0": "price of ETH in USD"
        }
      },
      "priceOfPair(address,address)": {
        "details": "Function returns relative price of two tokens.",
        "params": {
          "_buyTokenAddress": "address of queried token being bought",
          "_sellTokenAddress": "address of queried selling token"
        },
        "returns": {
          "_0": "relative value of token being sold, relative value of token being bought."
        }
      },
      "priceOfToken(address)": {
        "details": "Function returns the value of the queried token.",
        "params": {
          "_tokenAddress": "of token query"
        }
      },
      "proposeAddressChange(address,string)": {
        "details": "Resets all the dev contract votes to false and takes a parameter address as the new proposed change. The string of the function accepting this change must also be parsed in.",
        "params": {
          "_address": "proposed change on function output",
          "_proposedChange": "string cointaining information on permitted function accessing the addressChange function."
        }
      },
      "proposeBoolChange(bool,string)": {
        "details": "Resets all the dev contract votes to false and takes a parameter bool as the new proposed change. The string of the function accepting this change must also be parsed in.",
        "params": {
          "_bool": "proposed change on function output",
          "_proposedChange": "string cointaining information on permitted function accessing the boolChange function."
        }
      },
      "proposeNumberChange(uint256,string)": {
        "details": "Resets all the dev contract votes to false and takes a parameter uint as the new proposed change. The string of the function accepting this change must also be parsed in.",
        "params": {
          "_num": "proposed change on function output",
          "_proposedChange": "string cointaining information on permitted function accessing the numChange function."
        }
      },
      "proposeTierChange(uint256,uint256,uint256,uint256,uint256,string)": {
        "details": "Resets all the dev contract votes to false and takes multiple params as the new tier proposed. The string of the function accepting this change must also be parsed in."
      },
      "proposeTokenChange(uint256,bool,address,string)": {
        "details": "Resets all the dev contract votes to false and takes a parameter value, status and address of the token. The string of the function accepting this change must also be parsed in.",
        "params": {
          "_proposedChange": "string cointaining information on permitted function accessing the boolChange function.",
          "_status": "new status of token support",
          "_tokenAddress": "address of token being updated",
          "_value": "new proposed value for token"
        }
      },
      "tierChange(uint256,string)": {
        "details": "Function outputs the current selection proposed as function output to a valid entry contract. The contract will also specify its own name to limit changes on other functions and increase security."
      },
      "tokenChange()": {
        "details": "Function takes proposed variable values to update token information."
      },
      "vote()": {
        "details": "Function stores the dev's vote for the current proposed change."
      }
    },
    "stateVariables": {
      "USDpriceETH": {
        "details": "uint saves the value of Ether in USD."
      },
      "addressProposed": {
        "details": "List all variables proposed for changes."
      },
      "contractSupported": {
        "details": "Mapping key value address (Contract address) returns a bool on contract entry status. True - valid entry, False - not permitted."
      },
      "devArray": {
        "details": "Array used to access the address of all developers on Cobalt"
      },
      "devBook": {
        "details": "Mapping key value address (developer) returns Dev struct information for dev"
      },
      "oracle": {
        "details": "External oracle instance to provides information on token relative value using other platforms."
      },
      "supportETHtoUSD": {
        "details": "bool saves status on where price of ether will be called from."
      },
      "tokenData": {
        "details": "Mapping key value of address (token address) returns the struct with pertaining information on token support and value."
      }
    },
    "version": 1
  },
  "userdoc": {
    "kind": "user",
    "methods": {
      "USDpriceETH()": {
        "notice": "Decimals were shifted to the right for more accurate readings on current prices of Ether in USD."
      },
      "priceOfPair(address,address)": {
        "notice": "Fuction checks for token support, if token is not supported, the contract will delegate the task to the outer oracle to pull prices from other sources."
      },
      "priceOfToken(address)": {
        "notice": "Fuction checks for token support, if token is not supported, the contract will delegate the task to the outer oracle to pull prices from other sources."
      },
      "vote()": {
        "notice": "We dont limit vote to only active devs as their votes dont get added to the total tally during clearedAction function."
      }
    },
    "version": 1
  }
}