{
  "contractName": "Lending",
  "abi": [
    {
      "inputs": [
        {
          "internalType": "address",
          "name": "",
          "type": "address"
        }
      ],
      "name": "loanBook",
      "outputs": [
        {
          "internalType": "address",
          "name": "borrower",
          "type": "address"
        },
        {
          "internalType": "uint256",
          "name": "amountBorrowed",
          "type": "uint256"
        },
        {
          "internalType": "uint256",
          "name": "remainingBalance",
          "type": "uint256"
        },
        {
          "internalType": "uint256",
          "name": "minimumPayment",
          "type": "uint256"
        },
        {
          "internalType": "uint256",
          "name": "collateral",
          "type": "uint256"
        },
        {
          "internalType": "bool",
          "name": "active",
          "type": "bool"
        },
        {
          "internalType": "bool",
          "name": "initialized",
          "type": "bool"
        },
        {
          "internalType": "bool",
          "name": "funded",
          "type": "bool"
        },
        {
          "internalType": "uint256",
          "name": "timeCreated",
          "type": "uint256"
        },
        {
          "internalType": "uint256",
          "name": "dueDate",
          "type": "uint256"
        },
        {
          "internalType": "uint256",
          "name": "totalVote",
          "type": "uint256"
        },
        {
          "internalType": "address",
          "name": "currentToken",
          "type": "address"
        }
      ],
      "stateMutability": "view",
      "type": "function"
    },
    {
      "inputs": [
        {
          "internalType": "address",
          "name": "",
          "type": "address"
        },
        {
          "internalType": "uint256",
          "name": "",
          "type": "uint256"
        }
      ],
      "name": "loanRecords",
      "outputs": [
        {
          "internalType": "address",
          "name": "borrower",
          "type": "address"
        },
        {
          "internalType": "uint256",
          "name": "amountBorrowed",
          "type": "uint256"
        },
        {
          "internalType": "uint256",
          "name": "remainingBalance",
          "type": "uint256"
        },
        {
          "internalType": "uint256",
          "name": "minimumPayment",
          "type": "uint256"
        },
        {
          "internalType": "uint256",
          "name": "collateral",
          "type": "uint256"
        },
        {
          "internalType": "bool",
          "name": "active",
          "type": "bool"
        },
        {
          "internalType": "bool",
          "name": "initialized",
          "type": "bool"
        },
        {
          "internalType": "bool",
          "name": "funded",
          "type": "bool"
        },
        {
          "internalType": "uint256",
          "name": "timeCreated",
          "type": "uint256"
        },
        {
          "internalType": "uint256",
          "name": "dueDate",
          "type": "uint256"
        },
        {
          "internalType": "uint256",
          "name": "totalVote",
          "type": "uint256"
        },
        {
          "internalType": "address",
          "name": "currentToken",
          "type": "address"
        }
      ],
      "stateMutability": "view",
      "type": "function"
    },
    {
      "inputs": [],
      "name": "withdrawTreasury",
      "outputs": [],
      "stateMutability": "payable",
      "type": "function"
    },
    {
      "inputs": [],
      "name": "depositTreasury",
      "outputs": [],
      "stateMutability": "payable",
      "type": "function"
    },
    {
      "inputs": [],
      "name": "getLoan",
      "outputs": [
        {
          "internalType": "address",
          "name": "",
          "type": "address"
        },
        {
          "internalType": "uint256",
          "name": "",
          "type": "uint256"
        },
        {
          "internalType": "uint256",
          "name": "",
          "type": "uint256"
        },
        {
          "internalType": "uint256",
          "name": "",
          "type": "uint256"
        },
        {
          "internalType": "uint256",
          "name": "",
          "type": "uint256"
        },
        {
          "internalType": "bool",
          "name": "",
          "type": "bool"
        },
        {
          "internalType": "bool",
          "name": "",
          "type": "bool"
        },
        {
          "internalType": "uint256",
          "name": "",
          "type": "uint256"
        },
        {
          "internalType": "uint256",
          "name": "",
          "type": "uint256"
        },
        {
          "internalType": "uint256",
          "name": "",
          "type": "uint256"
        },
        {
          "internalType": "address",
          "name": "",
          "type": "address"
        }
      ],
      "stateMutability": "view",
      "type": "function"
    },
    {
      "inputs": [
        {
          "internalType": "uint256",
          "name": "_paymentPeriod",
          "type": "uint256"
        },
        {
          "internalType": "uint256",
          "name": "_principal",
          "type": "uint256"
        },
        {
          "internalType": "address",
          "name": "_tokenAddress",
          "type": "address"
        }
      ],
      "name": "newLoan",
      "outputs": [],
      "stateMutability": "payable",
      "type": "function"
    },
    {
      "inputs": [
        {
          "internalType": "bool",
          "name": "_status",
          "type": "bool"
        }
      ],
      "name": "validate",
      "outputs": [],
      "stateMutability": "nonpayable",
      "type": "function"
    },
    {
      "inputs": [
        {
          "internalType": "address[]",
          "name": "voterArr",
          "type": "address[]"
        },
        {
          "internalType": "address",
          "name": "_load",
          "type": "address"
        }
      ],
      "name": "payVoters",
      "outputs": [],
      "stateMutability": "nonpayable",
      "type": "function"
    },
    {
      "inputs": [],
      "name": "makePayment",
      "outputs": [],
      "stateMutability": "payable",
      "type": "function"
    },
    {
      "inputs": [],
      "name": "returnCollateral",
      "outputs": [],
      "stateMutability": "nonpayable",
      "type": "function"
    },
    {
      "inputs": [],
      "name": "cleanSlate",
      "outputs": [],
      "stateMutability": "nonpayable",
      "type": "function"
    }
  ],
  "bytecode": "0x608060405234801561001057600080fd5b50612368806100206000396000f3fe60806040526004361061009c5760003560e01c80637e916d1b116100645780637e916d1b146102855780639b1b65061461028f578063a3f0bb6614610373578063d8d797001461038a578063e59626ee14610394578063fe5b133e146104825761009c565b8063166bab95146100a1578063285434e7146100ab5780632a5b68fd1461019057806344ed456f146101cd5780634859b3f4146101e4575b600080fd5b6100a96104da565b005b3480156100b757600080fd5b5061018e600480360360408110156100ce57600080fd5b81019080803590602001906401000000008111156100eb57600080fd5b8201836020820111156100fd57600080fd5b8035906020019184602083028401116401000000008311171561011f57600080fd5b919080806020026020016040519081016040528093929190818152602001838360200280828437600081840152601f19601f820116905080830192505050505050509192919290803573ffffffffffffffffffffffffffffffffffffffff1690602001909291905050506104dc565b005b34801561019c57600080fd5b506101cb600480360360208110156101b357600080fd5b81019080803515159060200190929190505050610765565b005b3480156101d957600080fd5b506101e2610815565b005b3480156101f057600080fd5b506101f96108f6565b604051808c73ffffffffffffffffffffffffffffffffffffffff1681526020018b81526020018a8152602001898152602001888152602001871515815260200186151581526020018581526020018481526020018381526020018273ffffffffffffffffffffffffffffffffffffffff1681526020019b50505050505050505050505060405180910390f35b61028d610c65565b005b34801561029b57600080fd5b506102de600480360360208110156102b257600080fd5b81019080803573ffffffffffffffffffffffffffffffffffffffff169060200190929190505050610c67565b604051808d73ffffffffffffffffffffffffffffffffffffffff1681526020018c81526020018b81526020018a81526020018981526020018815158152602001871515815260200186151581526020018581526020018481526020018381526020018273ffffffffffffffffffffffffffffffffffffffff1681526020019c5050505050505050505050505060405180910390f35b34801561037f57600080fd5b50610388610d2e565b005b6103926110c7565b005b3480156103a057600080fd5b506103ed600480360360408110156103b757600080fd5b81019080803573ffffffffffffffffffffffffffffffffffffffff169060200190929190803590602001909291905050506111dd565b604051808d73ffffffffffffffffffffffffffffffffffffffff1681526020018c81526020018b81526020018a81526020018981526020018815158152602001871515815260200186151581526020018581526020018481526020018381526020018273ffffffffffffffffffffffffffffffffffffffff1681526020019c5050505050505050505050505060405180910390f35b6104d86004803603606081101561049857600080fd5b810190808035906020019092919080359060200190929190803573ffffffffffffffffffffffffffffffffffffffff1690602001909291905050506112c1565b005b565b60001515600460008373ffffffffffffffffffffffffffffffffffffffff1673ffffffffffffffffffffffffffffffffffffffff16815260200190815260200160002060050160029054906101000a900460ff16151514610588576040517f08c379a000000000000000000000000000000000000000000000000000000000815260040180806020018281038252602a815260200180612281602a913960400191505060405180910390fd5b6000806000806000806000600160009054906101000a900473ffffffffffffffffffffffffffffffffffffffff1673ffffffffffffffffffffffffffffffffffffffff16636f77926b896040518263ffffffff1660e01b8152600401808273ffffffffffffffffffffffffffffffffffffffff16815260200191505060a06040518083038186803b15801561061c57600080fd5b505afa158015610630573d6000803e3d6000fd5b505050506040513d60a081101561064657600080fd5b810190808051906020019092919080519060200190929190805190602001909291908051906020019092919080519060200190929190505050945094509450945094506106d7600460003373ffffffffffffffffffffffffffffffffffffffff1673ffffffffffffffffffffffffffffffffffffffff168152602001908152602001600020600101548460646119d6565b96506106e4878a516119ed565b955060005b8951811015610759578981815181106106fe57fe5b602002602001015173ffffffffffffffffffffffffffffffffffffffff166108fc889081150290604051600060405180830381858888f1935050505015801561074b573d6000803e3d6000fd5b5080806001019150506106e9565b50505050505050505050565b80600460003373ffffffffffffffffffffffffffffffffffffffff1673ffffffffffffffffffffffffffffffffffffffff16815260200190815260200160002060050160006101000a81548160ff0219169083151502179055506107cc426228206f611a06565b600460003373ffffffffffffffffffffffffffffffffffffffff1673ffffffffffffffffffffffffffffffffffffffff1681526020019081526020016000206007018190555050565b6000600460003373ffffffffffffffffffffffffffffffffffffffff1673ffffffffffffffffffffffffffffffffffffffff1681526020019081526020016000206004015490506000600460003373ffffffffffffffffffffffffffffffffffffffff1673ffffffffffffffffffffffffffffffffffffffff16815260200190815260200160002060020154146108ab57600080fd5b6000600460003373ffffffffffffffffffffffffffffffffffffffff1673ffffffffffffffffffffffffffffffffffffffff1681526020019081526020016000206004018190555050565b6000806000806000806000806000806000600460003373ffffffffffffffffffffffffffffffffffffffff1673ffffffffffffffffffffffffffffffffffffffff16815260200190815260200160002060000160009054906101000a900473ffffffffffffffffffffffffffffffffffffffff16600460003373ffffffffffffffffffffffffffffffffffffffff1673ffffffffffffffffffffffffffffffffffffffff16815260200190815260200160002060010154600460003373ffffffffffffffffffffffffffffffffffffffff1673ffffffffffffffffffffffffffffffffffffffff16815260200190815260200160002060020154600460003373ffffffffffffffffffffffffffffffffffffffff1673ffffffffffffffffffffffffffffffffffffffff16815260200190815260200160002060030154600460003373ffffffffffffffffffffffffffffffffffffffff1673ffffffffffffffffffffffffffffffffffffffff16815260200190815260200160002060040154600460003373ffffffffffffffffffffffffffffffffffffffff1673ffffffffffffffffffffffffffffffffffffffff16815260200190815260200160002060050160009054906101000a900460ff16600460003373ffffffffffffffffffffffffffffffffffffffff1673ffffffffffffffffffffffffffffffffffffffff16815260200190815260200160002060050160019054906101000a900460ff16600460003373ffffffffffffffffffffffffffffffffffffffff1673ffffffffffffffffffffffffffffffffffffffff16815260200190815260200160002060060154600460003373ffffffffffffffffffffffffffffffffffffffff1673ffffffffffffffffffffffffffffffffffffffff16815260200190815260200160002060070154600460003373ffffffffffffffffffffffffffffffffffffffff1673ffffffffffffffffffffffffffffffffffffffff16815260200190815260200160002060080154600460003373ffffffffffffffffffffffffffffffffffffffff1673ffffffffffffffffffffffffffffffffffffffff16815260200190815260200160002060090160009054906101000a900473ffffffffffffffffffffffffffffffffffffffff169a509a509a509a509a509a509a509a509a509a509a50909192939495969798999a565b565b60046020528060005260406000206000915090508060000160009054906101000a900473ffffffffffffffffffffffffffffffffffffffff16908060010154908060020154908060030154908060040154908060050160009054906101000a900460ff16908060050160019054906101000a900460ff16908060050160029054906101000a900460ff16908060060154908060070154908060080154908060090160009054906101000a900473ffffffffffffffffffffffffffffffffffffffff1690508c565b6000600460003373ffffffffffffffffffffffffffffffffffffffff1673ffffffffffffffffffffffffffffffffffffffff1681526020019081526020016000206002015414610d7d57600080fd5b600560003373ffffffffffffffffffffffffffffffffffffffff1673ffffffffffffffffffffffffffffffffffffffff168152602001908152602001600020600460003373ffffffffffffffffffffffffffffffffffffffff1673ffffffffffffffffffffffffffffffffffffffff16815260200190815260200160002090806001815401808255809150506001900390600052602060002090600a02016000909190919091506000820160009054906101000a900473ffffffffffffffffffffffffffffffffffffffff168160000160006101000a81548173ffffffffffffffffffffffffffffffffffffffff021916908373ffffffffffffffffffffffffffffffffffffffff160217905550600182015481600101556002820154816002015560038201548160030155600482015481600401556005820160009054906101000a900460ff168160050160006101000a81548160ff0219169083151502179055506005820160019054906101000a900460ff168160050160016101000a81548160ff0219169083151502179055506005820160029054906101000a900460ff168160050160026101000a81548160ff0219169083151502179055506006820154816006015560078201548160070155600882015481600801556009820160009054906101000a900473ffffffffffffffffffffffffffffffffffffffff168160090160006101000a81548173ffffffffffffffffffffffffffffffffffffffff021916908373ffffffffffffffffffffffffffffffffffffffff1602179055505050600460003373ffffffffffffffffffffffffffffffffffffffff1673ffffffffffffffffffffffffffffffffffffffff168152602001908152602001600020600080820160006101000a81549073ffffffffffffffffffffffffffffffffffffffff021916905560018201600090556002820160009055600382016000905560048201600090556005820160006101000a81549060ff02191690556005820160016101000a81549060ff02191690556005820160026101000a81549060ff02191690556006820160009055600782016000905560088201600090556009820160006101000a81549073ffffffffffffffffffffffffffffffffffffffff02191690555050565b600460003373ffffffffffffffffffffffffffffffffffffffff1673ffffffffffffffffffffffffffffffffffffffff1681526020019081526020016000206003015434101561111657600080fd5b60011515600460003373ffffffffffffffffffffffffffffffffffffffff1673ffffffffffffffffffffffffffffffffffffffff16815260200190815260200160002060050160009054906101000a900460ff1615151461117657600080fd5b600460003373ffffffffffffffffffffffffffffffffffffffff1673ffffffffffffffffffffffffffffffffffffffff1681526020019081526020016000206007015442116111cf576111ca346000611a22565b6111db565b6111da346001611a22565b5b565b600560205281600052604060002081815481106111f957600080fd5b90600052602060002090600a0201600091509150508060000160009054906101000a900473ffffffffffffffffffffffffffffffffffffffff16908060010154908060020154908060030154908060040154908060050160009054906101000a900460ff16908060050160019054906101000a900460ff16908060050160029054906101000a900460ff16908060060154908060070154908060080154908060090160009054906101000a900473ffffffffffffffffffffffffffffffffffffffff1690508c565b60008060008060008054906101000a900473ffffffffffffffffffffffffffffffffffffffff1673ffffffffffffffffffffffffffffffffffffffff1663f3167c05866040518263ffffffff1660e01b8152600401808273ffffffffffffffffffffffffffffffffffffffff16815260200191505060206040518083038186803b15801561134e57600080fd5b505afa158015611362573d6000803e3d6000fd5b505050506040513d602081101561137857600080fd5b810190808051906020019092919050505090506000806000806000600160009054906101000a900473ffffffffffffffffffffffffffffffffffffffff1673ffffffffffffffffffffffffffffffffffffffff16636f77926b336040518263ffffffff1660e01b8152600401808273ffffffffffffffffffffffffffffffffffffffff16815260200191505060a06040518083038186803b15801561141c57600080fd5b505afa158015611430573d6000803e3d6000fd5b505050506040513d60a081101561144657600080fd5b8101908080519060200190929190805190602001909291908051906020019092919080519060200190929190805190602001909291905050509450945094509450945060001515600460003373ffffffffffffffffffffffffffffffffffffffff1673ffffffffffffffffffffffffffffffffffffffff16815260200190815260200160002060050160019054906101000a900460ff161515146114e957600080fd5b803410156114f657600080fd5b60076000838152602001908152602001600020600101548c1115611565576040517f08c379a00000000000000000000000000000000000000000000000000000000081526004018080602001828103825260388152602001806122fb6038913960400191505060405180910390fd5b60076000838152602001908152602001600020600001546116388c61163368056bc75e2d6310000060008054906101000a900473ffffffffffffffffffffffffffffffffffffffff1673ffffffffffffffffffffffffffffffffffffffff1663858b033d6040518163ffffffff1660e01b815260040160206040518083038186803b1580156115f357600080fd5b505afa158015611607573d6000803e3d6000fd5b505050506040513d602081101561161d57600080fd5b81019080805190602001909291905050506119ed565b6119ed565b111561164357600080fd5b61167261166461165e8d6116578989611c4d565b60646119d6565b886119ed565b670de0b6b3a7640000611c4d565b98506116898b6116848d8660646119d6565b611a06565b9750600354881115611703576040517f08c379a000000000000000000000000000000000000000000000000000000000815260040180806020018281038252601a8152602001807f496e73756666696369656e742066756e647320746f206c656e6400000000000081525060200191505060405180910390fd5b6117238861171e6117178f6228206f6119ed565b6001611a06565b6119ed565b965061174e898b73ffffffffffffffffffffffffffffffffffffffff16611c8490919063ffffffff16565b6040518061018001604052803373ffffffffffffffffffffffffffffffffffffffff1681526020018c81526020018981526020018881526020018a8152602001600015158152602001600115158152602001600015158152602001428152602001428152602001600760008581526020019081526020016000206002015481526020018b73ffffffffffffffffffffffffffffffffffffffff16815250600460003373ffffffffffffffffffffffffffffffffffffffff1673ffffffffffffffffffffffffffffffffffffffff16815260200190815260200160002060008201518160000160006101000a81548173ffffffffffffffffffffffffffffffffffffffff021916908373ffffffffffffffffffffffffffffffffffffffff1602179055506020820151816001015560408201518160020155606082015181600301556080820151816004015560a08201518160050160006101000a81548160ff02191690831515021790555060c08201518160050160016101000a81548160ff02191690831515021790555060e08201518160050160026101000a81548160ff0219169083151502179055506101008201518160060155610120820151816007015561014082015181600801556101608201518160090160006101000a81548173ffffffffffffffffffffffffffffffffffffffff021916908373ffffffffffffffffffffffffffffffffffffffff1602179055509050506006339080600181540180825580915050600190039060005260206000200160009091909190916101000a81548173ffffffffffffffffffffffffffffffffffffffff021916908373ffffffffffffffffffffffffffffffffffffffff160217905550505050505050505050505050565b600081838502816119e357fe5b0490509392505050565b6000808284816119f957fe5b0490508091505092915050565b600080828401905083811015611a1857fe5b8091505092915050565b611a6e600460003373ffffffffffffffffffffffffffffffffffffffff1673ffffffffffffffffffffffffffffffffffffffff1681526020019081526020016000206002015483611d3a565b600460003373ffffffffffffffffffffffffffffffffffffffff1673ffffffffffffffffffffffffffffffffffffffff16815260200190815260200160002060020181905550611ac1426228206f611a06565b600460003373ffffffffffffffffffffffffffffffffffffffff1673ffffffffffffffffffffffffffffffffffffffff168152602001908152602001600020600701819055508015611c4957611ba5600460003373ffffffffffffffffffffffffffffffffffffffff1673ffffffffffffffffffffffffffffffffffffffff16815260200190815260200160002060040154611ba0600460003373ffffffffffffffffffffffffffffffffffffffff1673ffffffffffffffffffffffffffffffffffffffff1681526020019081526020016000206004015460026119ed565b611d3a565b600460003373ffffffffffffffffffffffffffffffffffffffff1673ffffffffffffffffffffffffffffffffffffffff168152602001908152602001600020600401819055506000611c45611c3c42600460003373ffffffffffffffffffffffffffffffffffffffff1673ffffffffffffffffffffffffffffffffffffffff16815260200190815260200160002060070154611d3a565b620151806119ed565b9050505b5050565b600080831415611c605760009050611c7e565b6000828402905082848281611c7157fe5b0414611c7957fe5b809150505b92915050565b6000811415611c9257611d36565b611c9b82611d51565b15611d075780341115611d02573373ffffffffffffffffffffffffffffffffffffffff166108fc611cd58334611d3a90919063ffffffff16565b9081150290604051600060405180830381858888f19350505050158015611d00573d6000803e3d6000fd5b505b611d35565b611d343330838573ffffffffffffffffffffffffffffffffffffffff16611e31909392919063ffffffff16565b5b5b5050565b600082821115611d4657fe5b818303905092915050565b600073c02aaa39b223fe8d0a0e5c4f27ead9083c756cc273ffffffffffffffffffffffffffffffffffffffff168273ffffffffffffffffffffffffffffffffffffffff161480611de0575073eeeeeeeeeeeeeeeeeeeeeeeeeeeeeeeeeeeeeeee73ffffffffffffffffffffffffffffffffffffffff168273ffffffffffffffffffffffffffffffffffffffff16145b80611e2a575073c778417e063141139fce010982780140aa0cd5ab73ffffffffffffffffffffffffffffffffffffffff168273ffffffffffffffffffffffffffffffffffffffff16145b9050919050565b611eec846323b872dd60e01b858585604051602401808473ffffffffffffffffffffffffffffffffffffffff1681526020018373ffffffffffffffffffffffffffffffffffffffff1681526020018281526020019350505050604051602081830303815290604052907bffffffffffffffffffffffffffffffffffffffffffffffffffffffff19166020820180517bffffffffffffffffffffffffffffffffffffffffffffffffffffffff8381831617835250505050611ef2565b50505050565b6000611f54826040518060400160405280602081526020017f5361666545524332303a206c6f772d6c6576656c2063616c6c206661696c65648152508573ffffffffffffffffffffffffffffffffffffffff16611fe19092919063ffffffff16565b9050600081511115611fdc57808060200190516020811015611f7557600080fd5b8101908080519060200190929190505050611fdb576040517f08c379a000000000000000000000000000000000000000000000000000000000815260040180806020018281038252602a8152602001806122d1602a913960400191505060405180910390fd5b5b505050565b6060611ff08484600085611ff9565b90509392505050565b606082471015612054576040517f08c379a00000000000000000000000000000000000000000000000000000000081526004018080602001828103825260268152602001806122ab6026913960400191505060405180910390fd5b61205d856121a1565b6120cf576040517f08c379a000000000000000000000000000000000000000000000000000000000815260040180806020018281038252601d8152602001807f416464726573733a2063616c6c20746f206e6f6e2d636f6e747261637400000081525060200191505060405180910390fd5b6000808673ffffffffffffffffffffffffffffffffffffffff1685876040518082805190602001908083835b6020831061211e57805182526020820191506020810190506020830392506120fb565b6001836020036101000a03801982511681845116808217855250505050505090500191505060006040518083038185875af1925050503d8060008114612180576040519150601f19603f3d011682016040523d82523d6000602084013e612185565b606091505b50915091506121958282866121b4565b92505050949350505050565b600080823b905060008111915050919050565b606083156121c457829050612279565b6000835111156121d75782518084602001fd5b816040517f08c379a00000000000000000000000000000000000000000000000000000000081526004018080602001828103825283818151815260200191508051906020019080838360005b8381101561223e578082015181840152602081019050612223565b50505050905090810190601f16801561226b5780820380516001836020036101000a031916815260200191505b509250505060405180910390fd5b939250505056fe4c6f616e2072657761726473206861766520616c7265616479206265656e206469737472696275746564416464726573733a20696e73756666696369656e742062616c616e636520666f722063616c6c5361666545524332303a204552433230206f7065726174696f6e20646964206e6f7420737563636565645061796d656e7420706572696f6420657863656564732074686174206f662074686520746965722c20706c6561732074727920616761696ea264697066735822122016b0fb421ad60ef00986ee5381211a92a18a30c125bc2285aa4986e4a5d0f99364736f6c63430007060033",
  "immutableReferences": {},
  "source": "// SPDX-License-Identifier: MIT\npragma solidity >=0.4.22 <0.9.0;\n\nimport \"./interfaces/IERC20.sol\";\nimport \"./interfaces/SafeMath.sol\";\nimport \"./interfaces/UniversalERC20.sol\";\nimport \"./ExchangeOracle.sol\";\nimport \"./NFTLoan.sol\";\n\n// 0x433C6E3D2def6E1fb414cf9448724EFB0399b698\n\ncontract Lending {\n    using UniversalERC20 for IERC20;\n\n    /**\n     * @dev Creating oracle instance\n     */\n    ExchangeOracle oracle;\n\n    /**\n     * @dev\n     */\n    NFTLoan NFT;\n\n    /**\n     * @dev\n     */\n    address Treasury;\n\n    /**\n     * @dev\n     */\n    function withdrawTreasury() public payable {}\n\n    /**\n     * @dev\n     */\n    function depositTreasury() public payable {}\n\n    // ******************************** Lending **************************************\n\n    /**\n     * @dev\n     */\n    uint256 totalBalance;\n\n    /**\n     * @dev Mapping with key to store all loan information with the key of borrower address\n     *  and value of Loan struct with all loan information\n     */\n    mapping(address => Loan) public loanBook;\n\n    /**\n     * @dev Information from previously fullfilled loans are stored into the blockchain\n     * before being permanently deleted\n     */\n    mapping(address => Loan[]) public loanRecords;\n\n    /**\n     * @dev\n     */\n    address[] loanBorrowers;\n\n    /**\n     * @dev struct to access information on tier structure\n     */\n    struct loanTier {\n        uint256 principalLimit;\n        uint256 maximumPaymentPeriod;\n        uint256 maxVoters;\n    }\n\n    mapping(uint256 => loanTier) loanTiers;\n\n    /**\n     * @dev Struct to store loan information\n     */\n    struct Loan {\n        address borrower; // Address of wallet\n        uint256 amountBorrowed; // Initial loan balance\n        uint256 remainingBalance; // Remaining balance\n        uint256 minimumPayment; // MinimumPayment // Can be calculated off total amount\n        uint256 collateral; // Amount owed back to borrower after loan is paid in full\n        bool active; // Is the current loan active (Voted yes)\n        bool initialized; // Does the borrower have a current loan application\n        bool funded;\n        uint256 timeCreated; // Time of loan application also epoch in days\n        uint256 dueDate; // Limit date for next payment\n        uint256 totalVote; // Total amount determined by tier\n        address currentToken; // Address of collateral token\n    }\n\n    function getLoan()\n        public\n        view\n        returns (\n            address,\n            uint256,\n            uint256,\n            uint256,\n            uint256,\n            bool,\n            bool,\n            uint256,\n            uint256,\n            uint256,\n            address\n        )\n    {\n        return (\n            loanBook[msg.sender].borrower,\n            loanBook[msg.sender].amountBorrowed,\n            loanBook[msg.sender].remainingBalance,\n            loanBook[msg.sender].minimumPayment,\n            loanBook[msg.sender].collateral,\n            loanBook[msg.sender].active,\n            loanBook[msg.sender].initialized,\n            loanBook[msg.sender].timeCreated,\n            loanBook[msg.sender].dueDate,\n            loanBook[msg.sender].totalVote,\n            loanBook[msg.sender].currentToken\n        );\n    }\n\n    /**\n     * @dev Recalculates interest and also conducts check and balances\n     */\n    function newLoan(\n        uint256 _paymentPeriod,\n        uint256 _principal,\n        address _tokenAddress\n    ) public payable {\n        uint256 collateralInCBLT;\n        uint256 finalPrincipal;\n        uint256 monthlyPayment;\n        uint256 tokenPrice = oracle.priceOfToken(address(_tokenAddress));\n        (\n            uint256 riskScore,\n            uint256 riskFactor,\n            uint256 interestRate,\n            uint256 userMaxTier,\n            uint256 flatfee\n        ) = NFT.getUser(msg.sender);\n\n        require(loanBook[msg.sender].initialized == false);\n        require(msg.value >= flatfee);\n        require(\n            _paymentPeriod <= loanTiers[userMaxTier].maximumPaymentPeriod,\n            \"Payment period exceeds that of the tier, pleas try again\"\n        );\n\n        require(\n            SafeMath.div(\n                _principal,\n                SafeMath.div(100000000000000000000, oracle.priceOfETH())\n            ) <= loanTiers[userMaxTier].principalLimit\n        );\n\n        collateralInCBLT = SafeMath.mul(\n            SafeMath.div(\n                SafeMath.multiply(\n                    _principal,\n                    SafeMath.mul(riskScore, riskFactor),\n                    100\n                ),\n                tokenPrice\n            ),\n            1e18\n        );\n\n        finalPrincipal = SafeMath.add(\n            _principal,\n            SafeMath.multiply(_principal, interestRate, 100)\n        );\n\n        require(finalPrincipal <= totalBalance, \"Insufficient funds to lend\");\n\n        monthlyPayment = SafeMath.div(\n            finalPrincipal,\n            SafeMath.add(SafeMath.div(_paymentPeriod, 2629743), 1)\n        );\n\n        IERC20(_tokenAddress).universalTransferFromSenderToThis(\n            collateralInCBLT\n        );\n\n        loanBook[msg.sender] = Loan(\n            msg.sender,\n            _principal,\n            finalPrincipal,\n            monthlyPayment,\n            collateralInCBLT,\n            false,\n            true,\n            false,\n            block.timestamp,\n            block.timestamp,\n            loanTiers[userMaxTier].maxVoters,\n            address(_tokenAddress)\n        );\n        loanBorrowers.push(msg.sender);\n    }\n\n    /**\n     * @dev\n     */\n    function processPeriod(uint256 _payment, bool _missedPayment) internal {\n        loanBook[msg.sender].remainingBalance = SafeMath.sub(\n            loanBook[msg.sender].remainingBalance,\n            _payment\n        );\n\n        loanBook[msg.sender].dueDate = SafeMath.add(block.timestamp, 2629743);\n\n        if (_missedPayment) {\n            loanBook[msg.sender].collateral = SafeMath.sub(\n                loanBook[msg.sender].collateral,\n                SafeMath.div(loanBook[msg.sender].collateral, 2)\n            );\n            // Strike system // Connected to NFT\n            uint256 daysMissed = SafeMath.div(\n                SafeMath.sub(block.timestamp, loanBook[msg.sender].dueDate),\n                86400\n            );\n            if (daysMissed > 7) {\n                // Suspend loan\n            }\n        }\n    }\n\n    /**\n     * @dev\n     */\n    function validate(bool _status) public {\n        loanBook[msg.sender].active = _status;\n        loanBook[msg.sender].dueDate = SafeMath.add(block.timestamp, 2629743);\n    } // Only API\n\n    /**\n     * @dev\n     */\n    function payVoters(address[] memory voterArr, address _load) public {\n        require(\n            loanBook[_load].funded == false,\n            \"Loan rewards have already been distributed\"\n        );\n\n        uint256 rewardTotal;\n        uint256 rewardPerVoter;\n\n        (\n            uint256 riskScore,\n            uint256 riskFactor,\n            uint256 interestRate,\n            uint256 userMaxTier,\n            uint256 flatfee\n        ) = NFT.getUser(_load);\n\n        rewardTotal = SafeMath.multiply(\n            loanBook[msg.sender].amountBorrowed,\n            interestRate,\n            100\n        );\n\n        rewardPerVoter = SafeMath.div(rewardTotal, voterArr.length);\n\n        for (uint256 i = 0; i < voterArr.length; i++) {\n            payable(voterArr[i]).transfer(rewardPerVoter);\n        }\n    } // Only API\n\n    /**\n     * @dev Function for the user to make a payment with ETH\n     *\n     */\n    function makePayment() public payable {\n        require(msg.value >= loanBook[msg.sender].minimumPayment);\n        require(loanBook[msg.sender].active == true);\n\n        if (block.timestamp <= loanBook[msg.sender].dueDate) {\n            processPeriod(msg.value, false);\n        } else {\n            processPeriod(msg.value, true);\n        }\n    }\n\n    /**\n     * @dev\n     */\n    function returnCollateral() public {\n        uint256 amount = loanBook[msg.sender].collateral;\n        require(loanBook[msg.sender].remainingBalance == 0);\n\n        // IERC20(loanBook[msg.sender].currentToken).universalTransfer(\n        //     msg.sender,\n        //     amount\n        // );\n        loanBook[msg.sender].collateral = 0;\n    }\n\n    /**\n     * @dev Deletes loan instance once the user has paid his active loan in full\n     */\n    function cleanSlate() public {\n        require(loanBook[msg.sender].remainingBalance == 0);\n        loanRecords[msg.sender].push(loanBook[msg.sender]);\n        delete loanBook[msg.sender];\n    }\n}\n",
  "sourcePath": "/Users/christianroque/Desktop/TungstenGroupProject/contracts/Lending.sol",
  "compiler": {
    "name": "solc",
    "version": "0.7.6+commit.7338295f.Emscripten.clang"
  },
  "schemaVersion": "3.3.4",
  "updatedAt": "2021-07-03T05:28:46.722Z",
  "devdoc": {
    "kind": "dev",
    "methods": {
      "cleanSlate()": {
        "details": "Deletes loan instance once the user has paid his active loan in full"
      },
      "makePayment()": {
        "details": "Function for the user to make a payment with ETH"
      },
      "newLoan(uint256,uint256,address)": {
        "details": "Recalculates interest and also conducts check and balances"
      }
    },
    "stateVariables": {
      "loanBook": {
        "details": "Mapping with key to store all loan information with the key of borrower address  and value of Loan struct with all loan information"
      },
      "loanRecords": {
        "details": "Information from previously fullfilled loans are stored into the blockchain before being permanently deleted"
      },
      "oracle": {
        "details": "Creating oracle instance"
      }
    },
    "version": 1
  },
  "userdoc": {
    "kind": "user",
    "methods": {},
    "version": 1
  }
}