{
  "contractName": "Lottery",
  "abi": [
    {
      "inputs": [
        {
          "internalType": "address",
          "name": "_oracle",
          "type": "address"
        },
        {
          "internalType": "address",
          "name": "_NFT",
          "type": "address"
        }
      ],
      "stateMutability": "nonpayable",
      "type": "constructor"
    },
    {
      "inputs": [
        {
          "internalType": "uint256",
          "name": "",
          "type": "uint256"
        }
      ],
      "name": "lotteryBook",
      "outputs": [
        {
          "internalType": "uint256",
          "name": "dateLimit",
          "type": "uint256"
        },
        {
          "internalType": "uint256",
          "name": "fee",
          "type": "uint256"
        },
        {
          "internalType": "bool",
          "name": "transferedChain",
          "type": "bool"
        }
      ],
      "stateMutability": "view",
      "type": "function"
    },
    {
      "inputs": [],
      "name": "lotteryStatus",
      "outputs": [
        {
          "internalType": "bool",
          "name": "",
          "type": "bool"
        }
      ],
      "stateMutability": "view",
      "type": "function"
    },
    {
      "inputs": [
        {
          "internalType": "address",
          "name": "_newAPI",
          "type": "address"
        }
      ],
      "name": "setAPI",
      "outputs": [],
      "stateMutability": "nonpayable",
      "type": "function"
    },
    {
      "inputs": [
        {
          "internalType": "bool",
          "name": "_status",
          "type": "bool"
        }
      ],
      "name": "setLottery",
      "outputs": [],
      "stateMutability": "nonpayable",
      "type": "function"
    },
    {
      "inputs": [
        {
          "internalType": "uint256",
          "name": "_lotteryTicket",
          "type": "uint256"
        }
      ],
      "name": "getLotteryWinners",
      "outputs": [
        {
          "internalType": "address[]",
          "name": "",
          "type": "address[]"
        }
      ],
      "stateMutability": "view",
      "type": "function"
    },
    {
      "inputs": [
        {
          "internalType": "uint256",
          "name": "_numWinners",
          "type": "uint256"
        },
        {
          "internalType": "uint256",
          "name": "_feePrice",
          "type": "uint256"
        },
        {
          "internalType": "uint256",
          "name": "_dateLimit",
          "type": "uint256"
        }
      ],
      "name": "createTicket",
      "outputs": [],
      "stateMutability": "nonpayable",
      "type": "function"
    },
    {
      "inputs": [
        {
          "internalType": "uint256",
          "name": "_ticketQuery",
          "type": "uint256"
        }
      ],
      "name": "setTicketStatus",
      "outputs": [],
      "stateMutability": "nonpayable",
      "type": "function"
    },
    {
      "inputs": [],
      "name": "buyStakingTicket",
      "outputs": [],
      "stateMutability": "payable",
      "type": "function"
    },
    {
      "inputs": [
        {
          "internalType": "uint256[]",
          "name": "_winnerIndex",
          "type": "uint256[]"
        }
      ],
      "name": "setLotteryWinners",
      "outputs": [],
      "stateMutability": "nonpayable",
      "type": "function"
    },
    {
      "inputs": [
        {
          "internalType": "address",
          "name": "_newRecipient",
          "type": "address"
        }
      ],
      "name": "setSecondaryRecipient",
      "outputs": [],
      "stateMutability": "nonpayable",
      "type": "function"
    },
    {
      "inputs": [
        {
          "internalType": "uint256",
          "name": "_amount",
          "type": "uint256"
        }
      ],
      "name": "fundAPI",
      "outputs": [],
      "stateMutability": "payable",
      "type": "function"
    },
    {
      "inputs": [
        {
          "internalType": "uint256",
          "name": "_amount",
          "type": "uint256"
        }
      ],
      "name": "fundSecondary",
      "outputs": [],
      "stateMutability": "payable",
      "type": "function"
    }
  ],
  "bytecode": "0x608060405234801561001057600080fd5b5060405161112a38038061112a8339818101604052604081101561003357600080fd5b81019080805190602001909291908051906020019092919050505081600160006101000a81548173ffffffffffffffffffffffffffffffffffffffff021916908373ffffffffffffffffffffffffffffffffffffffff16021790555080600260006101000a81548173ffffffffffffffffffffffffffffffffffffffff021916908373ffffffffffffffffffffffffffffffffffffffff1602179055505050611049806100e16000396000f3fe6080604052600436106100a75760003560e01c8063947f99b911610064578063947f99b9146102e6578063b26fbbfa14610314578063d5b86a6a14610365578063e930fbd314610393578063e9b29a9d146103d0578063f64532b914610421576100a7565b80630ba13067146100ac5780630d683dd91461017157806315e472dd1461019e57806332488529146101ed5780633896cd29146101f757806361cd6f5814610256575b600080fd5b3480156100b857600080fd5b5061016f600480360360208110156100cf57600080fd5b81019080803590602001906401000000008111156100ec57600080fd5b8201836020820111156100fe57600080fd5b8035906020019184602083028401116401000000008311171561012057600080fd5b919080806020026020016040519081016040528093929190818152602001838360200280828437600081840152601f19601f82011690508083019250505050505050919291929050505061045c565b005b34801561017d57600080fd5b50610186610697565b60405180821515815260200191505060405180910390f35b3480156101aa57600080fd5b506101eb600480360360608110156101c157600080fd5b810190808035906020019092919080359060200190929190803590602001909291905050506106aa565b005b6101f5610808565b005b34801561020357600080fd5b506102306004803603602081101561021a57600080fd5b8101908080359060200190929190505050610a0c565b604051808481526020018381526020018215158152602001935050505060405180910390f35b34801561026257600080fd5b5061028f6004803603602081101561027957600080fd5b8101908080359060200190929190505050610a43565b6040518080602001828103825283818151815260200191508051906020019060200280838360005b838110156102d25780820151818401526020810190506102b7565b505050509050019250505060405180910390f35b610312600480360360208110156102fc57600080fd5b8101908080359060200190929190505050610b67565b005b34801561032057600080fd5b506103636004803603602081101561033757600080fd5b81019080803573ffffffffffffffffffffffffffffffffffffffff169060200190929190505050610c2e565b005b6103916004803603602081101561037b57600080fd5b8101908080359060200190929190505050610c72565b005b34801561039f57600080fd5b506103ce600480360360208110156103b657600080fd5b81019080803515159060200190929190505050610d17565b005b3480156103dc57600080fd5b5061041f600480360360208110156103f357600080fd5b81019080803573ffffffffffffffffffffffffffffffffffffffff169060200190929190505050610d34565b005b34801561042d57600080fd5b5061045a6004803603602081101561044457600080fd5b8101908080359060200190929190505050610d77565b005b60008054906101000a900473ffffffffffffffffffffffffffffffffffffffff1673ffffffffffffffffffffffffffffffffffffffff163373ffffffffffffffffffffffffffffffffffffffff161461051d576040517f08c379a000000000000000000000000000000000000000000000000000000000815260040180806020018281038252600d8152602001807f4163636573732064656e6965640000000000000000000000000000000000000081525060200191505060405180910390fd5b60006004549050600015156005600083815260200190815260200160002060040160009054906101000a900460ff161515146105a4576040517f08c379a0000000000000000000000000000000000000000000000000000000008152600401808060200182810382526021815260200180610f646021913960400191505060405180910390fd5b60005b82518110156106925760056000838152602001908152602001600020600101600560008481526020019081526020016000206000018483815181106105e857fe5b6020026020010151815481106105fa57fe5b9060005260206000200160009054906101000a900473ffffffffffffffffffffffffffffffffffffffff169080600181540180825580915050600190039060005260206000200160009091909190916101000a81548173ffffffffffffffffffffffffffffffffffffffff021916908373ffffffffffffffffffffffffffffffffffffffff16021790555080806001019150506105a7565b505050565b600260149054906101000a900460ff1681565b6040518060a00160405280600067ffffffffffffffff811180156106cd57600080fd5b506040519080825280602002602001820160405280156106fc5781602001602082028036833780820191505090505b5081526020018467ffffffffffffffff8111801561071957600080fd5b506040519080825280602002602001820160405280156107485781602001602082028036833780820191505090505b5081526020016107584284610e6a565b815260200183815260200160001515815250600560006004548152602001908152602001600020600082015181600001908051906020019061079b929190610e86565b5060208201518160010190805190602001906107b8929190610e86565b50604082015181600201556060820151816003015560808201518160040160006101000a81548160ff0219169083151502179055509050506107fd6004546001610e6a565b600481905550505050565b60045460011515600260149054906101000a900460ff16151514610894576040517f08c379a000000000000000000000000000000000000000000000000000000000815260040180806020018281038252601d8152602001807f4c6f74746572792069732063757272656e746c79206f66666c696e652e00000081525060200191505060405180910390fd5b806004541480156108ba5750426005600083815260200190815260200160002060020154105b61090f576040517f08c379a0000000000000000000000000000000000000000000000000000000008152600401808060200182810382526036815260200180610f2e6036913960400191505060405180910390fd5b600560008281526020019081526020016000206003015434101561097e576040517f08c379a0000000000000000000000000000000000000000000000000000000008152600401808060200182810382526025815260200180610fc16025913960400191505060405180910390fd5b600560006004548152602001908152602001600020600001339080600181540180825580915050600190039060005260206000200160009091909190916101000a81548173ffffffffffffffffffffffffffffffffffffffff021916908373ffffffffffffffffffffffffffffffffffffffff160217905550610a0360035434610e6a565b60038190555050565b60056020528060005260406000206000915090508060020154908060030154908060040160009054906101000a900460ff16905083565b6060600015156005600084815260200190815260200160002060040160009054906101000a900460ff16151514610ac5576040517f08c379a000000000000000000000000000000000000000000000000000000000815260040180806020018281038252603c815260200180610f85603c913960400191505060405180910390fd5b60056000838152602001908152602001600020600101805480602002602001604051908101604052809291908181526020018280548015610b5b57602002820191906000526020600020905b8160009054906101000a900473ffffffffffffffffffffffffffffffffffffffff1673ffffffffffffffffffffffffffffffffffffffff1681526020019060010190808311610b11575b50505050509050919050565b600354811115610bc2576040517f08c379a000000000000000000000000000000000000000000000000000000000815260040180806020018281038252602e815260200180610fe6602e913960400191505060405180910390fd5b600660009054906101000a900473ffffffffffffffffffffffffffffffffffffffff1673ffffffffffffffffffffffffffffffffffffffff166108fc829081150290604051600060405180830381858888f19350505050158015610c2a573d6000803e3d6000fd5b5050565b80600660006101000a81548173ffffffffffffffffffffffffffffffffffffffff021916908373ffffffffffffffffffffffffffffffffffffffff16021790555050565b600354811115610ccd576040517f08c379a000000000000000000000000000000000000000000000000000000000815260040180806020018281038252602e815260200180610fe6602e913960400191505060405180910390fd5b3373ffffffffffffffffffffffffffffffffffffffff166108fc829081150290604051600060405180830381858888f19350505050158015610d13573d6000803e3d6000fd5b5050565b80600260146101000a81548160ff02191690831515021790555050565b806000806101000a81548173ffffffffffffffffffffffffffffffffffffffff021916908373ffffffffffffffffffffffffffffffffffffffff16021790555050565b60008054906101000a900473ffffffffffffffffffffffffffffffffffffffff1673ffffffffffffffffffffffffffffffffffffffff163373ffffffffffffffffffffffffffffffffffffffff1614610e38576040517f08c379a000000000000000000000000000000000000000000000000000000000815260040180806020018281038252600d8152602001807f4163636573732064656e6965640000000000000000000000000000000000000081525060200191505060405180910390fd5b60016005600083815260200190815260200160002060040160006101000a81548160ff02191690831515021790555050565b600080828401905083811015610e7c57fe5b8091505092915050565b828054828255906000526020600020908101928215610eff579160200282015b82811115610efe5782518260006101000a81548173ffffffffffffffffffffffffffffffffffffffff021916908373ffffffffffffffffffffffffffffffffffffffff16021790555091602001919060010190610ea6565b5b509050610f0c9190610f10565b5090565b5b80821115610f29576000816000905550600101610f11565b509056fe54686973207469636b657420646f6573206e6f74206578697374206f72206973206e6f742063757272656e746c79206163746976652e57696e6e657273206861766520616c7265616479206265656e207069636b65642e5468697320696e666f726d6174696f6e20697320616c7265616479206265656e207472616e736665726564206f76657220746f20657468657265756d56616c75652073656e74206973206c657373207468616e207469636b65742070726963652e416d6f756e7420697320686967686572207468616e20617661696c61626c652065746865722062616c616e63652ea264697066735822122050dfe242b184863e9fff979f19d7dd713de5ea94c71756008526f14da83301e764736f6c63430007060033",
  "immutableReferences": {},
  "source": "// SPDX-License-Identifier: MIT\npragma solidity >=0.4.22 <0.9.0;\n\nimport \"./interfaces/SafeMath.sol\";\nimport \"./ExchangeOracle.sol\";\nimport \"./NFTLoan.sol\";\n\ncontract Lottery {\n    /**\n     * @dev Address of the API used for blockchain data migration\n     */\n    address private API;\n\n    /**\n     * @dev Address of dev panel\n     */\n    address private Oracle;\n\n    /**\n     * @dev Address of the NFT\n     */\n    address private NFT;\n\n    /**\n     * @dev Bool stores status for lottery. True - on / False - off.\n     */\n    bool public lotteryStatus;\n\n    /**\n     * @dev Variable stores all ether collected from ticket purchases.\n     */\n    uint256 totalFeeBalance;\n\n    /**\n     * @dev Function sets the address of the API\n     * @notice This action can only be perform under dev vote.\n     */\n    function setAPI(address _newAPI) public {\n        API = _newAPI;\n    } // Only dev contract // Deployed on Binance\n\n    /**\n     * @dev Function sets the status of the lottery\n     * @notice This action can only be perform under dev vote.\n     */\n    function setLottery(bool _status) public {\n        lotteryStatus = _status;\n    } // Only dev contract // Deployed on Binance\n\n    /**\n     * @dev Modifier restricts access to only API as msg.sender\n     */\n    modifier onlyAPI {\n        require(msg.sender == API, \"Access denied\");\n        _;\n    }\n\n    constructor(address _oracle, address _NFT) {\n        Oracle = _oracle;\n        NFT = _NFT;\n    }\n\n    // ****************************** Lottery - Staking ******************************\n    /**\n     * @dev Limit cap for API bot to handle lottery updating on ethereum chain\n     */\n    uint256 lotteryTicketCap;\n\n    /**\n     * @dev Struct saving ticket information\n     */\n    struct Lotteryticket {\n        address[] participants;\n        address[] winners;\n        uint256 dateLimit;\n        uint256 fee;\n        bool transferedChain;\n    }\n\n    /**\n     * @dev Mapping key value uint leads to information on respective lottery ticket\n     */\n    mapping(uint256 => Lotteryticket) public lotteryBook;\n\n    /**\n     * @dev Function gets winning lottery ticket and returns winning lottery\n     * tickets address\n     */\n    function getLotteryWinners(uint256 _lotteryTicket)\n        public\n        view\n        returns (address[] memory)\n    {\n        require(\n            lotteryBook[_lotteryTicket].transferedChain == false,\n            \"This information is already been transfered over to ethereum\"\n        );\n        return lotteryBook[_lotteryTicket].winners;\n    }\n\n    /**\n     * @dev Modifier gives parameters of a valid lottery ticket\n     */\n    modifier validEntry(uint256 _lotteryTicket) {\n        require(lotteryStatus == true, \"Lottery is currently offline.\");\n\n        require(\n            lotteryTicketCap == _lotteryTicket &&\n                lotteryBook[_lotteryTicket].dateLimit < block.timestamp,\n            \"This ticket does not exist or is not currently active.\"\n        );\n\n        require(\n            msg.value >= lotteryBook[_lotteryTicket].fee,\n            \"Value sent is less than ticket price.\"\n        );\n        _;\n    }\n\n    /**\n     * @dev Function creates a ticket for the lottery system\n     * @notice This action can only be perform under dev vote.\n     */\n    function createTicket(\n        uint256 _numWinners,\n        uint256 _feePrice,\n        uint256 _dateLimit\n    ) public {\n        lotteryBook[lotteryTicketCap] = Lotteryticket(\n            new address[](0),\n            new address[](_numWinners),\n            SafeMath.add(block.timestamp, _dateLimit),\n            _feePrice,\n            false\n        );\n        lotteryTicketCap = SafeMath.add(lotteryTicketCap, 1);\n    } // Only dev contract // Deployed on Binance\n\n    /**\n     * @dev\n     * @notice This action can only be perform by the API.\n     */\n    function setTicketStatus(uint256 _ticketQuery) public onlyAPI {\n        lotteryBook[_ticketQuery].transferedChain = true;\n    }\n\n    /**\n     * @dev Function purchases a ticket and records user address as lottery\n     * participant\n     */\n    function buyStakingTicket() public payable validEntry(lotteryTicketCap) {\n        lotteryBook[lotteryTicketCap].participants.push(msg.sender);\n        totalFeeBalance = SafeMath.add(totalFeeBalance, msg.value);\n    }\n\n    /**\n     * @dev Function changes the status of lottery ticket to the winner\n     */\n    function setLotteryWinners(uint256[] memory _winnerIndex) public onlyAPI {\n        uint256 currentTicket = lotteryTicketCap;\n\n        require(\n            lotteryBook[currentTicket].transferedChain == false,\n            \"Winners have already been picked.\"\n        );\n\n        for (uint256 i = 0; i < _winnerIndex.length; i++) {\n            lotteryBook[currentTicket].winners.push(\n                lotteryBook[currentTicket].participants[_winnerIndex[i]]\n            );\n        }\n    } // Only dev contract // Deployed on Binance\n\n    // ************************** Contract fee withdraw *************************\n    /**\n     * @dev Address stores the secondary recipient to withdraw funds from fees\n     * collected\n     */\n    address secondaryRecipient;\n\n    /**\n     * @dev Set secondary recipient for fee withdraw\n     */\n    function setSecondaryRecipient(address _newRecipient) public {\n        secondaryRecipient = _newRecipient;\n    }\n\n    /**\n     * @dev Withdraws a set amount of ether to fund API wallet\n     */\n    function fundAPI(uint256 _amount) public payable {\n        require(\n            _amount <= totalFeeBalance,\n            \"Amount is higher than available ether balance.\"\n        );\n        payable(msg.sender).transfer(_amount);\n    }\n\n    /**\n     * @dev Withdraw funds for secondary contracts\n     */\n    function fundSecondary(uint256 _amount) public payable {\n        require(\n            _amount <= totalFeeBalance,\n            \"Amount is higher than available ether balance.\"\n        );\n        payable(secondaryRecipient).transfer(_amount);\n    }\n}\n",
  "sourcePath": "/Users/christianroque/Desktop/TungstenGroupProject/contracts/Lottery.sol",
  "compiler": {
    "name": "solc",
    "version": "0.7.6+commit.7338295f.Emscripten.clang"
  },
  "schemaVersion": "3.3.4",
  "updatedAt": "2021-07-12T18:59:41.948Z",
  "devdoc": {
    "kind": "dev",
    "methods": {
      "buyStakingTicket()": {
        "details": "Function purchases a ticket and records user address as lottery participant"
      },
      "createTicket(uint256,uint256,uint256)": {
        "details": "Function creates a ticket for the lottery system"
      },
      "fundAPI(uint256)": {
        "details": "Withdraws a set amount of ether to fund API wallet"
      },
      "fundSecondary(uint256)": {
        "details": "Withdraw funds for secondary contracts"
      },
      "getLotteryWinners(uint256)": {
        "details": "Function gets winning lottery ticket and returns winning lottery tickets address"
      },
      "setAPI(address)": {
        "details": "Function sets the address of the API"
      },
      "setLottery(bool)": {
        "details": "Function sets the status of the lottery"
      },
      "setLotteryWinners(uint256[])": {
        "details": "Function changes the status of lottery ticket to the winner"
      },
      "setSecondaryRecipient(address)": {
        "details": "Set secondary recipient for fee withdraw"
      },
      "setTicketStatus(uint256)": {
        "details": "@notice This action can only be perform by the API."
      }
    },
    "stateVariables": {
      "API": {
        "details": "Address of the API used for blockchain data migration"
      },
      "NFT": {
        "details": "Address of the NFT"
      },
      "Oracle": {
        "details": "Address of dev panel"
      },
      "lotteryBook": {
        "details": "Mapping key value uint leads to information on respective lottery ticket"
      },
      "lotteryStatus": {
        "details": "Bool stores status for lottery. True - on / False - off."
      },
      "lotteryTicketCap": {
        "details": "Limit cap for API bot to handle lottery updating on ethereum chain"
      },
      "secondaryRecipient": {
        "details": "Address stores the secondary recipient to withdraw funds from fees collected"
      },
      "totalFeeBalance": {
        "details": "Variable stores all ether collected from ticket purchases."
      }
    },
    "version": 1
  },
  "userdoc": {
    "kind": "user",
    "methods": {
      "createTicket(uint256,uint256,uint256)": {
        "notice": "This action can only be perform under dev vote."
      },
      "setAPI(address)": {
        "notice": "This action can only be perform under dev vote."
      },
      "setLottery(bool)": {
        "notice": "This action can only be perform under dev vote."
      }
    },
    "version": 1
  }
}