{
  "contractName": "Lottery",
  "abi": [
    {
      "inputs": [],
      "name": "lotteryStatus",
      "outputs": [
        {
          "internalType": "bool",
          "name": "",
          "type": "bool"
        }
      ],
      "stateMutability": "view",
      "type": "function"
    },
    {
      "inputs": [
        {
          "internalType": "address",
          "name": "_newAPI",
          "type": "address"
        }
      ],
      "name": "setAPI",
      "outputs": [],
      "stateMutability": "nonpayable",
      "type": "function"
    },
    {
      "inputs": [
        {
          "internalType": "bool",
          "name": "_status",
          "type": "bool"
        }
      ],
      "name": "setLottery",
      "outputs": [],
      "stateMutability": "nonpayable",
      "type": "function"
    },
    {
      "inputs": [
        {
          "internalType": "uint256",
          "name": "_lotteryTicket",
          "type": "uint256"
        }
      ],
      "name": "getLotteryParticipants",
      "outputs": [
        {
          "internalType": "address[]",
          "name": "",
          "type": "address[]"
        }
      ],
      "stateMutability": "view",
      "type": "function"
    },
    {
      "inputs": [
        {
          "internalType": "uint256",
          "name": "_lotteryTicket",
          "type": "uint256"
        }
      ],
      "name": "getLotteryWinners",
      "outputs": [
        {
          "internalType": "address[]",
          "name": "",
          "type": "address[]"
        }
      ],
      "stateMutability": "view",
      "type": "function"
    },
    {
      "inputs": [
        {
          "internalType": "uint256",
          "name": "_numParticipants",
          "type": "uint256"
        },
        {
          "internalType": "uint256",
          "name": "_numWinners",
          "type": "uint256"
        },
        {
          "internalType": "uint256",
          "name": "_feePrice",
          "type": "uint256"
        },
        {
          "internalType": "uint256",
          "name": "_dateLimit",
          "type": "uint256"
        },
        {
          "internalType": "uint256",
          "name": "_lotteryType",
          "type": "uint256"
        }
      ],
      "name": "createTicket",
      "outputs": [],
      "stateMutability": "nonpayable",
      "type": "function"
    },
    {
      "inputs": [
        {
          "internalType": "uint256",
          "name": "_lotteryTicket",
          "type": "uint256"
        }
      ],
      "name": "buyStakingTicket",
      "outputs": [],
      "stateMutability": "payable",
      "type": "function"
    },
    {
      "inputs": [
        {
          "internalType": "uint256",
          "name": "_lotteryTicket",
          "type": "uint256"
        },
        {
          "internalType": "uint256",
          "name": "_slotNumber",
          "type": "uint256"
        }
      ],
      "name": "buyLotteryTicket",
      "outputs": [],
      "stateMutability": "payable",
      "type": "function"
    },
    {
      "inputs": [
        {
          "internalType": "uint256[]",
          "name": "_winnerIndex",
          "type": "uint256[]"
        },
        {
          "internalType": "uint256",
          "name": "_lotteryTicket",
          "type": "uint256"
        }
      ],
      "name": "setLotteryWinners",
      "outputs": [],
      "stateMutability": "nonpayable",
      "type": "function"
    },
    {
      "inputs": [],
      "name": "withdrawFunds",
      "outputs": [],
      "stateMutability": "payable",
      "type": "function"
    }
  ],
  "bytecode": "0x608060405234801561001057600080fd5b50610f8b806100206000396000f3fe6080604052600436106100915760003560e01c806368fb2eba1161005957806368fb2eba146101f8578063c949459b14610288578063cc042897146102b6578063e930fbd314610385578063e9b29a9d146103c257610091565b80630a801122146100965780630d683dd9146100ce57806315d0772c146100fb57806324600fc31461015e57806361cd6f5814610168575b600080fd5b6100cc600480360360408110156100ac57600080fd5b810190808035906020019092919080359060200190929190505050610413565b005b3480156100da57600080fd5b506100e3610794565b60405180821515815260200191505060405180910390f35b34801561010757600080fd5b5061015c600480360360a081101561011e57600080fd5b8101908080359060200190929190803590602001909291908035906020019092919080359060200190929190803590602001909291905050506107a7565b005b610166610903565b005b34801561017457600080fd5b506101a16004803603602081101561018b57600080fd5b8101908080359060200190929190505050610905565b6040518080602001828103825283818151815260200191508051906020019060200280838360005b838110156101e45780820151818401526020810190506101c9565b505050509050019250505060405180910390f35b34801561020457600080fd5b506102316004803603602081101561021b57600080fd5b81019080803590602001909291905050506109a9565b6040518080602001828103825283818151815260200191508051906020019060200280838360005b83811015610274578082015181840152602081019050610259565b505050509050019250505060405180910390f35b6102b46004803603602081101561029e57600080fd5b8101908080359060200190929190505050610a4d565b005b3480156102c257600080fd5b50610383600480360360408110156102d957600080fd5b81019080803590602001906401000000008111156102f657600080fd5b82018360208201111561030857600080fd5b8035906020019184602083028401116401000000008311171561032a57600080fd5b919080806020026020016040519081016040528093929190818152602001838360200280828437600081840152601f19601f82011690508083019250505050505050919291929080359060200190929190505050610c5e565b005b34801561039157600080fd5b506103c0600480360360208110156103a857600080fd5b81019080803515159060200190929190505050610ded565b005b3480156103ce57600080fd5b50610411600480360360208110156103e557600080fd5b81019080803573ffffffffffffffffffffffffffffffffffffffff169060200190929190505050610e0a565b005b8160011515600060149054906101000a900460ff1615151461049d576040517f08c379a000000000000000000000000000000000000000000000000000000000815260040180806020018281038252601c8152602001807f4c6f74746572792069732063757272656e746c79206f66666c696e650000000081525060200191505060405180910390fd5b42600360008381526020019081526020016000206003015410610528576040517f08c379a00000000000000000000000000000000000000000000000000000000081526004018080602001828103825260158152602001807f5469636b657420646f6573206e6f74206578697374000000000000000000000081525060200191505060405180910390fd5b6003600082815260200190815260200160002060040154341015610597576040517f08c379a0000000000000000000000000000000000000000000000000000000008152600401808060200182810382526024815260200180610f326024913960400191505060405180910390fd5b60036000848152602001908152602001600020600001805490508210610625576040517f08c379a000000000000000000000000000000000000000000000000000000000815260040180806020018281038252601e8152602001807f536c6f74206e756d6265722069732061626f766520737570706f72746564000081525060200191505060405180910390fd5b600073ffffffffffffffffffffffffffffffffffffffff1660036000858152602001908152602001600020600001838154811061065e57fe5b9060005260206000200160009054906101000a900473ffffffffffffffffffffffffffffffffffffffff1673ffffffffffffffffffffffffffffffffffffffff161415610713576040517f08c379a00000000000000000000000000000000000000000000000000000000081526004018080602001828103825260158152602001807f536c6f742069732074616b656e20616c7265616479000000000000000000000081525060200191505060405180910390fd5b3360036000858152602001908152602001600020600001838154811061073557fe5b9060005260206000200160006101000a81548173ffffffffffffffffffffffffffffffffffffffff021916908373ffffffffffffffffffffffffffffffffffffffff16021790555061078960015434610e4d565b600181905550505050565b600060149054906101000a900460ff1681565b6040518060c001604052808667ffffffffffffffff811180156107c957600080fd5b506040519080825280602002602001820160405280156107f85781602001602082028036833780820191505090505b5081526020018567ffffffffffffffff8111801561081557600080fd5b506040519080825280602002602001820160405280156108445781602001602082028036833780820191505090505b50815260200182815260200161085a4285610e4d565b815260200184815260200160001515815250600360006002548152602001908152602001600020600082015181600001908051906020019061089d929190610e69565b5060208201518160010190805190602001906108ba929190610e69565b5060408201518160020155606082015181600301556080820151816004015560a08201518160050160006101000a81548160ff0219169083151502179055509050505050505050565b565b60606003600083815260200190815260200160002060010180548060200260200160405190810160405280929190818152602001828054801561099d57602002820191906000526020600020905b8160009054906101000a900473ffffffffffffffffffffffffffffffffffffffff1673ffffffffffffffffffffffffffffffffffffffff1681526020019060010190808311610953575b50505050509050919050565b606060036000838152602001908152602001600020600001805480602002602001604051908101604052809291908181526020018280548015610a4157602002820191906000526020600020905b8160009054906101000a900473ffffffffffffffffffffffffffffffffffffffff1673ffffffffffffffffffffffffffffffffffffffff16815260200190600101908083116109f7575b50505050509050919050565b8060011515600060149054906101000a900460ff16151514610ad7576040517f08c379a000000000000000000000000000000000000000000000000000000000815260040180806020018281038252601c8152602001807f4c6f74746572792069732063757272656e746c79206f66666c696e650000000081525060200191505060405180910390fd5b42600360008381526020019081526020016000206003015410610b62576040517f08c379a00000000000000000000000000000000000000000000000000000000081526004018080602001828103825260158152602001807f5469636b657420646f6573206e6f74206578697374000000000000000000000081525060200191505060405180910390fd5b6003600082815260200190815260200160002060040154341015610bd1576040517f08c379a0000000000000000000000000000000000000000000000000000000008152600401808060200182810382526024815260200180610f326024913960400191505060405180910390fd5b60036000838152602001908152602001600020600001339080600181540180825580915050600190039060005260206000200160009091909190916101000a81548173ffffffffffffffffffffffffffffffffffffffff021916908373ffffffffffffffffffffffffffffffffffffffff160217905550610c5460015434610e4d565b6001819055505050565b600015156003600083815260200190815260200160002060050160009054906101000a900460ff16151514610cde576040517f08c379a0000000000000000000000000000000000000000000000000000000008152600401808060200182810382526021815260200180610f116021913960400191505060405180910390fd5b60005b8251811015610db95760036000838152602001908152602001600020600101600360008481526020019081526020016000206000018281548110610d2157fe5b9060005260206000200160009054906101000a900473ffffffffffffffffffffffffffffffffffffffff169080600181540180825580915050600190039060005260206000200160009091909190916101000a81548173ffffffffffffffffffffffffffffffffffffffff021916908373ffffffffffffffffffffffffffffffffffffffff1602179055508080600101915050610ce1565b5060016003600083815260200190815260200160002060050160006101000a81548160ff0219169083151502179055505050565b80600060146101000a81548160ff02191690831515021790555050565b806000806101000a81548173ffffffffffffffffffffffffffffffffffffffff021916908373ffffffffffffffffffffffffffffffffffffffff16021790555050565b600080828401905083811015610e5f57fe5b8091505092915050565b828054828255906000526020600020908101928215610ee2579160200282015b82811115610ee15782518260006101000a81548173ffffffffffffffffffffffffffffffffffffffff021916908373ffffffffffffffffffffffffffffffffffffffff16021790555091602001919060010190610e89565b5b509050610eef9190610ef3565b5090565b5b80821115610f0c576000816000905550600101610ef4565b509056fe57696e6e657273206861766520616c7265616479206265656e207069636b65642e56616c75652073656e74206973206c657373207468616e207469636b6574207072696365a26469706673582212200951a2462fa91884d085538fef2e9c123aa322e3ca00ab19a0c08220516c808464736f6c63430007060033",
  "immutableReferences": {},
  "source": "// SPDX-License-Identifier: MIT\npragma solidity >=0.4.22 <0.9.0;\n\nimport \"./interfaces/Ownable.sol\";\nimport \"./interfaces/IERC20.sol\";\nimport \"./interfaces/SafeMath.sol\";\nimport \"./interfaces/UniversalERC20.sol\";\nimport \"./ExchangeOracle.sol\";\nimport \"./NFTLoan.sol\";\n\ncontract Lottery {\n\n    /**\n     * @dev Variable of address of the API\n     */\n    address private API;\n    \n    /**\n     * @dev Variable gives the lottery status \n     */\n    bool public lotteryStatus;\n    \n    /**\n     * @dev Variable that gives the total fee balance of the lottery\n     */\n    uint256 totalFeeBalance;\n    \n    /**\n     * @dev Function sets the Api of the address\n     */\n    function setAPI(address _newAPI) public {\n        API = _newAPI;\n    } // Only dev contract // Deployed on Binance\n    \n    /**\n     * @dev Function sets the status of the lottery\n     */\n    function setLottery(bool _status) public {\n        lotteryStatus = _status;\n    } // Only dev contract // Deployed on Binance\n\n    // ****************************** Lottery - Staking ******************************\n\n    uint256 lotteryTicketCap;\n\n    struct Lotteryticket {\n        address[] participants;\n        address[] winners;\n        uint256 lotteryType;\n        uint256 dateLimit;\n        uint256 fee;\n        bool pickedWinners;\n    }\n\n    mapping(uint256 => Lotteryticket) lotteryBook;\n    \n    /**\n     * @dev Function gets lottery tickets and returns \n     * address of lottery ticket participants\n     */\n    function getLotteryParticipants(uint256 _lotteryTicket)\n        public\n        view\n        returns (address[] memory)\n    {\n        return lotteryBook[_lotteryTicket].participants;\n    }\n    \n    /**\n     * @dev Function gets winning lottery ticket and returns winning lottery \n     * tickets address\n     */\n    function getLotteryWinners(uint256 _lotteryTicket)\n        public\n        view\n        returns (address[] memory)\n    {\n        return lotteryBook[_lotteryTicket].winners;\n    }\n    \n    /**\n     * @dev Modifier gives parameters of a valid lottery ticket\n     */\n    modifier validEntry(uint256 _lotteryTicket) {\n        require(lotteryStatus == true, \"Lottery is currently offline\");\n        require(\n            lotteryBook[_lotteryTicket].dateLimit < block.timestamp,\n            \"Ticket does not exist\"\n        );\n\n        require(\n            msg.value >= lotteryBook[_lotteryTicket].fee,\n            \"Value sent is less than ticket price\"\n        );\n        _;\n    }\n    \n    /**\n     * @dev Function creates a ticket for the lottery system\n     */\n    function createTicket(\n        uint256 _numParticipants,\n        uint256 _numWinners,\n        uint256 _feePrice,\n        uint256 _dateLimit,\n        uint256 _lotteryType\n    ) public {\n        // Staking _numParticipants must be 0\n        lotteryBook[lotteryTicketCap] = Lotteryticket(\n            new address[](_numParticipants),\n            new address[](_numWinners),\n            _lotteryType,\n            SafeMath.add(block.timestamp, _dateLimit),\n            _feePrice,\n            false\n        );\n    } // Only dev contract // Deployed on Binance\n    \n    \n    function buyStakingTicket(uint256 _lotteryTicket)\n        public\n        payable\n        validEntry(_lotteryTicket)\n    {\n        lotteryBook[_lotteryTicket].participants.push(msg.sender);\n        totalFeeBalance = SafeMath.add(totalFeeBalance, msg.value);\n    }\n    \n    /**\n     * @dev Function allows user to buy open slot of a lottery ticket\n     */\n    function buyLotteryTicket(uint256 _lotteryTicket, uint256 _slotNumber)\n        public\n        payable\n        validEntry(_lotteryTicket)\n    {\n        require(\n            _slotNumber < lotteryBook[_lotteryTicket].participants.length,\n            \"Slot number is above supported\"\n        );\n        require(\n            lotteryBook[_lotteryTicket].participants[_slotNumber] !=\n                address(0x0),\n            \"Slot is taken already\"\n        );\n        lotteryBook[_lotteryTicket].participants[_slotNumber] = msg.sender;\n        totalFeeBalance = SafeMath.add(totalFeeBalance, msg.value);\n    }\n    \n    /**\n     * @dev Function changes the status of lottery ticket to the winner\n     */\n    function setLotteryWinners(\n        uint256[] memory _winnerIndex,\n        uint256 _lotteryTicket\n    ) public {\n        require(\n            lotteryBook[_lotteryTicket].pickedWinners == false,\n            \"Winners have already been picked.\"\n        );\n        for (uint256 i = 0; i < _winnerIndex.length; i++) {\n            lotteryBook[_lotteryTicket].winners.push(\n                lotteryBook[_lotteryTicket].participants[i]\n            );\n        }\n        lotteryBook[_lotteryTicket].pickedWinners = true;\n    } // Only dev contract // Deployed on Binance\n\n    // ************************** Contract fee withdraw *************************\n    \n    /**\n     * @dev Withdraw funds of the lottery\n     */\n    function withdrawFunds() public payable {}\n}\n",
  "sourcePath": "/Users/christianroque/Desktop/TungstenGroupProject/contracts/Lottery.sol",
  "compiler": {
    "name": "solc",
    "version": "0.7.6+commit.7338295f.Emscripten.clang"
  },
  "schemaVersion": "3.3.4",
  "updatedAt": "2021-07-03T05:28:46.743Z",
  "devdoc": {
    "kind": "dev",
    "methods": {
      "buyLotteryTicket(uint256,uint256)": {
        "details": "Function allows user to buy open slot of a lottery ticket"
      },
      "createTicket(uint256,uint256,uint256,uint256,uint256)": {
        "details": "Function creates a ticket for the lottery system"
      },
      "getLotteryParticipants(uint256)": {
        "details": "Function gets lottery tickets and returns  address of lottery ticket participants"
      },
      "getLotteryWinners(uint256)": {
        "details": "Function gets winning lottery ticket and returns winning lottery  tickets address"
      },
      "setAPI(address)": {
        "details": "Function sets the Api of the address"
      },
      "setLottery(bool)": {
        "details": "Function sets the status of the lottery"
      },
      "setLotteryWinners(uint256[],uint256)": {
        "details": "Function changes the status of lottery ticket to the winner"
      },
      "withdrawFunds()": {
        "details": "Withdraw funds of the lottery"
      }
    },
    "stateVariables": {
      "API": {
        "details": "Variable of address of the API"
      },
      "lotteryStatus": {
        "details": "Variable gives the lottery status "
      },
      "totalFeeBalance": {
        "details": "Variable that gives the total fee balance of the lottery"
      }
    },
    "version": 1
  },
  "userdoc": {
    "kind": "user",
    "methods": {},
    "version": 1
  }
}