{
  "contractName": "NFTLoan",
  "abi": [
    {
      "inputs": [
        {
          "internalType": "address",
          "name": "_oracle",
          "type": "address"
        },
        {
          "internalType": "address",
          "name": "_treasury",
          "type": "address"
        }
      ],
      "stateMutability": "nonpayable",
      "type": "constructor"
    },
    {
      "anonymous": false,
      "inputs": [
        {
          "indexed": true,
          "internalType": "address",
          "name": "_from",
          "type": "address"
        },
        {
          "indexed": true,
          "internalType": "address",
          "name": "_to",
          "type": "address"
        },
        {
          "indexed": true,
          "internalType": "uint256",
          "name": "_tokenId",
          "type": "uint256"
        }
      ],
      "name": "Transfer",
      "type": "event"
    },
    {
      "inputs": [
        {
          "internalType": "address",
          "name": "_owner",
          "type": "address"
        }
      ],
      "name": "balanceOf",
      "outputs": [
        {
          "internalType": "uint256",
          "name": "",
          "type": "uint256"
        }
      ],
      "stateMutability": "view",
      "type": "function"
    },
    {
      "inputs": [
        {
          "internalType": "uint256",
          "name": "_tokenId",
          "type": "uint256"
        }
      ],
      "name": "ownerOf",
      "outputs": [
        {
          "internalType": "address",
          "name": "_owner",
          "type": "address"
        }
      ],
      "stateMutability": "view",
      "type": "function"
    },
    {
      "inputs": [],
      "name": "name",
      "outputs": [
        {
          "internalType": "string",
          "name": "_name",
          "type": "string"
        }
      ],
      "stateMutability": "view",
      "type": "function"
    },
    {
      "inputs": [
        {
          "internalType": "address",
          "name": "_to",
          "type": "address"
        },
        {
          "internalType": "uint256",
          "name": "_tokenId",
          "type": "uint256"
        },
        {
          "internalType": "uint64",
          "name": "_riskScore",
          "type": "uint64"
        },
        {
          "internalType": "uint64",
          "name": "_riskFactor",
          "type": "uint64"
        },
        {
          "internalType": "uint64",
          "name": "_interestRate",
          "type": "uint64"
        },
        {
          "internalType": "uint64",
          "name": "_userMaxTier",
          "type": "uint64"
        },
        {
          "internalType": "uint256",
          "name": "_flatfee",
          "type": "uint256"
        },
        {
          "internalType": "string",
          "name": "_uri",
          "type": "string"
        }
      ],
      "name": "mintBorrower",
      "outputs": [],
      "stateMutability": "nonpayable",
      "type": "function"
    },
    {
      "inputs": [
        {
          "internalType": "address",
          "name": "_to",
          "type": "address"
        },
        {
          "internalType": "uint64",
          "name": "_riskScore",
          "type": "uint64"
        },
        {
          "internalType": "uint64",
          "name": "_riskFactor",
          "type": "uint64"
        },
        {
          "internalType": "uint64",
          "name": "_interestRate",
          "type": "uint64"
        },
        {
          "internalType": "uint64",
          "name": "_userMaxTier",
          "type": "uint64"
        },
        {
          "internalType": "uint256",
          "name": "_flatfee",
          "type": "uint256"
        },
        {
          "internalType": "uint256",
          "name": "score",
          "type": "uint256"
        }
      ],
      "name": "updateBorrower",
      "outputs": [],
      "stateMutability": "nonpayable",
      "type": "function"
    },
    {
      "inputs": [
        {
          "internalType": "address",
          "name": "_from",
          "type": "address"
        }
      ],
      "name": "strikeBorrower",
      "outputs": [],
      "stateMutability": "nonpayable",
      "type": "function"
    },
    {
      "inputs": [
        {
          "internalType": "address",
          "name": "_from",
          "type": "address"
        }
      ],
      "name": "getUser",
      "outputs": [
        {
          "internalType": "uint256",
          "name": "",
          "type": "uint256"
        },
        {
          "internalType": "uint256",
          "name": "",
          "type": "uint256"
        },
        {
          "internalType": "uint256",
          "name": "",
          "type": "uint256"
        },
        {
          "internalType": "uint256",
          "name": "",
          "type": "uint256"
        },
        {
          "internalType": "uint256",
          "name": "",
          "type": "uint256"
        }
      ],
      "stateMutability": "view",
      "type": "function"
    },
    {
      "inputs": [],
      "name": "setOracleNFT",
      "outputs": [],
      "stateMutability": "nonpayable",
      "type": "function"
    },
    {
      "inputs": [],
      "name": "setTreasury",
      "outputs": [],
      "stateMutability": "nonpayable",
      "type": "function"
    }
  ],
  "bytecode": "0x60806040523480156200001157600080fd5b50604051620016c1380380620016c1833981810160405260408110156200003757600080fd5b8101908080519060200190929190805190602001909291905050506040518060400160405280600481526020017f434e465400000000000000000000000000000000000000000000000000000000815250600090805190602001906200009f9291906200012a565b5081600560006101000a81548173ffffffffffffffffffffffffffffffffffffffff021916908373ffffffffffffffffffffffffffffffffffffffff16021790555080600660006101000a81548173ffffffffffffffffffffffffffffffffffffffff021916908373ffffffffffffffffffffffffffffffffffffffff1602179055505050620001e0565b828054600181600116156101000203166002900490600052602060002090601f016020900481019282620001625760008555620001ae565b82601f106200017d57805160ff1916838001178555620001ae565b82800160010185558215620001ae579182015b82811115620001ad57825182559160200191906001019062000190565b5b509050620001bd9190620001c1565b5090565b5b80821115620001dc576000816000905550600101620001c2565b5090565b6114d180620001f06000396000f3fe608060405234801561001057600080fd5b50600436106100935760003560e01c806388b549421161006657806388b549421461023f5780638a49c00a146102495780639d004f62146102535780639d95e39714610297578063eb9153611461033f57610093565b806306fdde03146100985780636352211e1461011b5780636f77926b1461017357806370a08231146101e7575b600080fd5b6100a061047f565b6040518080602001828103825283818151815260200191508051906020019080838360005b838110156100e05780820151818401526020810190506100c5565b50505050905090810190601f16801561010d5780820380516001836020036101000a031916815260200191505b509250505060405180910390f35b6101476004803603602081101561013157600080fd5b8101908080359060200190929190505050610521565b604051808273ffffffffffffffffffffffffffffffffffffffff16815260200191505060405180910390f35b6101b56004803603602081101561018957600080fd5b81019080803573ffffffffffffffffffffffffffffffffffffffff1690602001909291905050506105ce565b604051808681526020018581526020018481526020018381526020018281526020019550505050505060405180910390f35b610229600480360360208110156101fd57600080fd5b81019080803573ffffffffffffffffffffffffffffffffffffffff1690602001909291905050506107ea565b6040518082815260200191505060405180910390f35b610247610835565b005b610251610a19565b005b6102956004803603602081101561026957600080fd5b81019080803573ffffffffffffffffffffffffffffffffffffffff169060200190929190505050610bfd565b005b61033d600480360360e08110156102ad57600080fd5b81019080803573ffffffffffffffffffffffffffffffffffffffff169060200190929190803567ffffffffffffffff169060200190929190803567ffffffffffffffff169060200190929190803567ffffffffffffffff169060200190929190803567ffffffffffffffff1690602001909291908035906020019092919080359060200190929190505050610d45565b005b61047d600480360361010081101561035657600080fd5b81019080803573ffffffffffffffffffffffffffffffffffffffff16906020019092919080359060200190929190803567ffffffffffffffff169060200190929190803567ffffffffffffffff169060200190929190803567ffffffffffffffff169060200190929190803567ffffffffffffffff16906020019092919080359060200190929190803590602001906401000000008111156103f757600080fd5b82018360208201111561040957600080fd5b8035906020019184600183028401116401000000008311171561042b57600080fd5b91908080601f016020809104026020016040519081016040528093929190818152602001838380828437600081840152601f19601f820116905080830192505050505050509192919290505050610ee4565b005b606060008054600181600116156101000203166002900480601f0160208091040260200160405190810160405280929190818152602001828054600181600116156101000203166002900480156105175780601f106104ec57610100808354040283529160200191610517565b820191906000526020600020905b8154815290600101906020018083116104fa57829003601f168201915b5050505050905090565b60006001600083815260200190815260200160002060009054906101000a900473ffffffffffffffffffffffffffffffffffffffff169050600073ffffffffffffffffffffffffffffffffffffffff168173ffffffffffffffffffffffffffffffffffffffff16141561059357600080fd5b6001600083815260200190815260200160002060009054906101000a900473ffffffffffffffffffffffffffffffffffffffff169050919050565b6000806000806000600560009054906101000a900473ffffffffffffffffffffffffffffffffffffffff1673ffffffffffffffffffffffffffffffffffffffff163373ffffffffffffffffffffffffffffffffffffffff16148061067f5750600660009054906101000a900473ffffffffffffffffffffffffffffffffffffffff1673ffffffffffffffffffffffffffffffffffffffff163373ffffffffffffffffffffffffffffffffffffffff16145b61068857600080fd5b600260008773ffffffffffffffffffffffffffffffffffffffff1673ffffffffffffffffffffffffffffffffffffffff16815260200190815260200160002060000154600260008873ffffffffffffffffffffffffffffffffffffffff1673ffffffffffffffffffffffffffffffffffffffff16815260200190815260200160002060010154600260008973ffffffffffffffffffffffffffffffffffffffff1673ffffffffffffffffffffffffffffffffffffffff16815260200190815260200160002060020154600260008a73ffffffffffffffffffffffffffffffffffffffff1673ffffffffffffffffffffffffffffffffffffffff16815260200190815260200160002060030154600260008b73ffffffffffffffffffffffffffffffffffffffff1673ffffffffffffffffffffffffffffffffffffffff168152602001908152602001600020600401549450945094509450945091939590929450565b60008073ffffffffffffffffffffffffffffffffffffffff168273ffffffffffffffffffffffffffffffffffffffff16141561082557600080fd5b61082e82611099565b9050919050565b600560009054906101000a900473ffffffffffffffffffffffffffffffffffffffff1673ffffffffffffffffffffffffffffffffffffffff163373ffffffffffffffffffffffffffffffffffffffff1614806108de5750600660009054906101000a900473ffffffffffffffffffffffffffffffffffffffff1673ffffffffffffffffffffffffffffffffffffffff163373ffffffffffffffffffffffffffffffffffffffff16145b6108e757600080fd5b6000600560009054906101000a900473ffffffffffffffffffffffffffffffffffffffff1673ffffffffffffffffffffffffffffffffffffffff166345d4671f60326040518263ffffffff1660e01b815260040180828152602001806020018281038252600c8152602001807f7365744f7261636c654e4654000000000000000000000000000000000000000081525060200192505050602060405180830381600087803b15801561099857600080fd5b505af11580156109ac573d6000803e3d6000fd5b505050506040513d60208110156109c257600080fd5b8101908080519060200190929190505050905080600560006101000a81548173ffffffffffffffffffffffffffffffffffffffff021916908373ffffffffffffffffffffffffffffffffffffffff16021790555050565b600560009054906101000a900473ffffffffffffffffffffffffffffffffffffffff1673ffffffffffffffffffffffffffffffffffffffff163373ffffffffffffffffffffffffffffffffffffffff161480610ac25750600660009054906101000a900473ffffffffffffffffffffffffffffffffffffffff1673ffffffffffffffffffffffffffffffffffffffff163373ffffffffffffffffffffffffffffffffffffffff16145b610acb57600080fd5b6000600560009054906101000a900473ffffffffffffffffffffffffffffffffffffffff1673ffffffffffffffffffffffffffffffffffffffff166345d4671f60326040518263ffffffff1660e01b815260040180828152602001806020018281038252600b8152602001807f736574547265617375727900000000000000000000000000000000000000000081525060200192505050602060405180830381600087803b158015610b7c57600080fd5b505af1158015610b90573d6000803e3d6000fd5b505050506040513d6020811015610ba657600080fd5b8101908080519060200190929190505050905080600660006101000a81548173ffffffffffffffffffffffffffffffffffffffff021916908373ffffffffffffffffffffffffffffffffffffffff16021790555050565b600560009054906101000a900473ffffffffffffffffffffffffffffffffffffffff1673ffffffffffffffffffffffffffffffffffffffff163373ffffffffffffffffffffffffffffffffffffffff161480610ca65750600660009054906101000a900473ffffffffffffffffffffffffffffffffffffffff1673ffffffffffffffffffffffffffffffffffffffff163373ffffffffffffffffffffffffffffffffffffffff16145b610caf57600080fd5b610cfc600260008373ffffffffffffffffffffffffffffffffffffffff1673ffffffffffffffffffffffffffffffffffffffff1681526020019081526020016000206000015460016110e2565b600260008373ffffffffffffffffffffffffffffffffffffffff1673ffffffffffffffffffffffffffffffffffffffff1681526020019081526020016000206000018190555050565b600560009054906101000a900473ffffffffffffffffffffffffffffffffffffffff1673ffffffffffffffffffffffffffffffffffffffff163373ffffffffffffffffffffffffffffffffffffffff161480610dee5750600660009054906101000a900473ffffffffffffffffffffffffffffffffffffffff1673ffffffffffffffffffffffffffffffffffffffff163373ffffffffffffffffffffffffffffffffffffffff16145b610df757600080fd5b6040518060e001604052808767ffffffffffffffff1681526020018667ffffffffffffffff1681526020018567ffffffffffffffff1681526020018467ffffffffffffffff1681526020018381526020016000815260200182815250600260008973ffffffffffffffffffffffffffffffffffffffff1673ffffffffffffffffffffffffffffffffffffffff168152602001908152602001600020600082015181600001556020820151816001015560408201518160020155606082015181600301556080820151816004015560a0820151816005015560c0820151816006015590505050505050505050565b600560009054906101000a900473ffffffffffffffffffffffffffffffffffffffff1673ffffffffffffffffffffffffffffffffffffffff163373ffffffffffffffffffffffffffffffffffffffff161480610f8d5750600660009054906101000a900473ffffffffffffffffffffffffffffffffffffffff1673ffffffffffffffffffffffffffffffffffffffff163373ffffffffffffffffffffffffffffffffffffffff16145b610f9657600080fd5b610fa088886110fe565b610faa878261120d565b6040518060e001604052808767ffffffffffffffff1681526020018667ffffffffffffffff1681526020018567ffffffffffffffff1681526020018467ffffffffffffffff168152602001838152602001600081526020016000815250600260008a73ffffffffffffffffffffffffffffffffffffffff1673ffffffffffffffffffffffffffffffffffffffff168152602001908152602001600020600082015181600001556020820151816001015560408201518160020155606082015181600301556080820151816004015560a0820151816005015560c082015181600601559050505050505050505050565b6000600360008373ffffffffffffffffffffffffffffffffffffffff1673ffffffffffffffffffffffffffffffffffffffff168152602001908152602001600020549050919050565b6000808284019050838110156110f457fe5b8091505092915050565b600073ffffffffffffffffffffffffffffffffffffffff168273ffffffffffffffffffffffffffffffffffffffff16141561113857600080fd5b600073ffffffffffffffffffffffffffffffffffffffff166001600083815260200190815260200160002060009054906101000a900473ffffffffffffffffffffffffffffffffffffffff1673ffffffffffffffffffffffffffffffffffffffff16146111a457600080fd5b6111ae82826112a8565b808273ffffffffffffffffffffffffffffffffffffffff163073ffffffffffffffffffffffffffffffffffffffff167fddf252ad1be2c89b69c2b068fc378daa952ba7f163c4a11628f55a4df523b3ef60405160405180910390a45050565b81600073ffffffffffffffffffffffffffffffffffffffff166001600083815260200190815260200160002060009054906101000a900473ffffffffffffffffffffffffffffffffffffffff1673ffffffffffffffffffffffffffffffffffffffff16141561127b57600080fd5b816004600085815260200190815260200160002090805190602001906112a29291906113f0565b50505050565b600073ffffffffffffffffffffffffffffffffffffffff166001600083815260200190815260200160002060009054906101000a900473ffffffffffffffffffffffffffffffffffffffff1673ffffffffffffffffffffffffffffffffffffffff161461131457600080fd5b816001600083815260200190815260200160002060006101000a81548173ffffffffffffffffffffffffffffffffffffffff021916908373ffffffffffffffffffffffffffffffffffffffff1602179055506001600360008473ffffffffffffffffffffffffffffffffffffffff1673ffffffffffffffffffffffffffffffffffffffff1681526020019081526020016000205401600360008473ffffffffffffffffffffffffffffffffffffffff1673ffffffffffffffffffffffffffffffffffffffff168152602001908152602001600020819055505050565b828054600181600116156101000203166002900490600052602060002090601f016020900481019282611426576000855561146d565b82601f1061143f57805160ff191683800117855561146d565b8280016001018555821561146d579182015b8281111561146c578251825591602001919060010190611451565b5b50905061147a919061147e565b5090565b5b8082111561149757600081600090555060010161147f565b509056fea2646970667358221220b3b3abe5bc996ce50243847198fb57adcd8d5db7a88272710e3f1f2970f9780964736f6c63430007060033",
  "immutableReferences": {},
  "source": "// SPDX-License-Identifier: MIT\npragma solidity >=0.6.0 <0.8.0;\nimport \"./interfaces/SafeMath.sol\";\nimport \"./ExchangeOracle.sol\";\n\ncontract NFTLoan {\n    event Transfer(\n        address indexed _from,\n        address indexed _to,\n        uint256 indexed _tokenId\n    );\n\n    /**\n     * @dev String that stores the name of the NFT\n     */\n    string internal nftName;\n\n    /**\n     * @dev Mapping with key value uint256, used to attach the NFTid to an address\n     */\n    mapping(uint256 => address) internal ownerId;\n\n    /**\n     * @dev Mapping with key value address, used to show the variety of NFT data that belongs to an address\n     */\n    mapping(address => Data) private userData;\n\n    /**\n     * @dev Mapping with key value address, used to return the number of NFTs an address owns\n     */\n    mapping(address => uint256) private ownerToNFTokenCount;\n\n    /**\n     * @dev Mapping with key value uint256, used to attcah the NFTid to the NFT name\n     */\n    mapping(uint256 => string) private idToUri;\n\n    /**\n     * @dev creating oracle instance\n     */\n    ExchangeOracle oracle;\n    address Treasury;\n\n    /**\n     * @dev Struct to store user data inside the NFT\n     */\n    struct Data {\n        uint256 riskScore;\n        uint256 riskFactor;\n        uint256 interestRate;\n        uint256 userMaxTier;\n        uint256 flatfee;\n        uint256 strikes;\n        uint256 score;\n    }\n\n    /**\n     * @dev Modifier checks if the msg.sender is the same as the tokenOwner\n     */\n    modifier canTransfer(uint256 _tokenId) {\n        address tokenOwner = ownerId[_tokenId];\n        require(tokenOwner == msg.sender);\n        _;\n    }\n\n    /**\n     * @dev Modifier checks to make sure that the NFTid does not belong to an empty address\n     */\n    modifier validNFToken(uint256 _tokenId) {\n        require(ownerId[_tokenId] != address(0));\n        _;\n    }\n\n    /**\n     * @dev Modifier checks to make sure that the msg.sender belongs to the oracle or treasury address\n     */\n    modifier validEntry() {\n        require(msg.sender == address(oracle) || msg.sender == Treasury);\n        _;\n    }\n\n    constructor(address _oracle, address _treasury) {\n        nftName = \"CNFT\";\n        oracle = ExchangeOracle(_oracle);\n        Treasury = _treasury;\n    }\n\n    /**\n     * @dev Getter function that determines the number of NFTs a particular address owns\n     * @param _owner The owner's address\n     * @return Returns a uint256\n     */\n    function balanceOf(address _owner) external view returns (uint256) {\n        require(_owner != address(0));\n        return _getOwnerNFTCount(_owner);\n    }\n\n    /**\n     * @dev Getter function that determines the owner of a NFTid\n     * @param _tokenId The NFTid you want to check\n     * @return _owner Returns an address\n     */\n    function ownerOf(uint256 _tokenId) external view returns (address _owner) {\n        _owner = ownerId[_tokenId];\n        require(_owner != address(0));\n        return ownerId[_tokenId];\n    }\n\n    /**\n     * @dev No transfers, function not needed\n     */\n    function _safeTransferFrom(\n        address _from,\n        address _to,\n        uint256 _tokenId\n    ) private canTransfer(_tokenId) validNFToken(_tokenId) {\n        require(false == true); // Turned off - No transfer\n    }\n\n    /**\n     * @dev No transfers, function not needed\n     */\n    function _transfer(address _to, uint256 _tokenId) internal {\n        require(false == true); // Turned off - No transfer\n    }\n\n    /**\n     * @dev Getter function that returns the name of the NFT (string)\n     */\n    function name() external view returns (string memory _name) {\n        _name = nftName;\n    }\n\n    /**\n     * @dev Setter function that sets the name of the nftName\n     * @param _tokenId The NFTid of the token\n     * @param _uri The name you want to assign\n     */\n    function _setTokenUri(uint256 _tokenId, string memory _uri)\n        internal\n        validNFToken(_tokenId)\n    {\n        idToUri[_tokenId] = _uri;\n    }\n\n    /**\n     * @dev Facilitates the creation of a new NFT. The function check to make sure\n     * the NFTid is unique and that the owner is currently an empty address\n     * before transferring to the account\n     * @param _to The address that will receive the NFT\n     * @param _tokenId The NFTid\n     */\n    function _mint(address _to, uint256 _tokenId) internal {\n        require(_to != address(0));\n        require(ownerId[_tokenId] == address(0));\n\n        _addNFToken(_to, _tokenId);\n\n        emit Transfer(address(this), _to, _tokenId);\n    }\n\n    /**\n     * @dev Mints an NFT for the borrower by calling previous functions\n     * and accessing data from the struct\n     * @param _to The address that will receive the NFT\n     * @param _tokenId The NFTid\n     * @param _riskScore The riskScore of the receiver\n     * @param _riskFactor The riskFactor of the receiver\n     * @param _interestRate The interestRate the receiver is charged\n     * @param _userMaxTier The max tier of the receiver\n     * @param _flatfee The fee applied when receiving an NFT\n     */\n    function mintBorrower(\n        address _to,\n        uint256 _tokenId,\n        uint64 _riskScore,\n        uint64 _riskFactor,\n        uint64 _interestRate,\n        uint64 _userMaxTier,\n        uint256 _flatfee,\n        string memory _uri\n    ) public validEntry {\n        _mint(_to, _tokenId);\n        _setTokenUri(_tokenId, _uri);\n        userData[_to] = Data(\n            _riskScore,\n            _riskFactor,\n            _interestRate,\n            _userMaxTier,\n            _flatfee,\n            0,\n            0\n        );\n    }\n\n    /**\n     * @dev Function used to update the Data struct of the client\n     * @param _to The address that needs to updated\n     * @param _riskScore The riskScore of the receiver\n     * @param _riskFactor The riskFactor of the receiver\n     * @param _interestRate The interestRate the receiver is charged\n     * @param _userMaxTier The max tier of the receiver\n     * @param _flatfee The fee applied when receiving an NFT\n     */\n    function updateBorrower(\n        address _to,\n        uint64 _riskScore,\n        uint64 _riskFactor,\n        uint64 _interestRate,\n        uint64 _userMaxTier,\n        uint256 _flatfee,\n        uint256 score\n    ) public validEntry {\n        userData[_to] = Data(\n            _riskScore,\n            _riskFactor,\n            _interestRate,\n            _userMaxTier,\n            _flatfee,\n            0,\n            score\n        );\n    }\n\n    /**\n     * @dev Setter function that adds to the ownerToNFTokenCount\n     * @param _to The address of the receiver\n     * @param _tokenId The NFTid of the token\n     */\n    function _addNFToken(address _to, uint256 _tokenId) internal {\n        require(ownerId[_tokenId] == address(0));\n\n        ownerId[_tokenId] = _to;\n        ownerToNFTokenCount[_to] = ownerToNFTokenCount[_to] + 1;\n    }\n\n    /**\n     * @dev Function that removes an NFTid from the ownerId mapping\n     * and also reduces their ownerToNFTokenCount\n     * @param _from The address that you want to delete\n     * @param _tokenId The NFTid of the token\n     */\n    function _removeNFToken(address _from, uint256 _tokenId) internal {\n        require(ownerId[_tokenId] == _from);\n        ownerToNFTokenCount[_from] = ownerToNFTokenCount[_from] - 1;\n        delete ownerId[_tokenId];\n    }\n\n    /**\n     * @dev Getter function returns the number of NFTs an address owns\n     * @param _owner The address of the owner\n     */\n    function _getOwnerNFTCount(address _owner) internal view returns (uint256) {\n        return ownerToNFTokenCount[_owner];\n    }\n\n    /**\n     * @dev Function used to increase a user's riskScore\n     * @param _from The address of the penalized user\n     * @notice Used when a user misses a payment on their loan\n     */\n    function strikeBorrower(address _from) public validEntry {\n        userData[_from].riskScore = SafeMath.add(userData[_from].riskScore, 1);\n    }\n\n    /**\n     * @dev Getter function that returns the information from the Data struct\n     * @param _from The address of the user\n     */\n    function getUser(address _from)\n        public\n        view\n        validEntry\n        returns (\n            uint256,\n            uint256,\n            uint256,\n            uint256,\n            uint256\n        )\n    {\n        return (\n            userData[_from].riskScore,\n            userData[_from].riskFactor,\n            userData[_from].interestRate,\n            userData[_from].userMaxTier,\n            userData[_from].flatfee\n        );\n    }\n\n    /**\n     * @dev Setter function that updates the oracle address\n     */\n    function setOracleNFT() public validEntry {\n        address newOracle = oracle.addressChange(50, \"setOracleNFT\");\n        oracle = ExchangeOracle(newOracle);\n    }\n\n    /**\n     * @dev Setter function that updates the treasury address\n     */\n    function setTreasury() public validEntry {\n        address newTreasury = oracle.addressChange(50, \"setTreasury\");\n        Treasury = newTreasury;\n    }\n}\n",
  "sourcePath": "/Users/christianroque/Desktop/TungstenGroupProject/contracts/NFTLoan.sol",
  "compiler": {
    "name": "solc",
    "version": "0.7.6+commit.7338295f.Emscripten.clang"
  },
  "schemaVersion": "3.3.4",
  "updatedAt": "2021-07-04T19:00:45.580Z",
  "devdoc": {
    "kind": "dev",
    "methods": {
      "balanceOf(address)": {
        "details": "Getter function that determines the number of NFTs a particular address owns",
        "params": {
          "_owner": "The owner's address"
        },
        "returns": {
          "_0": "Returns a uint256"
        }
      },
      "getUser(address)": {
        "details": "Getter function that returns the information from the Data struct",
        "params": {
          "_from": "The address of the user"
        }
      },
      "mintBorrower(address,uint256,uint64,uint64,uint64,uint64,uint256,string)": {
        "details": "Mints an NFT for the borrower by calling previous functions and accessing data from the struct",
        "params": {
          "_flatfee": "The fee applied when receiving an NFT",
          "_interestRate": "The interestRate the receiver is charged",
          "_riskFactor": "The riskFactor of the receiver",
          "_riskScore": "The riskScore of the receiver",
          "_to": "The address that will receive the NFT",
          "_tokenId": "The NFTid",
          "_userMaxTier": "The max tier of the receiver"
        }
      },
      "name()": {
        "details": "Getter function that returns the name of the NFT (string)"
      },
      "ownerOf(uint256)": {
        "details": "Getter function that determines the owner of a NFTid",
        "params": {
          "_tokenId": "The NFTid you want to check"
        },
        "returns": {
          "_owner": "Returns an address"
        }
      },
      "setOracleNFT()": {
        "details": "Setter function that updates the oracle address"
      },
      "setTreasury()": {
        "details": "Setter function that updates the treasury address"
      },
      "strikeBorrower(address)": {
        "details": "Function used to increase a user's riskScore",
        "params": {
          "_from": "The address of the penalized user"
        }
      },
      "updateBorrower(address,uint64,uint64,uint64,uint64,uint256,uint256)": {
        "details": "Function used to update the Data struct of the client",
        "params": {
          "_flatfee": "The fee applied when receiving an NFT",
          "_interestRate": "The interestRate the receiver is charged",
          "_riskFactor": "The riskFactor of the receiver",
          "_riskScore": "The riskScore of the receiver",
          "_to": "The address that needs to updated",
          "_userMaxTier": "The max tier of the receiver"
        }
      }
    },
    "stateVariables": {
      "idToUri": {
        "details": "Mapping with key value uint256, used to attcah the NFTid to the NFT name"
      },
      "nftName": {
        "details": "String that stores the name of the NFT"
      },
      "oracle": {
        "details": "creating oracle instance"
      },
      "ownerId": {
        "details": "Mapping with key value uint256, used to attach the NFTid to an address"
      },
      "ownerToNFTokenCount": {
        "details": "Mapping with key value address, used to return the number of NFTs an address owns"
      },
      "userData": {
        "details": "Mapping with key value address, used to show the variety of NFT data that belongs to an address"
      }
    },
    "version": 1
  },
  "userdoc": {
    "kind": "user",
    "methods": {
      "strikeBorrower(address)": {
        "notice": "Used when a user misses a payment on their loan"
      }
    },
    "version": 1
  }
}